{
  "_format": "hh-sol-artifact-1",
  "contractName": "TestVault",
  "sourceName": "contracts/test/TestVault.sol",
  "abi": [
    {
      "inputs": [
        {
          "internalType": "contract ERC20",
          "name": "asset",
          "type": "address"
        }
      ],
      "stateMutability": "nonpayable",
      "type": "constructor"
    },
    {
      "anonymous": false,
      "inputs": [
        {
          "indexed": true,
          "internalType": "address",
          "name": "owner",
          "type": "address"
        },
        {
          "indexed": true,
          "internalType": "address",
          "name": "spender",
          "type": "address"
        },
        {
          "indexed": false,
          "internalType": "uint256",
          "name": "value",
          "type": "uint256"
        }
      ],
      "name": "Approval",
      "type": "event"
    },
    {
      "anonymous": false,
      "inputs": [
        {
          "indexed": true,
          "internalType": "address",
          "name": "sender",
          "type": "address"
        },
        {
          "indexed": true,
          "internalType": "address",
          "name": "owner",
          "type": "address"
        },
        {
          "indexed": false,
          "internalType": "uint256",
          "name": "assets",
          "type": "uint256"
        },
        {
          "indexed": false,
          "internalType": "uint256",
          "name": "shares",
          "type": "uint256"
        }
      ],
      "name": "Deposit",
      "type": "event"
    },
    {
      "anonymous": false,
      "inputs": [
        {
          "indexed": true,
          "internalType": "address",
          "name": "from",
          "type": "address"
        },
        {
          "indexed": true,
          "internalType": "address",
          "name": "to",
          "type": "address"
        },
        {
          "indexed": false,
          "internalType": "uint256",
          "name": "value",
          "type": "uint256"
        }
      ],
      "name": "Transfer",
      "type": "event"
    },
    {
      "anonymous": false,
      "inputs": [
        {
          "indexed": true,
          "internalType": "address",
          "name": "sender",
          "type": "address"
        },
        {
          "indexed": true,
          "internalType": "address",
          "name": "receiver",
          "type": "address"
        },
        {
          "indexed": true,
          "internalType": "address",
          "name": "owner",
          "type": "address"
        },
        {
          "indexed": false,
          "internalType": "uint256",
          "name": "assets",
          "type": "uint256"
        },
        {
          "indexed": false,
          "internalType": "uint256",
          "name": "shares",
          "type": "uint256"
        }
      ],
      "name": "Withdraw",
      "type": "event"
    },
    {
      "inputs": [
        {
          "internalType": "address",
          "name": "owner",
          "type": "address"
        },
        {
          "internalType": "address",
          "name": "spender",
          "type": "address"
        }
      ],
      "name": "allowance",
      "outputs": [
        {
          "internalType": "uint256",
          "name": "",
          "type": "uint256"
        }
      ],
      "stateMutability": "view",
      "type": "function"
    },
    {
      "inputs": [
        {
          "internalType": "address",
          "name": "spender",
          "type": "address"
        },
        {
          "internalType": "uint256",
          "name": "amount",
          "type": "uint256"
        }
      ],
      "name": "approve",
      "outputs": [
        {
          "internalType": "bool",
          "name": "",
          "type": "bool"
        }
      ],
      "stateMutability": "nonpayable",
      "type": "function"
    },
    {
      "inputs": [],
      "name": "asset",
      "outputs": [
        {
          "internalType": "address",
          "name": "",
          "type": "address"
        }
      ],
      "stateMutability": "view",
      "type": "function"
    },
    {
      "inputs": [
        {
          "internalType": "address",
          "name": "account",
          "type": "address"
        }
      ],
      "name": "balanceOf",
      "outputs": [
        {
          "internalType": "uint256",
          "name": "",
          "type": "uint256"
        }
      ],
      "stateMutability": "view",
      "type": "function"
    },
    {
      "inputs": [
        {
          "internalType": "uint256",
          "name": "shares",
          "type": "uint256"
        }
      ],
      "name": "convertToAssets",
      "outputs": [
        {
          "internalType": "uint256",
          "name": "",
          "type": "uint256"
        }
      ],
      "stateMutability": "view",
      "type": "function"
    },
    {
      "inputs": [
        {
          "internalType": "uint256",
          "name": "assets",
          "type": "uint256"
        }
      ],
      "name": "convertToShares",
      "outputs": [
        {
          "internalType": "uint256",
          "name": "",
          "type": "uint256"
        }
      ],
      "stateMutability": "view",
      "type": "function"
    },
    {
      "inputs": [],
      "name": "decimals",
      "outputs": [
        {
          "internalType": "uint8",
          "name": "",
          "type": "uint8"
        }
      ],
      "stateMutability": "view",
      "type": "function"
    },
    {
      "inputs": [
        {
          "internalType": "address",
          "name": "spender",
          "type": "address"
        },
        {
          "internalType": "uint256",
          "name": "subtractedValue",
          "type": "uint256"
        }
      ],
      "name": "decreaseAllowance",
      "outputs": [
        {
          "internalType": "bool",
          "name": "",
          "type": "bool"
        }
      ],
      "stateMutability": "nonpayable",
      "type": "function"
    },
    {
      "inputs": [
        {
          "internalType": "uint256",
          "name": "assets",
          "type": "uint256"
        },
        {
          "internalType": "address",
          "name": "receiver",
          "type": "address"
        }
      ],
      "name": "deposit",
      "outputs": [
        {
          "internalType": "uint256",
          "name": "",
          "type": "uint256"
        }
      ],
      "stateMutability": "nonpayable",
      "type": "function"
    },
    {
      "inputs": [
        {
          "internalType": "address",
          "name": "spender",
          "type": "address"
        },
        {
          "internalType": "uint256",
          "name": "addedValue",
          "type": "uint256"
        }
      ],
      "name": "increaseAllowance",
      "outputs": [
        {
          "internalType": "bool",
          "name": "",
          "type": "bool"
        }
      ],
      "stateMutability": "nonpayable",
      "type": "function"
    },
    {
      "inputs": [
        {
          "internalType": "address",
          "name": "",
          "type": "address"
        }
      ],
      "name": "maxDeposit",
      "outputs": [
        {
          "internalType": "uint256",
          "name": "",
          "type": "uint256"
        }
      ],
      "stateMutability": "view",
      "type": "function"
    },
    {
      "inputs": [
        {
          "internalType": "address",
          "name": "",
          "type": "address"
        }
      ],
      "name": "maxMint",
      "outputs": [
        {
          "internalType": "uint256",
          "name": "",
          "type": "uint256"
        }
      ],
      "stateMutability": "view",
      "type": "function"
    },
    {
      "inputs": [
        {
          "internalType": "address",
          "name": "owner",
          "type": "address"
        }
      ],
      "name": "maxRedeem",
      "outputs": [
        {
          "internalType": "uint256",
          "name": "",
          "type": "uint256"
        }
      ],
      "stateMutability": "view",
      "type": "function"
    },
    {
      "inputs": [
        {
          "internalType": "address",
          "name": "owner",
          "type": "address"
        }
      ],
      "name": "maxWithdraw",
      "outputs": [
        {
          "internalType": "uint256",
          "name": "",
          "type": "uint256"
        }
      ],
      "stateMutability": "view",
      "type": "function"
    },
    {
      "inputs": [
        {
          "internalType": "uint256",
          "name": "shares",
          "type": "uint256"
        },
        {
          "internalType": "address",
          "name": "receiver",
          "type": "address"
        }
      ],
      "name": "mint",
      "outputs": [
        {
          "internalType": "uint256",
          "name": "",
          "type": "uint256"
        }
      ],
      "stateMutability": "nonpayable",
      "type": "function"
    },
    {
      "inputs": [],
      "name": "name",
      "outputs": [
        {
          "internalType": "string",
          "name": "",
          "type": "string"
        }
      ],
      "stateMutability": "view",
      "type": "function"
    },
    {
      "inputs": [
        {
          "internalType": "uint256",
          "name": "assets",
          "type": "uint256"
        }
      ],
      "name": "previewDeposit",
      "outputs": [
        {
          "internalType": "uint256",
          "name": "",
          "type": "uint256"
        }
      ],
      "stateMutability": "view",
      "type": "function"
    },
    {
      "inputs": [
        {
          "internalType": "uint256",
          "name": "shares",
          "type": "uint256"
        }
      ],
      "name": "previewMint",
      "outputs": [
        {
          "internalType": "uint256",
          "name": "",
          "type": "uint256"
        }
      ],
      "stateMutability": "view",
      "type": "function"
    },
    {
      "inputs": [
        {
          "internalType": "uint256",
          "name": "shares",
          "type": "uint256"
        }
      ],
      "name": "previewRedeem",
      "outputs": [
        {
          "internalType": "uint256",
          "name": "",
          "type": "uint256"
        }
      ],
      "stateMutability": "view",
      "type": "function"
    },
    {
      "inputs": [
        {
          "internalType": "uint256",
          "name": "assets",
          "type": "uint256"
        }
      ],
      "name": "previewWithdraw",
      "outputs": [
        {
          "internalType": "uint256",
          "name": "",
          "type": "uint256"
        }
      ],
      "stateMutability": "view",
      "type": "function"
    },
    {
      "inputs": [
        {
          "internalType": "uint256",
          "name": "shares",
          "type": "uint256"
        },
        {
          "internalType": "address",
          "name": "receiver",
          "type": "address"
        },
        {
          "internalType": "address",
          "name": "owner",
          "type": "address"
        }
      ],
      "name": "redeem",
      "outputs": [
        {
          "internalType": "uint256",
          "name": "",
          "type": "uint256"
        }
      ],
      "stateMutability": "nonpayable",
      "type": "function"
    },
    {
      "inputs": [],
      "name": "symbol",
      "outputs": [
        {
          "internalType": "string",
          "name": "",
          "type": "string"
        }
      ],
      "stateMutability": "view",
      "type": "function"
    },
    {
      "inputs": [],
      "name": "totalAssets",
      "outputs": [
        {
          "internalType": "uint256",
          "name": "",
          "type": "uint256"
        }
      ],
      "stateMutability": "view",
      "type": "function"
    },
    {
      "inputs": [],
      "name": "totalSupply",
      "outputs": [
        {
          "internalType": "uint256",
          "name": "",
          "type": "uint256"
        }
      ],
      "stateMutability": "view",
      "type": "function"
    },
    {
      "inputs": [
        {
          "internalType": "address",
          "name": "to",
          "type": "address"
        },
        {
          "internalType": "uint256",
          "name": "amount",
          "type": "uint256"
        }
      ],
      "name": "transfer",
      "outputs": [
        {
          "internalType": "bool",
          "name": "",
          "type": "bool"
        }
      ],
      "stateMutability": "nonpayable",
      "type": "function"
    },
    {
      "inputs": [
        {
          "internalType": "address",
          "name": "from",
          "type": "address"
        },
        {
          "internalType": "address",
          "name": "to",
          "type": "address"
        },
        {
          "internalType": "uint256",
          "name": "amount",
          "type": "uint256"
        }
      ],
      "name": "transferFrom",
      "outputs": [
        {
          "internalType": "bool",
          "name": "",
          "type": "bool"
        }
      ],
      "stateMutability": "nonpayable",
      "type": "function"
    },
    {
      "inputs": [
        {
          "internalType": "uint256",
          "name": "assets",
          "type": "uint256"
        },
        {
          "internalType": "address",
          "name": "receiver",
          "type": "address"
        },
        {
          "internalType": "address",
          "name": "owner",
          "type": "address"
        }
      ],
      "name": "withdraw",
      "outputs": [
        {
          "internalType": "uint256",
          "name": "",
          "type": "uint256"
        }
      ],
      "stateMutability": "nonpayable",
      "type": "function"
    }
  ],
  "bytecode": "0x60c080604052346103695780611a17803803809161001d8285610389565b833960209283918101031261036957516001600160a01b03811691908290036103695760405161004c8161036e565b601381527f4578616d706c65205661756c7420546f6b656e00000000000000000000000000828201526040516100818161036e565b60038082526211559560ea1b8483015282516001600160401b0392838211610275578254916001958684811c9416801561035f575b88851014610349578190601f948581116102f8575b5088908583116001146102965760009261028b575b505060001982861b1c191690861b1783555b80519384116102755760049586548681811c9116801561026b575b8282101461025657838111610210575b50809285116001146101a7575093839491849260009561019c575b50501b92600019911b1c19161790555b610151816103ac565b9015610194575b60a05260805260405161159b908161047c823960805181818161065e01528181610a1e01528181610f4f015261113e015260a051816106980152f35b506012610158565b015193503880610138565b92919084601f1981168860005285600020956000905b898383106101f657505050106101dc575b50505050811b019055610148565b01519060f884600019921b161c19169055388080806101ce565b8587015189559097019694850194889350908101906101bd565b87600052816000208480880160051c82019284891061024d575b0160051c019087905b82811061024157505061011d565b60008155018790610233565b9250819261022a565b602288634e487b7160e01b6000525260246000fd5b90607f169061010d565b634e487b7160e01b600052604160045260246000fd5b0151905038806100e0565b90889350601f19831691876000528a6000209260005b8c8282106102e257505084116102ca575b505050811b0183556100f2565b015160001983881b60f8161c191690553880806102bd565b8385015186558c979095019493840193016102ac565b90915085600052886000208580850160051c8201928b8610610340575b918a91869594930160051c01915b8281106103315750506100cb565b600081558594508a9101610323565b92508192610315565b634e487b7160e01b600052602260045260246000fd5b93607f16936100b6565b600080fd5b604081019081106001600160401b0382111761027557604052565b601f909101601f19168101906001600160401b0382119082101761027557604052565b906040516020908181019063313ce56760e01b8252600481526103ce8161036e565b5160009485928392916001600160a01b03165afa3d15610473573d906001600160401b03821161045f576040519161040f601f8201601f1916850184610389565b82523d858484013e5b80610454575b610429575b50508190565b818180518101031261045057015160ff8111156104465780610423565b6001925060ff1690565b8380fd5b50818151101561041e565b634e487b7160e01b85526041600452602485fd5b60609061041856fe6040608081526004908136101561001557600080fd5b600090813560e01c92836301e1d1141461087557836306fdde031461078057836307a2d13a146105ec578363095ea7b3146107575783630a28a4771461073857836318160ddd1461071a57836323b872dd146106de578363313ce5671461068257836338d52e0f1461063f57836339509351146105f1578363402d267d146102135783634cdad506146105ec5783636e553f65146105b957836370a082311461059957836394bf804d1461056257836395d89b411461045d578363a457c2d7146103a1578363a9059cbb14610371578363b3d7f6b914610352578363b460af94146102b4578363ba0876521461021857508263c63d75b614610213578263c6e6f5921461014e578263ce96cb77146101de578263d905777e1461019e578263dd62ed3e1461015357505063ef8b30f71461014e57600080fd5b61098c565b3461019a578060031936011261019a578060209261016f610905565b61017761091b565b6001600160a01b0391821683526001865283832091168252845220549051908152f35b5080fd5b3461019a57602036600319011261019a576020906101d76101bd610905565b6001600160a01b0316600052600060205260406000205490565b9051908152f35b3461019a57602036600319011261019a576101d7816020936001600160a01b03610206610905565b1681528085522054610ade565b610931565b82346102b1575061022836610957565b92610247846001600160a01b0316600052600060205260406000205490565b831161026e5750816102689161025f60209694610ade565b9485913361103d565b51908152f35b606490602086519162461bcd60e51b8352820152601d60248201527f455243343632363a2072656465656d206d6f7265207468616e206d61780000006044820152fd5b80fd5b82346102b157506102c436610957565b926102ee6102e9859493946001600160a01b0316600052600060205260406000205490565b610ade565b821161030f5750602093918161030661026893610c3d565b9485923361103d565b606490602086519162461bcd60e51b8352820152601f60248201527f455243343632363a207769746864726177206d6f7265207468616e206d6178006044820152fd5b91346102b15760203660031901126102b157506101d760209235610ab0565b503461019a578060031936011261019a5760209061039a610390610905565b6024359033610d2b565b5160018152f35b82346102b157826003193601126102b1576103ba610905565b91836024359233815260016020528181206001600160a01b03861682526020522054908282106103f45760208561039a8585038733610b09565b608490602086519162461bcd60e51b8352820152602560248201527f45524332303a2064656372656173656420616c6c6f77616e63652062656c6f7760448201527f207a65726f0000000000000000000000000000000000000000000000000000006064820152fd5b92503461019a578160031936011261019a5780519180938054916001908360011c9260018516948515610558575b60209586861081146105455785895290811561052157506001146104c9575b6104c587876104bb828c03836109aa565b5191829182610891565b0390f35b81529295507f8a35acfbc15ff81a39ae7d344fd709f28e8600b4aa8c65c6b64bfe7fe36bd19b5b82841061050e57505050826104c5946104bb928201019438806104aa565b80548685018801529286019281016104f0565b60ff19168887015250505050151560051b83010192506104bb826104c538806104aa565b602484602285634e487b7160e01b835252fd5b93607f169361048b565b3461059557816003193601126105955760209250359061026861058361091b565b9261058d81610ab0565b809433610edf565b8280fd5b503461019a57602036600319011261019a576020906101d76101bd610905565b346105955781600319360112610595576020925035906102686105da61091b565b6105e384610c68565b93849133610edf565b6108da565b503461019a578060031936011261019a5761039a602092610638610613610905565b91338152600186528481206001600160a01b0384168252865284602435912054610a8d565b9033610b09565b503461019a578160031936011261019a57602090516001600160a01b037f0000000000000000000000000000000000000000000000000000000000000000168152f35b92503461019a578160031936011261019a5760ff7f0000000000000000000000000000000000000000000000000000000000000000169160ff83116106cb576020838351908152f35b80601185634e487b7160e01b6024945252fd5b503461019a57606036600319011261019a5760209061039a6106fe610905565b61070661091b565b60443591610715833383610c93565b610d2b565b503461019a578160031936011261019a576020906002549051908152f35b91346102b15760203660031901126102b157506101d760209235610c3d565b503461019a578060031936011261019a5760209061039a610776610905565b6024359033610b09565b903461059557826003193601126105955780519183600354906001908260011c9260018116801561086b575b6020958686108214610858575084885290811561083657506001146107dd575b6104c586866104bb828b03836109aa565b929550600383527fc2575a0e9e593c00f959f8c92f12db2869c3395a3b0502d05e2516446f71f85b5b82841061082357505050826104c5946104bb9282010194866107cc565b8054868501880152928601928101610806565b60ff191687860152505050151560051b83010192506104bb826104c5866107cc565b836022602492634e487b7160e01b835252fd5b93607f16936107ac565b503461019a578160031936011261019a576020906101d76109e2565b6020808252825181830181905290939260005b8281106108c657505060409293506000838284010152601f8019910116010190565b8181018601518482016040015285016108a4565b346109005760203660031901126109005760206108f8600435610ade565b604051908152f35b600080fd5b600435906001600160a01b038216820361090057565b602435906001600160a01b038216820361090057565b346109005760203660031901126109005761094a610905565b5060206040516000198152f35b606090600319011261090057600435906001600160a01b03906024358281168103610900579160443590811681036109005790565b346109005760203660031901126109005760206108f8600435610c68565b90601f8019910116810190811067ffffffffffffffff8211176109cc57604052565b634e487b7160e01b600052604160045260246000fd5b6040517f70a082310000000000000000000000000000000000000000000000000000000081523060048201526020816024816001600160a01b037f0000000000000000000000000000000000000000000000000000000000000000165afa908115610a8157600091610a52575090565b90506020813d602011610a79575b81610a6d602093836109aa565b81010312610900575190565b3d9150610a60565b6040513d6000823e3d90fd5b91908201809211610a9a57565b634e487b7160e01b600052601160045260246000fd5b610ab86109e2565b60018101809111610a9a576002549060018201809211610a9a57610adb92611265565b90565b610ae66109e2565b60018101809111610a9a576002549060018201809211610a9a57610adb926112a5565b6001600160a01b03809116918215610bd45716918215610b6a5760207f8c5be1e5ebec7d5bd14f71427d1e84f3dd0314c0f7b2291e5b200ac8c7c3b925918360005260018252604060002085600052825280604060002055604051908152a3565b608460405162461bcd60e51b815260206004820152602260248201527f45524332303a20617070726f766520746f20746865207a65726f20616464726560448201527f73730000000000000000000000000000000000000000000000000000000000006064820152fd5b608460405162461bcd60e51b8152602060048201526024808201527f45524332303a20617070726f76652066726f6d20746865207a65726f2061646460448201527f72657373000000000000000000000000000000000000000000000000000000006064820152fd5b60025460018101809111610a9a57610c536109e2565b9060018201809211610a9a57610adb92611265565b60025460018101809111610a9a57610c7e6109e2565b9060018201809211610a9a57610adb926112a5565b906001600160a01b0380831660005260016020526040600020908216600052602052604060002054926000198403610ccc575b50505050565b808410610ce757610cde930391610b09565b38808080610cc6565b606460405162461bcd60e51b815260206004820152601d60248201527f45524332303a20696e73756666696369656e7420616c6c6f77616e63650000006044820152fd5b6001600160a01b03809116918215610e755716918215610e0b57600082815280602052604081205491808310610da157604082827fddf252ad1be2c89b69c2b068fc378daa952ba7f163c4a11628f55a4df523b3ef958760209652828652038282205586815220818154019055604051908152a3565b608460405162461bcd60e51b815260206004820152602660248201527f45524332303a207472616e7366657220616d6f756e742065786365656473206260448201527f616c616e636500000000000000000000000000000000000000000000000000006064820152fd5b608460405162461bcd60e51b815260206004820152602360248201527f45524332303a207472616e7366657220746f20746865207a65726f206164647260448201527f65737300000000000000000000000000000000000000000000000000000000006064820152fd5b608460405162461bcd60e51b815260206004820152602560248201527f45524332303a207472616e736665722066726f6d20746865207a65726f20616460448201527f64726573730000000000000000000000000000000000000000000000000000006064820152fd5b90916040918251937f23b872dd0000000000000000000000000000000000000000000000000000000060208601526001600160a01b03809216948560248201523060448201528360648201526064815260a081019080821067ffffffffffffffff8311176109cc57610f739186527f000000000000000000000000000000000000000000000000000000000000000061136d565b16938415610ffa579081610fab7fdcbc1c05240f31ff3ad067ef1ee35ce4997762752e3a095284754544f4c709d79493600254610a8d565b600255856000526000602052826000208181540190558560007fddf252ad1be2c89b69c2b068fc378daa952ba7f163c4a11628f55a4df523b3ef60208651858152a382519182526020820152a3565b6064835162461bcd60e51b815260206004820152601f60248201527f45524332303a206d696e7420746f20746865207a65726f2061646472657373006044820152fd5b919390926001600160a01b0391828616958184861695888703611254575b50505085156111ea57600094868652602090868252604094858820548481106111815784908a8a528985520386892055836002540360025587897fddf252ad1be2c89b69c2b068fc378daa952ba7f163c4a11628f55a4df523b3ef858951888152a38551917fa9059cbb0000000000000000000000000000000000000000000000000000000084840152169687602483015284604483015260448252608082019082821067ffffffffffffffff83111761116d57508594939291611162917ffbde797d201c681b91056529119e0b02407c7bb96a4a2c75c01fc9667232c8db97527f000000000000000000000000000000000000000000000000000000000000000061136d565b8351928352820152a4565b80634e487b7160e01b602492526041600452fd5b60848488519062461bcd60e51b82526004820152602260248201527f45524332303a206275726e20616d6f756e7420657863656564732062616c616e60448201527f63650000000000000000000000000000000000000000000000000000000000006064820152fd5b608460405162461bcd60e51b815260206004820152602160248201527f45524332303a206275726e2066726f6d20746865207a65726f2061646472657360448201527f73000000000000000000000000000000000000000000000000000000000000006064820152fd5b61125d92610c93565b38818161105b565b91906112728282856112a5565b92821561128f57096112815790565b60018101809111610a9a5790565b634e487b7160e01b600052601260045260246000fd5b91600019828409928281029283808610950394808603951461135f578483111561131b578291096001821901821680920460028082600302188083028203028083028203028083028203028083028203028083028203028092029003029360018380600003040190848311900302920304170290565b606460405162461bcd60e51b815260206004820152601560248201527f4d6174683a206d756c446976206f766572666c6f7700000000000000000000006044820152fd5b50508092501561128f570490565b6001600160a01b0316906040516040810167ffffffffffffffff90828110828211176109cc576040526020938483527f5361666545524332303a206c6f772d6c6576656c2063616c6c206661696c6564858401526000808587829751910182855af1903d156114c6573d9283116114b25790611409939291604051926113fc88601f19601f84011601856109aa565b83523d868885013e6114d1565b80519182159184831561148e575b5050509050156114245750565b6084906040519062461bcd60e51b82526004820152602a60248201527f5361666545524332303a204552433230206f7065726174696f6e20646964206e60448201527f6f742073756363656564000000000000000000000000000000000000000000006064820152fd5b91938180945001031261019a578201519081151582036102b1575080388084611417565b602485634e487b7160e01b81526041600452fd5b906114099392506060915b9192901561153257508151156114e5575090565b3b156114ee5790565b606460405162461bcd60e51b815260206004820152601d60248201527f416464726573733a2063616c6c20746f206e6f6e2d636f6e74726163740000006044820152fd5b8251909150156115455750805190602001fd5b6115619060405191829162461bcd60e51b835260048301610891565b0390fdfea2646970667358221220f54b256f4edb2ef835b6650ce856b092394e1a711a51af8095b71bb1d78acfe764736f6c63430008190033",
  "linkReferences": {},
  "deployedLinkReferences": {}
}