{
  "_format": "hh-sol-artifact-1",
  "contractName": "BatchedExecUtil",
  "sourceName": "contracts/safe7579/utils/DCUtil.sol",
  "abi": [
    {
      "inputs": [
        {
          "components": [
            {
              "internalType": "address",
              "name": "target",
              "type": "address"
            },
            {
              "internalType": "uint256",
              "name": "value",
              "type": "uint256"
            },
            {
              "internalType": "bytes",
              "name": "callData",
              "type": "bytes"
            }
          ],
          "internalType": "struct Execution[]",
          "name": "executions",
          "type": "tuple[]"
        }
      ],
      "name": "execute",
      "outputs": [],
      "stateMutability": "nonpayable",
      "type": "function"
    },
    {
      "inputs": [
        {
          "components": [
            {
              "internalType": "address",
              "name": "target",
              "type": "address"
            },
            {
              "internalType": "uint256",
              "name": "value",
              "type": "uint256"
            },
            {
              "internalType": "bytes",
              "name": "callData",
              "type": "bytes"
            }
          ],
          "internalType": "struct Execution[]",
          "name": "executions",
          "type": "tuple[]"
        }
      ],
      "name": "executeReturn",
      "outputs": [
        {
          "internalType": "bytes[]",
          "name": "result",
          "type": "bytes[]"
        }
      ],
      "stateMutability": "nonpayable",
      "type": "function"
    },
    {
      "inputs": [
        {
          "components": [
            {
              "internalType": "address",
              "name": "target",
              "type": "address"
            },
            {
              "internalType": "uint256",
              "name": "value",
              "type": "uint256"
            },
            {
              "internalType": "bytes",
              "name": "callData",
              "type": "bytes"
            }
          ],
          "internalType": "struct Execution[]",
          "name": "executions",
          "type": "tuple[]"
        }
      ],
      "name": "tryExecute",
      "outputs": [
        {
          "internalType": "bool",
          "name": "success",
          "type": "bool"
        }
      ],
      "stateMutability": "nonpayable",
      "type": "function"
    },
    {
      "inputs": [
        {
          "components": [
            {
              "internalType": "address",
              "name": "target",
              "type": "address"
            },
            {
              "internalType": "uint256",
              "name": "value",
              "type": "uint256"
            },
            {
              "internalType": "bytes",
              "name": "callData",
              "type": "bytes"
            }
          ],
          "internalType": "struct Execution[]",
          "name": "executions",
          "type": "tuple[]"
        }
      ],
      "name": "tryExecuteReturn",
      "outputs": [
        {
          "internalType": "bool[]",
          "name": "success",
          "type": "bool[]"
        },
        {
          "internalType": "bytes[]",
          "name": "result",
          "type": "bytes[]"
        }
      ],
      "stateMutability": "nonpayable",
      "type": "function"
    }
  ],
  "bytecode": "0x6080806040523460155761053d908161001b8239f35b600080fdfe60406080604052600436101561001457600080fd5b6000803560e01c9182633f707e6b1461005d575050806350c8902214610058578063610855731461005357639abb6e171461004e57600080fd5b6102d8565b610201565b61010b565b346100b55761006b366100b9565b839291925b81811061007b578480f35b806100ae602061008e600194868961037c565b610097816103a3565b6100a3888301836103c4565b9390920135906104a4565b5001610070565b5080fd5b9060206003198301126101065760043567ffffffffffffffff9283821161010657806023830112156101065781600401359384116101065760248460051b83010111610106576024019190565b600080fd5b3461010657610119366100b9565b60009182915b808410610133576020836040519015158152f35b9091506001610169602061014886858761037c565b610151816103a3565b61015e60408301836103c4565b9390920135906104dd565b50930192919061011f565b9080825180825260208092019180808360051b8601019501936000936000915b8483106101a5575050505050505090565b9091929394959684601f198084840301855289518051908185528a5b8281106101ed57505080840183018a9052601f0116909101810197810196959493600101920190610194565b8181018501518682018601528994016101c1565b346101065761020f366100b9565b9061021982610450565b9160005b81811061023e576040516020808252819061023a90820187610174565b0390f35b806102676020610251600194868861037c565b61025a816103a3565b6100a360408301836103c4565b6102718287610490565b5261027c8186610490565b500161021d565b9092916040820191604081528451809352606081019260208096019060005b8181106102c2575050506102bf9394506020818403910152610174565b90565b82511515865294870194918701916001016102a2565b34610106576102e6366100b9565b6102ef81610450565b916103016102fc83610438565b61040d565b9180835261030e81610438565b60209190601f1901368584013760005b818110610334576040518061023a888883610283565b8061034684610148600194868961037c565b610350838a610490565b5261035b8288610490565b90151590520161031e565b634e487b7160e01b600052603260045260246000fd5b919081101561039e5760051b81013590605e1981360301821215610106570190565b610366565b3573ffffffffffffffffffffffffffffffffffffffff811681036101065790565b903590601e1981360301821215610106570180359067ffffffffffffffff82116101065760200191813603831361010657565b634e487b7160e01b600052604160045260246000fd5b6040519190601f01601f1916820167ffffffffffffffff81118382101761043357604052565b6103f7565b67ffffffffffffffff81116104335760051b60200190565b9061045d6102fc83610438565b828152809261046e601f1991610438565b019060005b82811061047f57505050565b806060602080938501015201610473565b805182101561039e5760209160051b010190565b9092600092819594604051968792833738935af1156104d3573d82523d6000602084013e60203d830101604052565b503d6000823e3d90fd5b906000928491604051958692833738935af115913d82523d6000602084013e60203d83010160405256fea26469706673582212202a1b093fc0513655b1c51f5b69f876ab54fd1140a8e0788e4ddb356f46269ae364736f6c63430008190033",
  "linkReferences": {},
  "deployedLinkReferences": {}
}