{
  "_format": "hh-sol-artifact-1",
  "contractName": "ModuleInstallUtil",
  "sourceName": "contracts/safe7579/utils/DCUtil.sol",
  "abi": [
    {
      "anonymous": false,
      "inputs": [
        {
          "indexed": false,
          "internalType": "uint256",
          "name": "moduleTypeId",
          "type": "uint256"
        },
        {
          "indexed": false,
          "internalType": "address",
          "name": "module",
          "type": "address"
        }
      ],
      "name": "ModuleInstalled",
      "type": "event"
    },
    {
      "anonymous": false,
      "inputs": [
        {
          "indexed": false,
          "internalType": "uint256",
          "name": "moduleTypeId",
          "type": "uint256"
        },
        {
          "indexed": false,
          "internalType": "address",
          "name": "module",
          "type": "address"
        }
      ],
      "name": "ModuleUninstalled",
      "type": "event"
    },
    {
      "inputs": [
        {
          "internalType": "uint256",
          "name": "moduleTypeId",
          "type": "uint256"
        },
        {
          "internalType": "address",
          "name": "module",
          "type": "address"
        },
        {
          "internalType": "bytes",
          "name": "initData",
          "type": "bytes"
        }
      ],
      "name": "installModule",
      "outputs": [],
      "stateMutability": "nonpayable",
      "type": "function"
    },
    {
      "inputs": [
        {
          "internalType": "uint256",
          "name": "moduleTypeId",
          "type": "uint256"
        },
        {
          "internalType": "address",
          "name": "module",
          "type": "address"
        },
        {
          "internalType": "bytes",
          "name": "initData",
          "type": "bytes"
        }
      ],
      "name": "unInstallModule",
      "outputs": [],
      "stateMutability": "nonpayable",
      "type": "function"
    }
  ],
  "bytecode": "0x60808060405234601557610306908161001b8239f35b600080fdfe60806040818152600436101561001457600080fd5b600091823560e01c908163782725251461010f5750639517e29f1461003857600080fd5b3461010b5781610047366101fe565b906001600160a01b038395931691823b156100fd576100979284928389518096819582947f6d61fe70000000000000000000000000000000000000000000000000000000008452600484016102a8565b03925af18015610101576100e9575b505091519182526001600160a01b031660208201527fd21d0b289f126c4b473ea641963e766833c2f13866e4ff480abd787c100ef1239080604081015b0390a180f35b6100f290610265565b6100fd5783386100a6565b8380fd5b85513d84823e3d90fd5b5080fd5b8391503461010b57610120366101fe565b6001600160a01b038395931691823b156101fa579183878161016b819583977f8a91b0e3000000000000000000000000000000000000000000000000000000008452600484016102a8565b03925af180156101f0576101bb575b5092519283526001600160a01b03166020830152907f341347516a9de374859dfda710fa4828b2d48cb57d4fbe4c1149612b8e02276e9080604081016100e3565b7f341347516a9de374859dfda710fa4828b2d48cb57d4fbe4c1149612b8e02276e936101e96100e392610265565b935061017a565b85513d86823e3d90fd5b8680fd5b90606060031983011261026057600435916024356001600160a01b0381168103610260579160443567ffffffffffffffff9283821161026057806023830112156102605781600401359384116102605760248483010111610260576024019190565b600080fd5b67ffffffffffffffff811161027957604052565b7f4e487b7100000000000000000000000000000000000000000000000000000000600052604160045260246000fd5b90918060409360208452816020850152848401376000828201840152601f01601f191601019056fea26469706673582212204a9fde4ec020b3c34e0cbf7760622cf5f26da5e9fa13dabee4d4aec79a1ab16364736f6c63430008190033",
  "linkReferences": {},
  "deployedLinkReferences": {}
}