{
  "_format": "hh-sol-artifact-1",
  "contractName": "Safe7579DCUtil",
  "sourceName": "contracts/safe7579/utils/DCUtil.sol",
  "abi": [
    {
      "anonymous": false,
      "inputs": [
        {
          "indexed": false,
          "internalType": "uint256",
          "name": "moduleTypeId",
          "type": "uint256"
        },
        {
          "indexed": false,
          "internalType": "address",
          "name": "module",
          "type": "address"
        }
      ],
      "name": "ModuleInstalled",
      "type": "event"
    },
    {
      "anonymous": false,
      "inputs": [
        {
          "indexed": false,
          "internalType": "uint256",
          "name": "moduleTypeId",
          "type": "uint256"
        },
        {
          "indexed": false,
          "internalType": "address",
          "name": "module",
          "type": "address"
        }
      ],
      "name": "ModuleUninstalled",
      "type": "event"
    },
    {
      "inputs": [
        {
          "components": [
            {
              "internalType": "address",
              "name": "target",
              "type": "address"
            },
            {
              "internalType": "uint256",
              "name": "value",
              "type": "uint256"
            },
            {
              "internalType": "bytes",
              "name": "callData",
              "type": "bytes"
            }
          ],
          "internalType": "struct Execution[]",
          "name": "executions",
          "type": "tuple[]"
        }
      ],
      "name": "execute",
      "outputs": [],
      "stateMutability": "nonpayable",
      "type": "function"
    },
    {
      "inputs": [
        {
          "components": [
            {
              "internalType": "address",
              "name": "target",
              "type": "address"
            },
            {
              "internalType": "uint256",
              "name": "value",
              "type": "uint256"
            },
            {
              "internalType": "bytes",
              "name": "callData",
              "type": "bytes"
            }
          ],
          "internalType": "struct Execution[]",
          "name": "executions",
          "type": "tuple[]"
        }
      ],
      "name": "executeReturn",
      "outputs": [
        {
          "internalType": "bytes[]",
          "name": "result",
          "type": "bytes[]"
        }
      ],
      "stateMutability": "nonpayable",
      "type": "function"
    },
    {
      "inputs": [
        {
          "internalType": "uint256",
          "name": "moduleTypeId",
          "type": "uint256"
        },
        {
          "internalType": "address",
          "name": "module",
          "type": "address"
        },
        {
          "internalType": "bytes",
          "name": "initData",
          "type": "bytes"
        }
      ],
      "name": "installModule",
      "outputs": [],
      "stateMutability": "nonpayable",
      "type": "function"
    },
    {
      "inputs": [
        {
          "internalType": "address",
          "name": "target",
          "type": "address"
        },
        {
          "internalType": "bytes",
          "name": "data",
          "type": "bytes"
        }
      ],
      "name": "staticCall",
      "outputs": [],
      "stateMutability": "view",
      "type": "function"
    },
    {
      "inputs": [
        {
          "components": [
            {
              "internalType": "address",
              "name": "target",
              "type": "address"
            },
            {
              "internalType": "uint256",
              "name": "value",
              "type": "uint256"
            },
            {
              "internalType": "bytes",
              "name": "callData",
              "type": "bytes"
            }
          ],
          "internalType": "struct Execution[]",
          "name": "executions",
          "type": "tuple[]"
        }
      ],
      "name": "tryExecute",
      "outputs": [
        {
          "internalType": "bool",
          "name": "success",
          "type": "bool"
        }
      ],
      "stateMutability": "nonpayable",
      "type": "function"
    },
    {
      "inputs": [
        {
          "components": [
            {
              "internalType": "address",
              "name": "target",
              "type": "address"
            },
            {
              "internalType": "uint256",
              "name": "value",
              "type": "uint256"
            },
            {
              "internalType": "bytes",
              "name": "callData",
              "type": "bytes"
            }
          ],
          "internalType": "struct Execution[]",
          "name": "executions",
          "type": "tuple[]"
        }
      ],
      "name": "tryExecuteReturn",
      "outputs": [
        {
          "internalType": "bool[]",
          "name": "success",
          "type": "bool[]"
        },
        {
          "internalType": "bytes[]",
          "name": "result",
          "type": "bytes[]"
        }
      ],
      "stateMutability": "nonpayable",
      "type": "function"
    },
    {
      "inputs": [
        {
          "internalType": "uint256",
          "name": "moduleTypeId",
          "type": "uint256"
        },
        {
          "internalType": "address",
          "name": "module",
          "type": "address"
        },
        {
          "internalType": "bytes",
          "name": "initData",
          "type": "bytes"
        }
      ],
      "name": "unInstallModule",
      "outputs": [],
      "stateMutability": "nonpayable",
      "type": "function"
    }
  ],
  "bytecode": "0x608080604052346015576108a6908161001b8239f35b600080fdfe60406080604052600436101561001457600080fd5b6000803560e01c9182633f707e6b1461008d575050806350c890221461008857806361085573146100835780636a2216571461007e57806378272525146100795780639517e29f1461007457639abb6e171461006f57600080fd5b610624565b6104e9565b6103fc565b61031b565b610235565b61013d565b346100e75761009b366100eb565b839291925b8181106100ab578480f35b806100e060206100be60019486896106e6565b80356100c9816102b9565b6100d58883018361070d565b93909201359061080d565b50016100a0565b5080fd5b9060206003198301126101385760043567ffffffffffffffff9283821161013857806023830112156101385781600401359384116101385760248460051b83010111610138576024019190565b600080fd5b346101385761014b366100eb565b60009182915b808410610165576020836040519015158152f35b909150600161019d602061017a8685876106e6565b8035610185816102b9565b610192604083018361070d565b939092013590610846565b509301929190610151565b9080825180825260208092019180808360051b8601019501936000936000915b8483106101d9575050505050505090565b9091929394959684601f198084840301855289518051908185528a5b82811061022157505080840183018a9052601f01169091018101978101969594936001019201906101c8565b8181018501518682018601528994016101f5565b3461013857610243366100eb565b9061024d82610758565b9160005b818110610272576040516020808252819061026e908201876101a8565b0390f35b8061029d602061028560019486886106e6565b8035610290816102b9565b6100d5604083018361070d565b6102a782876107a2565b526102b281866107a2565b5001610251565b6001600160a01b0381160361013857565b634e487b7160e01b600052604160045260246000fd5b67ffffffffffffffff81116102f457604052565b6102ca565b90601f8019910116810190811067ffffffffffffffff8211176102f457604052565b3461013857604036600319011261013857600435610338816102b9565b6024359067ffffffffffffffff80831161013857366023840112156101385782600401359081116102f4576040519261037b601f8301601f1916602001856102f9565b8184523660248383010111610138578160009260246020930183870137840101526107b6565b90606060031983011261013857600435916024356103be816102b9565b9160443567ffffffffffffffff9283821161013857806023830112156101385781600401359384116101385760248483010111610138576024019190565b346101385761040a366103a1565b6001600160a01b038392931690813b156101385761045d93604051928380927f8a91b0e30000000000000000000000000000000000000000000000000000000082528160009889968793600484016107d9565b03925af180156104e4576104b3575b50604080519384526001600160a01b03909116602084015290917f341347516a9de374859dfda710fa4828b2d48cb57d4fbe4c1149612b8e02276e91819081015b0390a180f35b916104de7f341347516a9de374859dfda710fa4828b2d48cb57d4fbe4c1149612b8e02276e936102e0565b9161046c565b610801565b34610138576104f7366103a1565b6001600160a01b038392931690813b156101385761054a93604051928380927f6d61fe700000000000000000000000000000000000000000000000000000000082528160009889968793600484016107d9565b03925af180156104e45761059e575b50604080519384526001600160a01b03909116602084015290917fd21d0b289f126c4b473ea641963e766833c2f13866e4ff480abd787c100ef12391819081016104ad565b916105c97fd21d0b289f126c4b473ea641963e766833c2f13866e4ff480abd787c100ef123936102e0565b91610559565b9092916040820191604081528451809352606081019260208096019060005b81811061060e5750505061060b93945060208184039101526101a8565b90565b82511515865294870194918701916001016105ee565b3461013857610632366100eb565b61063b81610758565b9161064582610740565b91604061065560405194856102f9565b81845261066182610740565b60209290601f1901368685013760005b818110610687576040518061026e8989836105cf565b806106b085610699600194868a6106e6565b80356106a4816102b9565b6101928883018361070d565b6106ba838b6107a2565b526106c582896107a2565b901515905201610671565b634e487b7160e01b600052603260045260246000fd5b91908110156107085760051b81013590605e1981360301821215610138570190565b6106d0565b903590601e1981360301821215610138570180359067ffffffffffffffff82116101385760200191813603831361013857565b67ffffffffffffffff81116102f45760051b60200190565b9061076282610740565b61076f60405191826102f9565b8281528092610780601f1991610740565b019060005b82811061079157505050565b806060602080938501015201610785565b80518210156107085760209160051b010190565b906000809160405193602082519201905afa3d6000833e6107d5573d90fd5b3d90f35b90918060409360208452816020850152848401376000828201840152601f01601f1916010190565b6040513d6000823e3d90fd5b9092600092819594604051968792833738935af11561083c573d82523d6000602084013e60203d830101604052565b503d6000823e3d90fd5b906000928491604051958692833738935af115913d82523d6000602084013e60203d83010160405256fea264697066735822122042127469ed004866f69964b580be8a26401cc53abfbe09fb91ca94ae6609030464736f6c63430008190033",
  "linkReferences": {},
  "deployedLinkReferences": {}
}