{
  "_format": "hh-sol-artifact-1",
  "contractName": "Bootstrap",
  "sourceName": "erc7579/utils/Bootstrap.sol",
  "abi": [
    {
      "inputs": [],
      "name": "AccountAccessUnauthorized",
      "type": "error"
    },
    {
      "inputs": [],
      "name": "CannotRemoveLastValidator",
      "type": "error"
    },
    {
      "inputs": [
        {
          "internalType": "address",
          "name": "currentHook",
          "type": "address"
        }
      ],
      "name": "HookAlreadyInstalled",
      "type": "error"
    },
    {
      "inputs": [],
      "name": "HookPostCheckFailed",
      "type": "error"
    },
    {
      "inputs": [
        {
          "internalType": "address",
          "name": "module",
          "type": "address"
        }
      ],
      "name": "InvalidModule",
      "type": "error"
    },
    {
      "inputs": [
        {
          "internalType": "address",
          "name": "entry",
          "type": "address"
        }
      ],
      "name": "LinkedList_EntryAlreadyInList",
      "type": "error"
    },
    {
      "inputs": [
        {
          "internalType": "address",
          "name": "entry",
          "type": "address"
        }
      ],
      "name": "LinkedList_InvalidEntry",
      "type": "error"
    },
    {
      "inputs": [],
      "name": "LinkedList_InvalidPage",
      "type": "error"
    },
    {
      "inputs": [
        {
          "internalType": "bytes4",
          "name": "selector",
          "type": "bytes4"
        }
      ],
      "name": "NoFallbackHandler",
      "type": "error"
    },
    {
      "stateMutability": "payable",
      "type": "fallback"
    },
    {
      "inputs": [
        {
          "components": [
            {
              "internalType": "address",
              "name": "module",
              "type": "address"
            },
            {
              "internalType": "bytes",
              "name": "data",
              "type": "bytes"
            }
          ],
          "internalType": "struct BootstrapConfig[]",
          "name": "$valdiators",
          "type": "tuple[]"
        },
        {
          "components": [
            {
              "internalType": "address",
              "name": "module",
              "type": "address"
            },
            {
              "internalType": "bytes",
              "name": "data",
              "type": "bytes"
            }
          ],
          "internalType": "struct BootstrapConfig[]",
          "name": "$executors",
          "type": "tuple[]"
        },
        {
          "components": [
            {
              "internalType": "address",
              "name": "module",
              "type": "address"
            },
            {
              "internalType": "bytes",
              "name": "data",
              "type": "bytes"
            }
          ],
          "internalType": "struct BootstrapConfig",
          "name": "_hook",
          "type": "tuple"
        },
        {
          "components": [
            {
              "internalType": "address",
              "name": "module",
              "type": "address"
            },
            {
              "internalType": "bytes",
              "name": "data",
              "type": "bytes"
            }
          ],
          "internalType": "struct BootstrapConfig[]",
          "name": "_fallbacks",
          "type": "tuple[]"
        }
      ],
      "name": "_getInitMSACalldata",
      "outputs": [
        {
          "internalType": "bytes",
          "name": "init",
          "type": "bytes"
        }
      ],
      "stateMutability": "view",
      "type": "function"
    },
    {
      "inputs": [],
      "name": "entryPoint",
      "outputs": [
        {
          "internalType": "address",
          "name": "",
          "type": "address"
        }
      ],
      "stateMutability": "view",
      "type": "function"
    },
    {
      "inputs": [
        {
          "internalType": "bytes4",
          "name": "functionSig",
          "type": "bytes4"
        }
      ],
      "name": "getActiveFallbackHandler",
      "outputs": [
        {
          "components": [
            {
              "internalType": "address",
              "name": "handler",
              "type": "address"
            },
            {
              "internalType": "CallType",
              "name": "calltype",
              "type": "bytes1"
            }
          ],
          "internalType": "struct ModuleManager.FallbackHandler",
          "name": "",
          "type": "tuple"
        }
      ],
      "stateMutability": "view",
      "type": "function"
    },
    {
      "inputs": [],
      "name": "getActiveHook",
      "outputs": [
        {
          "internalType": "address",
          "name": "hook",
          "type": "address"
        }
      ],
      "stateMutability": "view",
      "type": "function"
    },
    {
      "inputs": [
        {
          "internalType": "address",
          "name": "cursor",
          "type": "address"
        },
        {
          "internalType": "uint256",
          "name": "size",
          "type": "uint256"
        }
      ],
      "name": "getExecutorsPaginated",
      "outputs": [
        {
          "internalType": "address[]",
          "name": "array",
          "type": "address[]"
        },
        {
          "internalType": "address",
          "name": "next",
          "type": "address"
        }
      ],
      "stateMutability": "view",
      "type": "function"
    },
    {
      "inputs": [
        {
          "internalType": "address",
          "name": "cursor",
          "type": "address"
        },
        {
          "internalType": "uint256",
          "name": "size",
          "type": "uint256"
        }
      ],
      "name": "getValidatorPaginated",
      "outputs": [
        {
          "internalType": "address[]",
          "name": "array",
          "type": "address[]"
        },
        {
          "internalType": "address",
          "name": "next",
          "type": "address"
        }
      ],
      "stateMutability": "view",
      "type": "function"
    },
    {
      "inputs": [
        {
          "components": [
            {
              "internalType": "address",
              "name": "module",
              "type": "address"
            },
            {
              "internalType": "bytes",
              "name": "data",
              "type": "bytes"
            }
          ],
          "internalType": "struct BootstrapConfig[]",
          "name": "$valdiators",
          "type": "tuple[]"
        },
        {
          "components": [
            {
              "internalType": "address",
              "name": "module",
              "type": "address"
            },
            {
              "internalType": "bytes",
              "name": "data",
              "type": "bytes"
            }
          ],
          "internalType": "struct BootstrapConfig[]",
          "name": "$executors",
          "type": "tuple[]"
        },
        {
          "components": [
            {
              "internalType": "address",
              "name": "module",
              "type": "address"
            },
            {
              "internalType": "bytes",
              "name": "data",
              "type": "bytes"
            }
          ],
          "internalType": "struct BootstrapConfig",
          "name": "_hook",
          "type": "tuple"
        },
        {
          "components": [
            {
              "internalType": "address",
              "name": "module",
              "type": "address"
            },
            {
              "internalType": "bytes",
              "name": "data",
              "type": "bytes"
            }
          ],
          "internalType": "struct BootstrapConfig[]",
          "name": "_fallbacks",
          "type": "tuple[]"
        }
      ],
      "name": "initMSA",
      "outputs": [],
      "stateMutability": "nonpayable",
      "type": "function"
    },
    {
      "inputs": [
        {
          "internalType": "contract IModule",
          "name": "validator",
          "type": "address"
        },
        {
          "internalType": "bytes",
          "name": "data",
          "type": "bytes"
        }
      ],
      "name": "singleInitMSA",
      "outputs": [],
      "stateMutability": "nonpayable",
      "type": "function"
    },
    {
      "stateMutability": "payable",
      "type": "receive"
    }
  ],
  "bytecode": "0x60808060405234601557611531908161001b8239f35b600080fdfe6080604052600436101561001e575b361561001c5761001c610b39565b005b6000803560e01c9081630a664dba146100a1575080635e87556d1461009c578063642219af146100975780636b0d5cc414610092578063855713681461008d578063b0d691fe14610088578063ea5f61d0146100835763eac9b20d0361000e5761087b565b610739565b61070e565b61051f565b61043b565b6102db565b610200565b346100e557806003193601126100e5576001600160a01b037f36e05829dd1b9a4411d96a3549582172d7f071c1c0db5c573fcf94eb28431608541660805260206080f35b80fd5b60009103126100f357565b600080fd5b9181601f840112156100f35782359167ffffffffffffffff83116100f3576020808501948460051b0101116100f357565b906003196080818401126100f35767ffffffffffffffff906004358281116100f35784610158916004016100f8565b949094936024358481116100f35782610173916004016100f8565b94909493604435908282116100f35760409082860301126100f357600401926064359182116100f3576101a8916004016100f8565b9091565b919082519283825260005b8481106101d8575050826000602080949584010152601f8019910116010190565b6020818301810151848301820152016101b7565b9060206101fd9281815201906101ac565b90565b346100f3576102d76102bf6102cb61027c61028c61029b61022036610129565b94979261026860409a9295979a519a8b9a7f642219af0000000000000000000000000000000000000000000000000000000060208d0152608060248d015260a48c01916109af565b9060231997888b84030160448c01526109af565b9085888303016064890152610953565b928584030160848601526109af565b03906102af601f1992838101835282610a6e565b6040519384913060208401610a90565b03908101835282610a6e565b604051918291826101ec565b0390f35b346100f3576102e936610129565b9490956000949392945b8281106103fc5750505060005b8181106103b35750505061032261031682610aed565b6001600160a01b031690565b61038c575b5060005b81811061033457005b8061034d6103166103486001948688610ac6565b610aed565b1561038757610381610363610348838688610ac6565b61037b610371848789610ac6565b6020810190610af7565b916111b6565b0161032b565b610381565b806103a761039c6103ad93610aed565b916020810190610af7565b91611045565b38610327565b806103c76103166103486001948688610ac6565b156103f7576103f16103dd610348838688610ac6565b6103eb610371848789610ac6565b91610ef8565b01610300565b6103f1565b806104246104106103486001948787610ac6565b61041e610371848888610ac6565b91610ce5565b016102f3565b6001600160a01b038116036100f357565b346100f35760403660031901126100f3576004356104588161042a565b6024359067ffffffffffffffff908183116100f357366023840112156100f35782600401359182116100f35736602483850101116100f3576001600160a01b03602461001c94019116610ce5565b60409060031901126100f3576004356104be8161042a565b9060243590565b909291926040820190604083528051809252606083019160208092019160005b82811061050257505050506001600160a01b036020919416910152565b83516001600160a01b0316855293810193928101926001016104e5565b346100f35761052d366104a6565b6001916000916001600160a01b0390818316851415806106f8575b6106d75780156106ad57806105aa61059d61056388946113d8565b96956001600160a01b03166000527ff88ce1fdb7fb1cbd3282e49729100fa3f2d6ee9f797961fe4fb1871cea89ea02602052604060002090565b546001600160a01b031690565b955b610608575b5050831660011415806105ff575b6105d5575b81526102d7604051928392836104c5565b91506105f96105ec6105e684611448565b8361140a565b516001600160a01b031690565b916105c4565b508015156105bf565b9092948281168481151591826106a2575b505080610699575b15610692579061068c61068661059d8461064e88966106408c8c61140a565b906001600160a01b03169052565b6001600160a01b03166000527ff88ce1fdb7fb1cbd3282e49729100fa3f2d6ee9f797961fe4fb1871cea89ea02602052604060002090565b96611434565b936105ac565b94926105b1565b50818610610621565b141590508438610619565b60046040517ff7250817000000000000000000000000000000000000000000000000000000008152fd5b604051637c84ecfb60e01b81526001600160a01b0384166004820152602490fd5b5061070961070584611457565b1590565b610548565b346100f35760003660031901126100f35760206040516f71727de22e5e9d8baf0edac6f37da0328152f35b346100f357610747366104a6565b6001916000916001600160a01b039081831685141580610869575b6106d75780156106ad57806107b761059d61077d88946113d8565b96956001600160a01b03166000527ff88ce1fdb7fb1cbd3282e49729100fa3f2d6ee9f797961fe4fb1871cea89ea03602052604060002090565b955b6107df575050831660011415806105ff576105d55781526102d7604051928392836104c5565b90929482811684811515918261085e575b505080610855575b15610692579061084f61068661059d8461081788966106408c8c61140a565b6001600160a01b03166000527ff88ce1fdb7fb1cbd3282e49729100fa3f2d6ee9f797961fe4fb1871cea89ea03602052604060002090565b936107b9565b508186106107f8565b1415905084386107f0565b50610876610705846114a9565b610762565b346100f35760203660031901126100f3576004356001600160e01b0319811681036100f3576108f36040916000602084516108b581610a39565b82815201526001600160e01b0319166000527ff88ce1fdb7fb1cbd3282e49729100fa3f2d6ee9f797961fe4fb1871cea89ea04602052604060002090565b602082519161090183610a39565b546001600160a01b038116928381526001600160f81b0319928391019160581b168152835192835251166020820152f35b908060209392818452848401376000828201840152601f01601f1916010190565b6001600160a01b0381356109668161042a565b1682526020810135601e19823603018112156100f357016020813591019067ffffffffffffffff81116100f35780360382136100f3576040838160206101fd9601520191610932565b9091809280825260208092019160208260051b8601019484600080925b8584106109de57505050505050505090565b9091929394959697601f198282030188528835603e1985360301811215610a1f5786610a0f60019387839401610953565b9a019801969594019291906109cc565b8380fd5b634e487b7160e01b600052604160045260246000fd5b6040810190811067ffffffffffffffff821117610a5557604052565b610a23565b67ffffffffffffffff8111610a5557604052565b90601f8019910116810190811067ffffffffffffffff821117610a5557604052565b6040906001600160a01b036101fd949316815281602082015201906101ac565b634e487b7160e01b600052603260045260246000fd5b9190811015610ae85760051b81013590603e19813603018212156100f3570190565b610ab0565b356101fd8161042a565b903590601e19813603018212156100f3570180359067ffffffffffffffff82116100f3576020019181360383136100f357565b60405190610b3782610a39565b565b600080358060e01c63bc197c81811463f23a6e6182141763150b7a02821417610cbf57506001600160e01b03191660008181527ff88ce1fdb7fb1cbd3282e49729100fa3f2d6ee9f797961fe4fb1871cea89ea046020526040902054906001600160f81b03196001600160a01b0383169260581b16908215610c8257507ffe000000000000000000000000000000000000000000000000000000000000008114610c3d5715610be6575050565b818091610bf93690604051918201604052565b36838237610c0d6040519060148201604052565b3360601b90528260143601925af1610c2b3d90604051918201604052565b913d90833e15610c39573d90f35b3d90fd5b50818091610c513690604051918201604052565b36838237610c656040519060148201604052565b3360601b905260143601915afa610c2b3d90604051918201604052565b6040517f48c9ceda0000000000000000000000000000000000000000000000000000000081526001600160e01b0319919091166004820152602490fd5b6020526020603cf35b9160206101fd938181520191610932565b6040513d6000823e3d90fd5b916001600160a01b0383169283158015610eee575b610ed657610d4061031661059d836001600160a01b03166000527ff88ce1fdb7fb1cbd3282e49729100fa3f2d6ee9f797961fe4fb1871cea89ea02602052604060002090565b610e9a5760016000527ff88ce1fdb7fb1cbd3282e49729100fa3f2d6ee9f797961fe4fb1871cea89ea02602052610e5090610e01610d9d7f643a0023cfcea778bfa72ce77c7e63d8b140a6542bf3f6edb59a96ccce28ad8661059d565b610dd9836001600160a01b03166000527ff88ce1fdb7fb1cbd3282e49729100fa3f2d6ee9f797961fe4fb1871cea89ea02602052604060002090565b906001600160a01b031673ffffffffffffffffffffffffffffffffffffffff19825416179055565b60016000527ff88ce1fdb7fb1cbd3282e49729100fa3f2d6ee9f797961fe4fb1871cea89ea026020527f643a0023cfcea778bfa72ce77c7e63d8b140a6542bf3f6edb59a96ccce28ad86610dd9565b823b156100f357610e7b92600092836040518096819582946306d61fe760e41b845260048401610cc8565b03925af18015610e9557610e8c5750565b610b3790610a5a565b610cd9565b6040517f40d3d1a40000000000000000000000000000000000000000000000000000000081526001600160a01b03919091166004820152602490fd5b60248460405190637c84ecfb60e01b82526004820152fd5b5060018414610cfa565b916001600160a01b038316928315801561103b575b610ed657610f5361031661059d836001600160a01b03166000527ff88ce1fdb7fb1cbd3282e49729100fa3f2d6ee9f797961fe4fb1871cea89ea03602052604060002090565b610e9a5760016000527ff88ce1fdb7fb1cbd3282e49729100fa3f2d6ee9f797961fe4fb1871cea89ea03602052610e5090610fec610fb07ff599f677901b372c86416e614fc87c5db3b6d91d0e22ab04aaaf537207065e9961059d565b610dd9836001600160a01b03166000527ff88ce1fdb7fb1cbd3282e49729100fa3f2d6ee9f797961fe4fb1871cea89ea03602052604060002090565b60016000527ff88ce1fdb7fb1cbd3282e49729100fa3f2d6ee9f797961fe4fb1871cea89ea036020527ff599f677901b372c86416e614fc87c5db3b6d91d0e22ab04aaaf537207065e99610dd9565b5060018414610f0d565b9190916001600160a01b03907f36e05829dd1b9a4411d96a3549582172d7f071c1c0db5c573fcf94eb2843160882815416806110d857508190551691823b156100f3576110b492600092836040518096819582946306d61fe760e41b8452602060048501526024840191610932565b03925af18015610e95576110c55750565b806110d2610b3792610a5a565b806100e8565b602490604051907f741cbe030000000000000000000000000000000000000000000000000000000082526004820152fd5b906004116100f35790600490565b90929192836005116100f35783116100f357600501916004190190565b6001600160e01b0319903581811693926004811061115157505050565b60040360031b82901b16169150565b9060041015610ae85760040190565b92919267ffffffffffffffff8211610a555760405191611199601f8201601f191660200184610a6e565b8294818452818301116100f3578281602093846000960137010152565b6112096112026111cf6111c98686611109565b90611134565b94806111fc6111ef6111e18389611160565b356001600160f81b03191690565b6001600160f81b03191690565b95611117565b369161116f565b926001600160a01b039283611251836001600160e01b0319166000527ff88ce1fdb7fb1cbd3282e49729100fa3f2d6ee9f797961fe4fb1871cea89ea04602052604060002090565b5416611361576112c061133492611287611269610b2a565b6001600160a01b0387168152936001600160f81b0319166020850152565b6001600160e01b0319166000527ff88ce1fdb7fb1cbd3282e49729100fa3f2d6ee9f797961fe4fb1871cea89ea04602052604060002090565b8151815473ffffffffffffffffffffffffffffffffffffffff19166001600160a01b039190911617815590602001517fffffffffffffffffffffff00ffffffffffffffffffffffffffffffffffffffff74ff000000000000000000000000000000000000000083549260581c169116179055565b16803b156100f3576110b46000929183926040519485809481936306d61fe760e41b8352600483016101ec565b6040517f08c379a000000000000000000000000000000000000000000000000000000000815260206004820152601e60248201527f46756e6374696f6e2073656c6563746f7220616c7265616479207573656400006044820152606490fd5b67ffffffffffffffff8111610a555760051b60200190565b906113e2826113c0565b6113ef6040519182610a6e565b8281528092611400601f19916113c0565b0190602036910137565b8051821015610ae85760209160051b010190565b634e487b7160e01b600052601160045260246000fd5b60001981146114435760010190565b61141e565b60001981019190821161144357565b6001600160a01b03809116908160011415918261147357505090565b9091506000527ff88ce1fdb7fb1cbd3282e49729100fa3f2d6ee9f797961fe4fb1871cea89ea0260205260406000205416151590565b6001600160a01b0380911690816001141591826114c557505090565b9091506000527ff88ce1fdb7fb1cbd3282e49729100fa3f2d6ee9f797961fe4fb1871cea89ea036020526040600020541615159056fea264697066735822122046d07d183ee27e54a62df4305f5164bb0c44557697534b351847e156ff6426f564736f6c63430008190033",
  "linkReferences": {},
  "deployedLinkReferences": {}
}