{
  "address": "0xBdE994684051A3caDa9b90Ede0b44A06A9FAC863",
  "abi": [
    {
      "inputs": [
        {
          "internalType": "address",
          "name": "smartAccount",
          "type": "address"
        }
      ],
      "name": "AlreadyInitialized",
      "type": "error"
    },
    {
      "inputs": [],
      "name": "ExecutionFailed",
      "type": "error"
    },
    {
      "inputs": [
        {
          "internalType": "address",
          "name": "smartAccount",
          "type": "address"
        }
      ],
      "name": "NotInitialized",
      "type": "error"
    },
    {
      "anonymous": false,
      "inputs": [
        {
          "indexed": true,
          "internalType": "address",
          "name": "sessionKey",
          "type": "address"
        },
        {
          "indexed": true,
          "internalType": "address",
          "name": "account",
          "type": "address"
        }
      ],
      "name": "SessionKeyAdded",
      "type": "event"
    },
    {
      "inputs": [
        {
          "internalType": "address",
          "name": "sessionKey",
          "type": "address"
        },
        {
          "components": [
            {
              "internalType": "address",
              "name": "token",
              "type": "address"
            },
            {
              "internalType": "address",
              "name": "targetToken",
              "type": "address"
            },
            {
              "internalType": "address",
              "name": "vault",
              "type": "address"
            },
            {
              "internalType": "address",
              "name": "account",
              "type": "address"
            },
            {
              "internalType": "uint48",
              "name": "validAfter",
              "type": "uint48"
            },
            {
              "internalType": "uint48",
              "name": "validUntil",
              "type": "uint48"
            },
            {
              "internalType": "uint256",
              "name": "limitAmount",
              "type": "uint256"
            },
            {
              "internalType": "uint256",
              "name": "limitUsed",
              "type": "uint256"
            },
            {
              "internalType": "uint48",
              "name": "lastUsed",
              "type": "uint48"
            },
            {
              "internalType": "uint48",
              "name": "refreshInterval",
              "type": "uint48"
            }
          ],
          "internalType": "struct AutoDCASessionModule.SessionData",
          "name": "sessionData",
          "type": "tuple"
        }
      ],
      "name": "addSessionKey",
      "outputs": [
        {
          "internalType": "uint256",
          "name": "",
          "type": "uint256"
        }
      ],
      "stateMutability": "nonpayable",
      "type": "function"
    },
    {
      "inputs": [
        {
          "internalType": "address",
          "name": "sessionKey",
          "type": "address"
        },
        {
          "internalType": "uint256",
          "name": "sessionId",
          "type": "uint256"
        },
        {
          "internalType": "address",
          "name": "to",
          "type": "address"
        },
        {
          "internalType": "uint256",
          "name": "value",
          "type": "uint256"
        },
        {
          "internalType": "bytes",
          "name": "data",
          "type": "bytes"
        }
      ],
      "name": "execute",
      "outputs": [
        {
          "internalType": "bytes",
          "name": "",
          "type": "bytes"
        }
      ],
      "stateMutability": "nonpayable",
      "type": "function"
    },
    {
      "inputs": [
        {
          "internalType": "address",
          "name": "sessionKey",
          "type": "address"
        }
      ],
      "name": "getSessionData",
      "outputs": [
        {
          "components": [
            {
              "internalType": "address",
              "name": "token",
              "type": "address"
            },
            {
              "internalType": "address",
              "name": "targetToken",
              "type": "address"
            },
            {
              "internalType": "address",
              "name": "vault",
              "type": "address"
            },
            {
              "internalType": "address",
              "name": "account",
              "type": "address"
            },
            {
              "internalType": "uint48",
              "name": "validAfter",
              "type": "uint48"
            },
            {
              "internalType": "uint48",
              "name": "validUntil",
              "type": "uint48"
            },
            {
              "internalType": "uint256",
              "name": "limitAmount",
              "type": "uint256"
            },
            {
              "internalType": "uint256",
              "name": "limitUsed",
              "type": "uint256"
            },
            {
              "internalType": "uint48",
              "name": "lastUsed",
              "type": "uint48"
            },
            {
              "internalType": "uint48",
              "name": "refreshInterval",
              "type": "uint48"
            }
          ],
          "internalType": "struct AutoDCASessionModule.SessionData[]",
          "name": "",
          "type": "tuple[]"
        }
      ],
      "stateMutability": "view",
      "type": "function"
    },
    {
      "inputs": [
        {
          "internalType": "address",
          "name": "smartAccount",
          "type": "address"
        }
      ],
      "name": "isInitialized",
      "outputs": [
        {
          "internalType": "bool",
          "name": "",
          "type": "bool"
        }
      ],
      "stateMutability": "view",
      "type": "function"
    },
    {
      "inputs": [
        {
          "internalType": "uint256",
          "name": "typeID",
          "type": "uint256"
        }
      ],
      "name": "isModuleType",
      "outputs": [
        {
          "internalType": "bool",
          "name": "",
          "type": "bool"
        }
      ],
      "stateMutability": "pure",
      "type": "function"
    },
    {
      "inputs": [
        {
          "internalType": "address",
          "name": "",
          "type": "address"
        },
        {
          "internalType": "bytes32",
          "name": "hash",
          "type": "bytes32"
        },
        {
          "internalType": "bytes",
          "name": "data",
          "type": "bytes"
        }
      ],
      "name": "isValidSignatureWithSender",
      "outputs": [
        {
          "internalType": "bytes4",
          "name": "",
          "type": "bytes4"
        }
      ],
      "stateMutability": "view",
      "type": "function"
    },
    {
      "inputs": [],
      "name": "name",
      "outputs": [
        {
          "internalType": "string",
          "name": "",
          "type": "string"
        }
      ],
      "stateMutability": "pure",
      "type": "function"
    },
    {
      "inputs": [
        {
          "internalType": "bytes",
          "name": "data",
          "type": "bytes"
        }
      ],
      "name": "onInstall",
      "outputs": [],
      "stateMutability": "nonpayable",
      "type": "function"
    },
    {
      "inputs": [
        {
          "internalType": "bytes",
          "name": "",
          "type": "bytes"
        }
      ],
      "name": "onUninstall",
      "outputs": [],
      "stateMutability": "nonpayable",
      "type": "function"
    },
    {
      "inputs": [
        {
          "internalType": "address",
          "name": "",
          "type": "address"
        },
        {
          "internalType": "uint256",
          "name": "",
          "type": "uint256"
        }
      ],
      "name": "sessionKeyData",
      "outputs": [
        {
          "internalType": "address",
          "name": "token",
          "type": "address"
        },
        {
          "internalType": "address",
          "name": "targetToken",
          "type": "address"
        },
        {
          "internalType": "address",
          "name": "vault",
          "type": "address"
        },
        {
          "internalType": "address",
          "name": "account",
          "type": "address"
        },
        {
          "internalType": "uint48",
          "name": "validAfter",
          "type": "uint48"
        },
        {
          "internalType": "uint48",
          "name": "validUntil",
          "type": "uint48"
        },
        {
          "internalType": "uint256",
          "name": "limitAmount",
          "type": "uint256"
        },
        {
          "internalType": "uint256",
          "name": "limitUsed",
          "type": "uint256"
        },
        {
          "internalType": "uint48",
          "name": "lastUsed",
          "type": "uint48"
        },
        {
          "internalType": "uint48",
          "name": "refreshInterval",
          "type": "uint48"
        }
      ],
      "stateMutability": "view",
      "type": "function"
    },
    {
      "inputs": [
        {
          "internalType": "address",
          "name": "",
          "type": "address"
        },
        {
          "internalType": "uint256",
          "name": "",
          "type": "uint256"
        }
      ],
      "name": "sessionKeyList",
      "outputs": [
        {
          "internalType": "address",
          "name": "",
          "type": "address"
        }
      ],
      "stateMutability": "view",
      "type": "function"
    },
    {
      "inputs": [
        {
          "components": [
            {
              "internalType": "address",
              "name": "sender",
              "type": "address"
            },
            {
              "internalType": "uint256",
              "name": "nonce",
              "type": "uint256"
            },
            {
              "internalType": "bytes",
              "name": "initCode",
              "type": "bytes"
            },
            {
              "internalType": "bytes",
              "name": "callData",
              "type": "bytes"
            },
            {
              "internalType": "bytes32",
              "name": "accountGasLimits",
              "type": "bytes32"
            },
            {
              "internalType": "uint256",
              "name": "preVerificationGas",
              "type": "uint256"
            },
            {
              "internalType": "bytes32",
              "name": "gasFees",
              "type": "bytes32"
            },
            {
              "internalType": "bytes",
              "name": "paymasterAndData",
              "type": "bytes"
            },
            {
              "internalType": "bytes",
              "name": "signature",
              "type": "bytes"
            }
          ],
          "internalType": "struct PackedUserOperation",
          "name": "userOp",
          "type": "tuple"
        },
        {
          "internalType": "bytes32",
          "name": "userOpHash",
          "type": "bytes32"
        }
      ],
      "name": "validateUserOp",
      "outputs": [
        {
          "internalType": "ERC7579ValidatorBase.ValidationData",
          "name": "",
          "type": "uint256"
        }
      ],
      "stateMutability": "view",
      "type": "function"
    },
    {
      "inputs": [],
      "name": "version",
      "outputs": [
        {
          "internalType": "string",
          "name": "",
          "type": "string"
        }
      ],
      "stateMutability": "pure",
      "type": "function"
    }
  ],
  "transactionHash": "0x11211e4951e137d490f5eaae32e56833497a2800a18a3b5ca2d63808f6986a90",
  "args": [],
  "numDeployments": 6,
  "solcInputHash": "37354953922cdbb14f5ee16f9bd54d4d",
  "bytecode": "0x60808060405234601557611632908161001b8239f35b600080fdfe6080806040526004908136101561001557600080fd5b60003560e01c90816306fdde0314610d6a575080632b20be6614610ca15780634fe05a511461090157806354fd4d501461089f57806358799d6f146105c65780636d61fe70146105c15780638a91b0e3146105c15780639700320314610368578063c7305b1714610314578063ced2023214610158578063d60b347f14610133578063ecd05961146100fb5763f551e2ee146100b057600080fd5b346100f65760603660031901126100f6576100c9610e0e565b506044359067ffffffffffffffff82116100f6576100e991369101610e6c565b5050602060405160008152f35b600080fd5b50346100f65760203660031901126100f6576020903560018114908115610128575b506040519015158152f35b60029150143861011d565b346100f65760203660031901126100f65761014c610e0e565b50602060405160008152f35b50346100f6576020806003193601126100f6576001600160a01b038061017c610e0e565b1660005260019060018352604060002093845461019881610ff6565b916101a66040519384610f21565b81835260009687528587208684019791885b8484106102785750505050506040519380850191818652518092526040850195926000905b8382106101ea5786880387f35b8451805182168952838101518216848a01526040808201518316908a01526060808201518316908a015260808082015165ffffffffffff908116918b019190915260a0808301518216908b015260c080830151908b015260e080830151908b0152610100808301518216908b01526101209182015116908901526101409097019693820193908501906101dd565b96600789829b9960409b98999b5161028f81610ecc565b8c87541681528c8588015416838201528c600288015416604082015260038701548d8116606083015265ffffffffffff9060a0908281831c16608085015260d01c908301528688015460c0830152600588015460e0830152600688015481811661010084015260301c16610120820152815201930193019291989698979594976101b8565b346100f65760403660031901126100f65761032d610e0e565b602435906001600160a01b03809116600052600060205260406000209182548110156100f65760209260005282600020015416604051908152f35b50346100f6576003196040368201126100f657813567ffffffffffffffff81116100f6576101208184019282360301126100f6576024906103ac6064820184611067565b939094846064116100f6576063198501806014116100f6576034116100f65760971985016010116100f65760a86104449601356bffffffffffffffffffffffff199081811696601460a7198201106105a9575b505050606094851c8061044b602098899560243587527b19457468657265756d205369676e6564204d6573736167653a0a3332600052610104603c8720980190611067565b3691610f92565b9560009785880192610488575b5050505050505050156000146104815760015b65ffffffffffff60a01b60ff6040519216178152f35b600061046b565b909192939495969750604051928760005251604052604088511461055b575b6041885114610511575b60009052816040527f1626ba7e000000000000000000000000000000000000000000000000000000009586835284830152810195869360408552815186019081604493848601925afa503d01915afa915114163880838180808080610458565b8088015160001a8652604088015181526001868160806000825afa5185183d15171561053d57506104b1565b94509650509350506000915092526040523880838180808080610458565b7f7fffffffffffffffffffffffffffffffffffffffffffffffffffffffffffffff6040890151601b8160ff1c0188521681526001868160806000825afa5185183d15171561053d57506104a7565b60140360a80160031b82901b161694503880806103ff565b610f43565b50346100f6576101603660031901126100f6576105e1610e0e565b6101403660231901126100f6576040516105fa81610ecc565b6024356001600160a01b03811681036100f6578152610617610e24565b60208201526064356001600160a01b03811681036100f65760408201526084356001600160a01b038116036100f65760a43565ffffffffffff811681036100f657608082015260c43565ffffffffffff811681036100f65760a082015260e43560c08201526101043560e08201526101243565ffffffffffff811681036100f6576101008201526101443565ffffffffffff811681036100f6576101208201523360608201526001600160a01b038216600052600160205260406000208054906801000000000000000082101561088a57906106f891600182018155610e3a565b610876576006906001600160a01b038351167fffffffffffffffffffffffff00000000000000000000000000000000000000009081835416178255600182016001600160a01b036020860151168282541617905560028201906001600160a01b03604086015116908254161790556001600160a01b0360608401511665ffffffffffff60a01b608085015160a01b167fffffffffffff000000000000000000000000000000000000000000000000000060a086015160d01b16911717600382015560c08301518582015560e08301516005820155019065ffffffffffff610100820151166bffffffffffff000000000000610120845493015160301b16916bffffffffffffffffffffffff1916171790556001600160a01b0360405191338282167f18181a00afae36a38027e087bdecba0ee3dd48839669ffb2b1484450c703267b600080a3166000526001602052604060002054600019810190811161086157602092508152f35b601183634e487b7160e01b6000525260246000fd5b600084634e487b7160e01b82525260246000fd5b604185634e487b7160e01b6000525260246000fd5b346100f65760003660031901126100f6576108fd6040516108bf81610ee9565b600581527f302e302e310000000000000000000000000000000000000000000000000000006020820152604051918291602083526020830190610de9565b0390f35b50346100f65760a03660031901126100f65761091b610e0e565b9060243590610928610e24565b9167ffffffffffffffff906064356084358381116100f65761094d9036908601610e6c565b909180159687600014610c9857965b15610c8f575061097691610971913691610f92565b61109a565b945b610984858383896110b0565b15610c6657906001600160a01b036109a9921660005260016020526040600020610e3a565b50936001600160a01b036003860154166001600160a01b03600187015416936109d14661128a565b946109da61102f565b966109f9856001600160a01b038951166001600160a01b0384166111ca565b610a028a610fc9565b52610a0c89610fd9565b5262ffffff60206001600160a01b038951169801511692610a2b61100e565b5060405196876101008101109061010089011117610c515750918593916001600160a01b03610b59989694610100610b5e9b9901604052168552602085015260408401526060830152608082019042825260a0830190815260c08301906000825260e0840192600084526001600160a01b036060604051967f414bf38900000000000000000000000000000000000000000000000000000000602089015282815116602489015282602082015116604489015262ffffff604082015116606489015201511660848601525160a48501525160c48401525160e4830152516001600160a01b036101049116818301528152610b2481610ecc565b60405191610b3183610e9a565b8252600060208301526040820152610b4882610fe6565b52610b5281610fe6565b503361137f565b610fe6565b51906020828051810103126100f6576020610c0492015190610b7e61102f565b916001600160a01b0360038160018501541693610ba3848460028401541680976111ca565b610bac88610fc9565b52610bb687610fd9565b52015416610bc261100e565b50604051917f6e553f650000000000000000000000000000000000000000000000000000000060208401526024830152604482015260448152610b2481610f05565b50604051602081526060518060208301528160005b828110610c3a57508160006040809484010152601f80199101168101030190f35b608081015184820160400152839150602001610c19565b604190634e487b7160e01b6000525260246000fd5b836040517facfdb444000000000000000000000000000000000000000000000000000000008152fd5b91505094610978565b5060009661095c565b50346100f65760403660031901126100f657610cbb610e0e565b602435916001600160a01b038092166000526001602052604060002080548410156100f65761014093610ced91610e3a565b509180835416928160018201541691806002830154169060038301549065ffffffffffff958401549260066005860154950154956040519889526020890152604088015281166060870152848160a01c16608087015260d01c60a086015260c085015260e084015281811661010084015260301c16610120820152f35b346100f65760003660031901126100f65780610d886108fd92610ee9565b601481527f4175746f44434153657373696f6e4d6f64756c650000000000000000000000006020820152604051918291602083526020830190610de9565b60005b838110610dd95750506000910152565b8181015183820152602001610dc9565b90602091610e0281518092818552858086019101610dc6565b601f01601f1916010190565b600435906001600160a01b03821682036100f657565b604435906001600160a01b03821682036100f657565b8054821015610e56576000526007602060002091020190600090565b634e487b7160e01b600052603260045260246000fd5b9181601f840112156100f65782359167ffffffffffffffff83116100f657602083818601950101116100f657565b6060810190811067ffffffffffffffff821117610eb657604052565b634e487b7160e01b600052604160045260246000fd5b610140810190811067ffffffffffffffff821117610eb657604052565b6040810190811067ffffffffffffffff821117610eb657604052565b6080810190811067ffffffffffffffff821117610eb657604052565b90601f8019910116810190811067ffffffffffffffff821117610eb657604052565b346100f65760203660031901126100f65760043567ffffffffffffffff81116100f657610f74903690600401610e6c565b005b67ffffffffffffffff8111610eb657601f01601f191660200190565b929192610f9e82610f76565b91610fac6040519384610f21565b8294818452818301116100f6578281602093846000960137010152565b805160011015610e565760400190565b805115610e565760200190565b805160021015610e565760600190565b67ffffffffffffffff8111610eb65760051b60200190565b6040519061101b82610e9a565b606060408360008152600060208201520152565b6040519061103c82610f05565b600382528160005b60608110611050575050565b60209061105b61100e565b82828501015201611044565b903590601e19813603018212156100f6570180359067ffffffffffffffff82116100f6576020019181360383136100f657565b60448151106110aa576044015190565b50600090565b926110d26001600160a01b039384600094168452600160205260408420610e3a565b509280845416911603611148576006820180549265ffffffffffff91828560301c1694600483015493600584019660038854950154828160a01c1642109081156111bd575b506111b1578015908115611185575b501561115857505050840193841090811561114e575b50611148575055600190565b91505090565b905083113861113c565b9491968094919693501161117c57505542169065ffffffffffff1916179055600190565b94505050505090565b90508183160181811161119d57814291161138611126565b602487634e487b7160e01b81526011600452fd5b50505050505091505090565b905060d01c421138611117565b9291906111d561100e565b506111de61100e565b506001600160a01b03809416916040908151957f095ea7b300000000000000000000000000000000000000000000000000000000938460208901521695866024820152600060448201526044815261123581610f05565b82519061124182610e9a565b8582526000602083015283820152958251936020850152602484015260448301526044825261126f82610f05565b80519261127b84610e9a565b83526000602084015282015290565b6000602060405161129a81610ee9565b8281520152600181036112d657506040516112b481610ee9565b73e592427a0aece92de3edee1f18e0157c058615648152610bb8602082015290565b608981036112eb57506040516112b481610ee9565b61a4b103611321576040516112ff81610ee9565b73e592427a0aece92de3edee1f18e0157c0586156481526101f4602082015290565b60646040517f08c379a000000000000000000000000000000000000000000000000000000000815260206004820152601360248201527f556e737570706f72746564206e6574776f726b000000000000000000000000006044820152fd5b91909160409081516020918282017f0100000000000000000000000000000000000000000000000000000000000000815260009283602182015283602282015283602682015283602a8201528481526113d781610ee9565b519051908481106115eb575b506001600160a01b0385519786890186808b0152815180915260609060608b01918860608d8460051b010194019288915b8383106115a2575050505050918480949261143e8b61147e9a9b9c9603601f198101875286610f21565b89518099819682957fd691c96400000000000000000000000000000000000000000000000000000000845260048401528c60248401526044830190610de9565b0393165af1938415611598578194611498575b5050505090565b90919293503d8083863e6114ac8186610f21565b8401838582031261159457845167ffffffffffffffff9586821161159057019281601f8501121561158d578351926114e384610ff6565b966114f082519889610f21565b848852868089019560051b8701019584871161158957878101955b8787106115245750505050505050505038808080611491565b865183811161158557820186603f82011215611585578981015161154781610f76565b9161155487519384610f21565b8183528887838301011161158157916115768c94928594898685019101610dc6565b81520196019561150b565b8780fd5b8580fd5b8380fd5b80fd5b8480fd5b8280fd5b51903d90823e3d90fd5b90919293948a808f8e8560019581838e8e6115dc97605f19908603018d525190815116845287810151888501520151938201520190610de9565b97019301930191939290611414565b60001990850360031b1b16386113e356fea2646970667358221220945e30d3d9102d6dca25bfb255e19bf28568de9f0ef3a06cb41d1cab25810b1464736f6c63430008190033",
  "devdoc": {
    "kind": "dev",
    "methods": {
      "addSessionKey(address,(address,address,address,address,uint48,uint48,uint256,uint256,uint48,uint48))": {
        "details": "Adds a session key to the mapping."
      },
      "execute(address,uint256,address,uint256,bytes)": {
        "details": "Executes a transaction on behalf of a session.",
        "params": {
          "data": "The data to include with the transaction.",
          "sessionKey": "The session key associated with the transaction.",
          "to": "The address to which the transaction is being sent.",
          "value": "The amount of ether to send with the transaction."
        },
        "returns": {
          "_0": "The result of the transaction execution."
        }
      },
      "isInitialized(address)": {
        "details": "Returns if the module was already initialized for a provided smartaccount"
      },
      "onInstall(bytes)": {
        "details": "This function is called by the smart account during installation of the module",
        "params": {
          "data": "arbitrary data that may be required on the module during `onInstall` initialization MUST revert on error (i.e. if module is already enabled)"
        }
      }
    },
    "version": 1
  },
  "userdoc": {
    "kind": "user",
    "methods": {},
    "version": 1
  },
  "storageLayout": {
    "storage": [
      {
        "astId": 619,
        "contract": "contracts/AutoDCA/AutoDCASessionModule.sol:AutoDCASessionModule",
        "label": "sessionKeyList",
        "offset": 0,
        "slot": "0",
        "type": "t_mapping(t_address,t_array(t_address)dyn_storage)"
      },
      {
        "astId": 625,
        "contract": "contracts/AutoDCA/AutoDCASessionModule.sol:AutoDCASessionModule",
        "label": "sessionKeyData",
        "offset": 0,
        "slot": "1",
        "type": "t_mapping(t_address,t_array(t_struct(SessionData)646_storage)dyn_storage)"
      }
    ],
    "types": {
      "t_address": {
        "encoding": "inplace",
        "label": "address",
        "numberOfBytes": "20"
      },
      "t_array(t_address)dyn_storage": {
        "base": "t_address",
        "encoding": "dynamic_array",
        "label": "address[]",
        "numberOfBytes": "32"
      },
      "t_array(t_struct(SessionData)646_storage)dyn_storage": {
        "base": "t_struct(SessionData)646_storage",
        "encoding": "dynamic_array",
        "label": "struct AutoDCASessionModule.SessionData[]",
        "numberOfBytes": "32"
      },
      "t_mapping(t_address,t_array(t_address)dyn_storage)": {
        "encoding": "mapping",
        "key": "t_address",
        "label": "mapping(address => address[])",
        "numberOfBytes": "32",
        "value": "t_array(t_address)dyn_storage"
      },
      "t_mapping(t_address,t_array(t_struct(SessionData)646_storage)dyn_storage)": {
        "encoding": "mapping",
        "key": "t_address",
        "label": "mapping(address => struct AutoDCASessionModule.SessionData[])",
        "numberOfBytes": "32",
        "value": "t_array(t_struct(SessionData)646_storage)dyn_storage"
      },
      "t_struct(SessionData)646_storage": {
        "encoding": "inplace",
        "label": "struct AutoDCASessionModule.SessionData",
        "members": [
          {
            "astId": 627,
            "contract": "contracts/AutoDCA/AutoDCASessionModule.sol:AutoDCASessionModule",
            "label": "token",
            "offset": 0,
            "slot": "0",
            "type": "t_address"
          },
          {
            "astId": 629,
            "contract": "contracts/AutoDCA/AutoDCASessionModule.sol:AutoDCASessionModule",
            "label": "targetToken",
            "offset": 0,
            "slot": "1",
            "type": "t_address"
          },
          {
            "astId": 631,
            "contract": "contracts/AutoDCA/AutoDCASessionModule.sol:AutoDCASessionModule",
            "label": "vault",
            "offset": 0,
            "slot": "2",
            "type": "t_address"
          },
          {
            "astId": 633,
            "contract": "contracts/AutoDCA/AutoDCASessionModule.sol:AutoDCASessionModule",
            "label": "account",
            "offset": 0,
            "slot": "3",
            "type": "t_address"
          },
          {
            "astId": 635,
            "contract": "contracts/AutoDCA/AutoDCASessionModule.sol:AutoDCASessionModule",
            "label": "validAfter",
            "offset": 20,
            "slot": "3",
            "type": "t_uint48"
          },
          {
            "astId": 637,
            "contract": "contracts/AutoDCA/AutoDCASessionModule.sol:AutoDCASessionModule",
            "label": "validUntil",
            "offset": 26,
            "slot": "3",
            "type": "t_uint48"
          },
          {
            "astId": 639,
            "contract": "contracts/AutoDCA/AutoDCASessionModule.sol:AutoDCASessionModule",
            "label": "limitAmount",
            "offset": 0,
            "slot": "4",
            "type": "t_uint256"
          },
          {
            "astId": 641,
            "contract": "contracts/AutoDCA/AutoDCASessionModule.sol:AutoDCASessionModule",
            "label": "limitUsed",
            "offset": 0,
            "slot": "5",
            "type": "t_uint256"
          },
          {
            "astId": 643,
            "contract": "contracts/AutoDCA/AutoDCASessionModule.sol:AutoDCASessionModule",
            "label": "lastUsed",
            "offset": 0,
            "slot": "6",
            "type": "t_uint48"
          },
          {
            "astId": 645,
            "contract": "contracts/AutoDCA/AutoDCASessionModule.sol:AutoDCASessionModule",
            "label": "refreshInterval",
            "offset": 6,
            "slot": "6",
            "type": "t_uint48"
          }
        ],
        "numberOfBytes": "224"
      },
      "t_uint256": {
        "encoding": "inplace",
        "label": "uint256",
        "numberOfBytes": "32"
      },
      "t_uint48": {
        "encoding": "inplace",
        "label": "uint48",
        "numberOfBytes": "6"
      }
    }
  }
}