{
  "_format": "hh-sol-artifact-1",
  "contractName": "TestSingletonSignerFactory",
  "sourceName": "contracts/test/TestSingletonSigner.sol",
  "abi": [
    {
      "inputs": [],
      "name": "SIGNER_CODE_HASH",
      "outputs": [
        {
          "internalType": "bytes32",
          "name": "",
          "type": "bytes32"
        }
      ],
      "stateMutability": "view",
      "type": "function"
    },
    {
      "inputs": [
        {
          "internalType": "uint256",
          "name": "index",
          "type": "uint256"
        }
      ],
      "name": "deploySigner",
      "outputs": [],
      "stateMutability": "nonpayable",
      "type": "function"
    },
    {
      "inputs": [
        {
          "internalType": "uint256",
          "name": "index",
          "type": "uint256"
        }
      ],
      "name": "getSigner",
      "outputs": [
        {
          "internalType": "address",
          "name": "",
          "type": "address"
        }
      ],
      "stateMutability": "view",
      "type": "function"
    }
  ],
  "bytecode": "0x608080604052346015576104aa908161001b8239f35b600080fdfe6080604052600436101561001257600080fd5b6000803560e01c80633ffefe4e146100f5578063cc660c2b146100d25763ff7a787d1461003e57600080fd5b346100b05760203660031901126100b05760043560405161026f8082019082821067ffffffffffffffff8311176100be5791809184936102068339039084f59081156100b3576100a59073ffffffffffffffffffffffffffffffffffffffff918291610181565b169116036100b05780f35b80fd5b6040513d84823e3d90fd5b602485634e487b7160e01b81526041600452fd5b50346100b057806003193601126100b05760206100ed610132565b604051908152f35b50346100b05760203660031901126100b0576020610114600435610181565b73ffffffffffffffffffffffffffffffffffffffff60405191168152f35b61026f604051601f19603f830116810181811067ffffffffffffffff82111761016b576040528181526020810191610206833951902090565b634e487b7160e01b600052604160045260246000fd5b610189610132565b906040519160208301917fff0000000000000000000000000000000000000000000000000000000000000083523060601b60218501526035840152605583015260558252608082019180831067ffffffffffffffff84111761016b5773ffffffffffffffffffffffffffffffffffffffff92604052519020169056fe60808060405234601557610254908161001b8239f35b600080fdfe6040608081526004908136101561001557600080fd5b600091823560e01c806320c13b0b146100b8578063670d14b21461006a5763d65287761461004257600080fd5b34610066576020366003190112610066576001903384528360205235918320015580f35b8280fd5b5034610066576020366003190112610066573573ffffffffffffffffffffffffffffffffffffffff811680910361006657918192815280602052206001815491015482519182526020820152f35b50903461006657806003193601126100665767ffffffffffffffff8235818111610183576100e99036908501610187565b926024359182116101835761010091369101610187565b83926020815191012090602081805181010312610183579360018360208097015192338152808852200154181461015b575b7fffffffff00000000000000000000000000000000000000000000000000000000905191168152f35b7f20c13b0b000000000000000000000000000000000000000000000000000000009150610132565b8480fd5b81601f820112156101ea5780359067ffffffffffffffff928383116101ef5760405193601f8401601f19908116603f01168501908111858210176101ef57604052828452602083830101116101ea57816000926020809301838601378301015290565b600080fd5b7f4e487b7100000000000000000000000000000000000000000000000000000000600052604160045260246000fdfea26469706673582212206c9ad1f915a872e5a552609d4db805bd29c21888c2146a7068273ca19d5bd5ff64736f6c63430008190033a2646970667358221220843486765bd744b7c3c843bceb57a3f363652061b5c2c3341ea15f9dd0dc586664736f6c63430008190033",
  "linkReferences": {},
  "deployedLinkReferences": {}
}