{
  "_format": "hh-sol-artifact-1",
  "contractName": "TestSingletonSigner",
  "sourceName": "contracts/test/TestSingletonSigner.sol",
  "abi": [
    {
      "inputs": [
        {
          "internalType": "bytes",
          "name": "data",
          "type": "bytes"
        },
        {
          "internalType": "bytes",
          "name": "signatureData",
          "type": "bytes"
        }
      ],
      "name": "isValidSignature",
      "outputs": [
        {
          "internalType": "bytes4",
          "name": "magicValue",
          "type": "bytes4"
        }
      ],
      "stateMutability": "view",
      "type": "function"
    },
    {
      "inputs": [
        {
          "internalType": "address",
          "name": "",
          "type": "address"
        }
      ],
      "name": "keys",
      "outputs": [
        {
          "internalType": "uint256",
          "name": "_dummy",
          "type": "uint256"
        },
        {
          "internalType": "uint256",
          "name": "value",
          "type": "uint256"
        }
      ],
      "stateMutability": "view",
      "type": "function"
    },
    {
      "inputs": [
        {
          "internalType": "uint256",
          "name": "key",
          "type": "uint256"
        }
      ],
      "name": "setKey",
      "outputs": [],
      "stateMutability": "nonpayable",
      "type": "function"
    }
  ],
  "bytecode": "0x60808060405234601557610254908161001b8239f35b600080fdfe6040608081526004908136101561001557600080fd5b600091823560e01c806320c13b0b146100b8578063670d14b21461006a5763d65287761461004257600080fd5b34610066576020366003190112610066576001903384528360205235918320015580f35b8280fd5b5034610066576020366003190112610066573573ffffffffffffffffffffffffffffffffffffffff811680910361006657918192815280602052206001815491015482519182526020820152f35b50903461006657806003193601126100665767ffffffffffffffff8235818111610183576100e99036908501610187565b926024359182116101835761010091369101610187565b83926020815191012090602081805181010312610183579360018360208097015192338152808852200154181461015b575b7fffffffff00000000000000000000000000000000000000000000000000000000905191168152f35b7f20c13b0b000000000000000000000000000000000000000000000000000000009150610132565b8480fd5b81601f820112156101ea5780359067ffffffffffffffff928383116101ef5760405193601f8401601f19908116603f01168501908111858210176101ef57604052828452602083830101116101ea57816000926020809301838601378301015290565b600080fd5b7f4e487b7100000000000000000000000000000000000000000000000000000000600052604160045260246000fdfea26469706673582212206c9ad1f915a872e5a552609d4db805bd29c21888c2146a7068273ca19d5bd5ff64736f6c63430008190033",
  "linkReferences": {},
  "deployedLinkReferences": {}
}