{
  "address": "0xBFA149449A48E974E429fc27272b8EE8Cab4014F",
  "abi": [
    {
      "inputs": [],
      "name": "AccountAccessUnauthorized",
      "type": "error"
    },
    {
      "inputs": [],
      "name": "AccountInitializationFailed",
      "type": "error"
    },
    {
      "inputs": [],
      "name": "ExecutionFailed",
      "type": "error"
    },
    {
      "inputs": [
        {
          "internalType": "bytes4",
          "name": "msgSig",
          "type": "bytes4"
        }
      ],
      "name": "FallbackInstalled",
      "type": "error"
    },
    {
      "inputs": [
        {
          "internalType": "address",
          "name": "currentHook",
          "type": "address"
        }
      ],
      "name": "HookAlreadyInstalled",
      "type": "error"
    },
    {
      "inputs": [],
      "name": "HookPostCheckFailed",
      "type": "error"
    },
    {
      "inputs": [],
      "name": "InitializerError",
      "type": "error"
    },
    {
      "inputs": [
        {
          "internalType": "bytes4",
          "name": "msgSig",
          "type": "bytes4"
        }
      ],
      "name": "InvalidFallbackHandler",
      "type": "error"
    },
    {
      "inputs": [],
      "name": "InvalidHookType",
      "type": "error"
    },
    {
      "inputs": [
        {
          "internalType": "address",
          "name": "safe",
          "type": "address"
        }
      ],
      "name": "InvalidInitData",
      "type": "error"
    },
    {
      "inputs": [],
      "name": "InvalidInput",
      "type": "error"
    },
    {
      "inputs": [
        {
          "internalType": "address",
          "name": "module",
          "type": "address"
        }
      ],
      "name": "InvalidModule",
      "type": "error"
    },
    {
      "inputs": [],
      "name": "LinkedListError",
      "type": "error"
    },
    {
      "inputs": [],
      "name": "LinkedList_AlreadyInitialized",
      "type": "error"
    },
    {
      "inputs": [],
      "name": "LinkedList_AlreadyInitialized",
      "type": "error"
    },
    {
      "inputs": [
        {
          "internalType": "address",
          "name": "entry",
          "type": "address"
        }
      ],
      "name": "LinkedList_EntryAlreadyInList",
      "type": "error"
    },
    {
      "inputs": [
        {
          "internalType": "address",
          "name": "entry",
          "type": "address"
        }
      ],
      "name": "LinkedList_EntryAlreadyInList",
      "type": "error"
    },
    {
      "inputs": [
        {
          "internalType": "address",
          "name": "entry",
          "type": "address"
        }
      ],
      "name": "LinkedList_InvalidEntry",
      "type": "error"
    },
    {
      "inputs": [
        {
          "internalType": "address",
          "name": "entry",
          "type": "address"
        }
      ],
      "name": "LinkedList_InvalidEntry",
      "type": "error"
    },
    {
      "inputs": [],
      "name": "LinkedList_InvalidPage",
      "type": "error"
    },
    {
      "inputs": [],
      "name": "LinkedList_InvalidPage",
      "type": "error"
    },
    {
      "inputs": [
        {
          "internalType": "bytes4",
          "name": "msgSig",
          "type": "bytes4"
        }
      ],
      "name": "NoFallbackHandler",
      "type": "error"
    },
    {
      "inputs": [
        {
          "internalType": "CallType",
          "name": "callType",
          "type": "bytes1"
        }
      ],
      "name": "UnsupportedCallType",
      "type": "error"
    },
    {
      "inputs": [
        {
          "internalType": "ExecType",
          "name": "execType",
          "type": "bytes1"
        }
      ],
      "name": "UnsupportedExecType",
      "type": "error"
    },
    {
      "inputs": [
        {
          "internalType": "uint256",
          "name": "moduleTypeId",
          "type": "uint256"
        }
      ],
      "name": "UnsupportedModuleType",
      "type": "error"
    },
    {
      "inputs": [],
      "name": "ValidatorStorageHelperError",
      "type": "error"
    },
    {
      "anonymous": false,
      "inputs": [
        {
          "indexed": true,
          "internalType": "address",
          "name": "smartAccount",
          "type": "address"
        },
        {
          "indexed": true,
          "internalType": "contract IERC7484",
          "name": "registry",
          "type": "address"
        }
      ],
      "name": "ERC7484RegistryConfigured",
      "type": "event"
    },
    {
      "anonymous": false,
      "inputs": [
        {
          "indexed": false,
          "internalType": "uint256",
          "name": "moduleTypeId",
          "type": "uint256"
        },
        {
          "indexed": false,
          "internalType": "address",
          "name": "module",
          "type": "address"
        }
      ],
      "name": "ModuleInstalled",
      "type": "event"
    },
    {
      "anonymous": false,
      "inputs": [
        {
          "indexed": false,
          "internalType": "uint256",
          "name": "moduleTypeId",
          "type": "uint256"
        },
        {
          "indexed": false,
          "internalType": "address",
          "name": "module",
          "type": "address"
        }
      ],
      "name": "ModuleUninstalled",
      "type": "event"
    },
    {
      "anonymous": false,
      "inputs": [
        {
          "indexed": true,
          "internalType": "address",
          "name": "safe",
          "type": "address"
        }
      ],
      "name": "Safe7579Initialized",
      "type": "event"
    },
    {
      "anonymous": false,
      "inputs": [
        {
          "indexed": false,
          "internalType": "contract ISafe",
          "name": "safe",
          "type": "address"
        },
        {
          "indexed": false,
          "internalType": "uint256",
          "name": "numberInBatch",
          "type": "uint256"
        }
      ],
      "name": "TryExecutionFailed",
      "type": "event"
    },
    {
      "anonymous": false,
      "inputs": [
        {
          "indexed": false,
          "internalType": "contract ISafe",
          "name": "safe",
          "type": "address"
        },
        {
          "indexed": false,
          "internalType": "bool[]",
          "name": "success",
          "type": "bool[]"
        }
      ],
      "name": "TryExecutionsFailed",
      "type": "event"
    },
    {
      "stateMutability": "payable",
      "type": "fallback"
    },
    {
      "inputs": [],
      "name": "accountId",
      "outputs": [
        {
          "internalType": "string",
          "name": "accountImplementationId",
          "type": "string"
        }
      ],
      "stateMutability": "view",
      "type": "function"
    },
    {
      "inputs": [],
      "name": "domainSeparator",
      "outputs": [
        {
          "internalType": "bytes32",
          "name": "",
          "type": "bytes32"
        }
      ],
      "stateMutability": "view",
      "type": "function"
    },
    {
      "inputs": [],
      "name": "entryPoint",
      "outputs": [
        {
          "internalType": "address",
          "name": "",
          "type": "address"
        }
      ],
      "stateMutability": "view",
      "type": "function"
    },
    {
      "inputs": [
        {
          "internalType": "ModeCode",
          "name": "mode",
          "type": "bytes32"
        },
        {
          "internalType": "bytes",
          "name": "executionCalldata",
          "type": "bytes"
        }
      ],
      "name": "execute",
      "outputs": [],
      "stateMutability": "payable",
      "type": "function"
    },
    {
      "inputs": [
        {
          "internalType": "ModeCode",
          "name": "mode",
          "type": "bytes32"
        },
        {
          "internalType": "bytes",
          "name": "executionCalldata",
          "type": "bytes"
        }
      ],
      "name": "executeFromExecutor",
      "outputs": [
        {
          "internalType": "bytes[]",
          "name": "returnDatas",
          "type": "bytes[]"
        }
      ],
      "stateMutability": "payable",
      "type": "function"
    },
    {
      "inputs": [],
      "name": "getActiveHook",
      "outputs": [
        {
          "internalType": "address",
          "name": "hook",
          "type": "address"
        }
      ],
      "stateMutability": "view",
      "type": "function"
    },
    {
      "inputs": [
        {
          "internalType": "bytes4",
          "name": "selector",
          "type": "bytes4"
        }
      ],
      "name": "getActiveHook",
      "outputs": [
        {
          "internalType": "address",
          "name": "hook",
          "type": "address"
        }
      ],
      "stateMutability": "view",
      "type": "function"
    },
    {
      "inputs": [
        {
          "internalType": "address",
          "name": "cursor",
          "type": "address"
        },
        {
          "internalType": "uint256",
          "name": "size",
          "type": "uint256"
        }
      ],
      "name": "getExecutorsPaginated",
      "outputs": [
        {
          "internalType": "address[]",
          "name": "array",
          "type": "address[]"
        },
        {
          "internalType": "address",
          "name": "next",
          "type": "address"
        }
      ],
      "stateMutability": "view",
      "type": "function"
    },
    {
      "inputs": [
        {
          "internalType": "address",
          "name": "safe",
          "type": "address"
        },
        {
          "internalType": "address",
          "name": "validator",
          "type": "address"
        }
      ],
      "name": "getNonce",
      "outputs": [
        {
          "internalType": "uint256",
          "name": "nonce",
          "type": "uint256"
        }
      ],
      "stateMutability": "view",
      "type": "function"
    },
    {
      "inputs": [
        {
          "internalType": "address",
          "name": "start",
          "type": "address"
        },
        {
          "internalType": "uint256",
          "name": "pageSize",
          "type": "uint256"
        }
      ],
      "name": "getValidatorPaginated",
      "outputs": [
        {
          "internalType": "address[]",
          "name": "array",
          "type": "address[]"
        },
        {
          "internalType": "address",
          "name": "next",
          "type": "address"
        }
      ],
      "stateMutability": "view",
      "type": "function"
    },
    {
      "inputs": [
        {
          "components": [
            {
              "internalType": "address",
              "name": "module",
              "type": "address"
            },
            {
              "internalType": "bytes",
              "name": "initData",
              "type": "bytes"
            }
          ],
          "internalType": "struct ModuleInit[]",
          "name": "validators",
          "type": "tuple[]"
        },
        {
          "components": [
            {
              "internalType": "address",
              "name": "module",
              "type": "address"
            },
            {
              "internalType": "bytes",
              "name": "initData",
              "type": "bytes"
            }
          ],
          "internalType": "struct ModuleInit[]",
          "name": "executors",
          "type": "tuple[]"
        },
        {
          "components": [
            {
              "internalType": "address",
              "name": "module",
              "type": "address"
            },
            {
              "internalType": "bytes",
              "name": "initData",
              "type": "bytes"
            }
          ],
          "internalType": "struct ModuleInit[]",
          "name": "fallbacks",
          "type": "tuple[]"
        },
        {
          "components": [
            {
              "internalType": "address",
              "name": "module",
              "type": "address"
            },
            {
              "internalType": "bytes",
              "name": "initData",
              "type": "bytes"
            }
          ],
          "internalType": "struct ModuleInit[]",
          "name": "hooks",
          "type": "tuple[]"
        },
        {
          "components": [
            {
              "internalType": "contract IERC7484",
              "name": "registry",
              "type": "address"
            },
            {
              "internalType": "address[]",
              "name": "attesters",
              "type": "address[]"
            },
            {
              "internalType": "uint8",
              "name": "threshold",
              "type": "uint8"
            }
          ],
          "internalType": "struct RegistryInit",
          "name": "registryInit",
          "type": "tuple"
        }
      ],
      "name": "initializeAccount",
      "outputs": [],
      "stateMutability": "payable",
      "type": "function"
    },
    {
      "inputs": [
        {
          "internalType": "uint256",
          "name": "moduleType",
          "type": "uint256"
        },
        {
          "internalType": "address",
          "name": "module",
          "type": "address"
        },
        {
          "internalType": "bytes",
          "name": "initData",
          "type": "bytes"
        }
      ],
      "name": "installModule",
      "outputs": [],
      "stateMutability": "payable",
      "type": "function"
    },
    {
      "inputs": [
        {
          "internalType": "uint256",
          "name": "moduleType",
          "type": "uint256"
        },
        {
          "internalType": "address",
          "name": "module",
          "type": "address"
        },
        {
          "internalType": "bytes",
          "name": "additionalContext",
          "type": "bytes"
        }
      ],
      "name": "isModuleInstalled",
      "outputs": [
        {
          "internalType": "bool",
          "name": "",
          "type": "bool"
        }
      ],
      "stateMutability": "view",
      "type": "function"
    },
    {
      "inputs": [
        {
          "internalType": "bytes32",
          "name": "hash",
          "type": "bytes32"
        },
        {
          "internalType": "bytes",
          "name": "data",
          "type": "bytes"
        }
      ],
      "name": "isValidSignature",
      "outputs": [
        {
          "internalType": "bytes4",
          "name": "magicValue",
          "type": "bytes4"
        }
      ],
      "stateMutability": "view",
      "type": "function"
    },
    {
      "inputs": [
        {
          "components": [
            {
              "internalType": "address",
              "name": "module",
              "type": "address"
            },
            {
              "internalType": "bytes",
              "name": "initData",
              "type": "bytes"
            }
          ],
          "internalType": "struct ModuleInit[]",
          "name": "validators",
          "type": "tuple[]"
        }
      ],
      "name": "launchpadValidators",
      "outputs": [],
      "stateMutability": "payable",
      "type": "function"
    },
    {
      "inputs": [
        {
          "internalType": "contract IERC7484",
          "name": "registry",
          "type": "address"
        },
        {
          "internalType": "address[]",
          "name": "attesters",
          "type": "address[]"
        },
        {
          "internalType": "uint8",
          "name": "threshold",
          "type": "uint8"
        }
      ],
      "name": "setRegistry",
      "outputs": [],
      "stateMutability": "nonpayable",
      "type": "function"
    },
    {
      "inputs": [
        {
          "internalType": "ModeCode",
          "name": "encodedMode",
          "type": "bytes32"
        }
      ],
      "name": "supportsExecutionMode",
      "outputs": [
        {
          "internalType": "bool",
          "name": "supported",
          "type": "bool"
        }
      ],
      "stateMutability": "pure",
      "type": "function"
    },
    {
      "inputs": [
        {
          "internalType": "uint256",
          "name": "moduleTypeId",
          "type": "uint256"
        }
      ],
      "name": "supportsModule",
      "outputs": [
        {
          "internalType": "bool",
          "name": "",
          "type": "bool"
        }
      ],
      "stateMutability": "pure",
      "type": "function"
    },
    {
      "inputs": [
        {
          "internalType": "uint256",
          "name": "moduleType",
          "type": "uint256"
        },
        {
          "internalType": "address",
          "name": "module",
          "type": "address"
        },
        {
          "internalType": "bytes",
          "name": "deInitData",
          "type": "bytes"
        }
      ],
      "name": "uninstallModule",
      "outputs": [],
      "stateMutability": "payable",
      "type": "function"
    },
    {
      "inputs": [
        {
          "components": [
            {
              "internalType": "address",
              "name": "sender",
              "type": "address"
            },
            {
              "internalType": "uint256",
              "name": "nonce",
              "type": "uint256"
            },
            {
              "internalType": "bytes",
              "name": "initCode",
              "type": "bytes"
            },
            {
              "internalType": "bytes",
              "name": "callData",
              "type": "bytes"
            },
            {
              "internalType": "bytes32",
              "name": "accountGasLimits",
              "type": "bytes32"
            },
            {
              "internalType": "uint256",
              "name": "preVerificationGas",
              "type": "uint256"
            },
            {
              "internalType": "bytes32",
              "name": "gasFees",
              "type": "bytes32"
            },
            {
              "internalType": "bytes",
              "name": "paymasterAndData",
              "type": "bytes"
            },
            {
              "internalType": "bytes",
              "name": "signature",
              "type": "bytes"
            }
          ],
          "internalType": "struct PackedUserOperation",
          "name": "userOp",
          "type": "tuple"
        },
        {
          "internalType": "bytes32",
          "name": "userOpHash",
          "type": "bytes32"
        },
        {
          "internalType": "uint256",
          "name": "missingAccountFunds",
          "type": "uint256"
        }
      ],
      "name": "validateUserOp",
      "outputs": [
        {
          "internalType": "uint256",
          "name": "validSignature",
          "type": "uint256"
        }
      ],
      "stateMutability": "payable",
      "type": "function"
    },
    {
      "stateMutability": "payable",
      "type": "receive"
    }
  ],
  "args": [],
  "numDeployments": 1,
  "solcInputHash": "193763c9aacc161dc5429461fa80bbab",
  "bytecode": "0x608080604052346200008a576108c28181016001600160401b038111838210176200007457829162003ef1833903906000f080156200006857600080546001600160a01b0319166001600160a01b0392909216919091179055604051613e619081620000908239f35b6040513d6000823e3d90fd5b634e487b7160e01b600052604160045260246000fd5b600080fdfe6080604090808252600490813610156100a6575b505036156100a45760008035908160e01c9263bc197c81841463f23a6e6185141763150b7a0285141761009a57906100929133825260056020526001600160a01b03918282822054169460066020526001600160e01b031983832091168252602052205416610082818461317c565b9161008c36613b29565b94613243565b602081519101f35b836020526020603cf35b005b600091823560e01c9182630a664dba1461220a57508163112d3a7d146121eb5781631626ba7e1461219a57816319822f7c14611c5c578163540fb4f9146119825781636a5e15151461191b57816385571368146117ba5781639517e29f146114f65781639cfd7cff146113b6578163a71763a814610f32578163b0d691fe14610f07578163b875d5d814610eb9578163d03c791414610e99578163d691c9641461091a578163d828435d14610835578163e9ae5c5314610425578163ea5f61d014610296578163eab77e17146101e5578163f2dc691d146101b9575063f698da25146101925780610013565b90346101b557816003193601126101b5576020906101ae612b1e565b9051908152f35b5080fd5b8383346101e25760203660031901126101e257506101d960209235612ae3565b90519015158152f35b80fd5b8284346101b55760603660031901126101b55782356001600160a01b03811681036102925760243567ffffffffffffffff811161028e5761022990369086016122d6565b916044359360ff8516850361028a5760131936013560601c6f71727de22e5e9d8baf0edac6f37da0328114908115610280575b5015610271575061026e949550612e59565b80f35b869051635629665f60e11b8152fd5b905033148861025c565b8580fd5b8380fd5b8280fd5b8383346101e257816003193601126101e2576102b0612237565b91602435913381526020906003602052828120906001600160a01b03918287169360019760018614159081610413575b506103fd5786156103ee579087916102f7886130de565b9784966000528260205285886000205416995b610388575b50505050600182871614158061037f575b61033c575b5050906103389183525192839283612307565b0390f35b9194509060001985019085821161036c57508394955061035f906103389461311d565b5116929150838580610325565b80601188634e487b7160e01b6024945252fd5b50821515610320565b909192959885811690811515806103e4575b806103db575b156103d35750806103b18b8b61311d565b52600052828252856103c9868960002054169a613131565b969392919061030a565b99965061030f565b50828b106103a0565b508782141561039a565b88865163f725081760e01b8152fd5b60248986885191637c84ecfb60e01b8352820152fd5b61041e915083613c5e565b158a6102e0565b9050610430366123be565b9290338552602095600587526001600160a01b039687828820541692600682528288207fe9ae5c53000000000000000000000000000000000000000000000000000000008952825288838920541694610489868661317c565b989097601319908136013560601c6f71727de22e5e9d8baf0edac6f37da032811490811561082b575b501561081c576001600160f81b031990818160081b16801560001461066d5750811690600160f81b820361054d5750505050509161054261026e98999261053485610548963501948c5416935194827f3f707e6b0000000000000000000000000000000000000000000000000000000087948501528135910160248401613a7b565b03601f19810184528361258e565b336137ad565b613243565b9080929395949d50156000146106145750505061057e8a610572610596948694613a53565b96929491963691612aac565b8751958694859463468721a760e01b86528501612cc8565b03816000335af1918215610609576000926105ce575b5050156105bf575061026e949550613243565b869051632b3f6d1160e21b8152fd5b90809250813d8311610602575b6105e5818361258e565b810103126105fd576105f690612c6c565b38806105ac565b600080fd5b503d6105db565b83513d6000823e3d90fd5b90809395509b9395919a9b146000146106585750505081601411610654576106496105489261026e9836910160148401612aac565b903560601c336137ad565b8780fd5b602493505191632e5bf3f960e21b8352820152fd5b9190600160f81b9e98979695949d9e92838114600014610806575081169182036106eb575050505061026e9850610548939291610534826106e5933501948c5416935194827f50c890220000000000000000000000000000000000000000000000000000000087948501528135910160248401613a7b565b3361386f565b90809293959750156000146107cc57505050839161070f6107339a61071b93613a53565b9c9294919c3691612aac565b85519b8c94859463468721a760e01b86528501612cc8565b03818b335af180156107c257889061078c575b61026e975015610758575b5050613243565b7fb8bc84bd77f5eb08210b8eb20fd63b3ec6a7992d277ab94663bae0e066f792ac9188825191338352820152a13880610751565b508187813d83116107bb575b6107a2818361258e565b81010312610654576107b661026e97612c6c565b610746565b503d610798565b81513d8a823e3d90fd5b919a955091939082036106585750505081601411610654576107fb6105489261026e9836910160148401612aac565b903560601c3361386f565b856024918a51916308c3ee0360e11b8352820152fd5b838751635629665f60e11b8152fd5b90503314386104b2565b8284346101b557806003193601126101b55761084f612237565b6001600160a01b039360243585811681036105fd5777ffffffffffffffffffffffffffffffffffffffff00000000916020968551947f35567e1a0000000000000000000000000000000000000000000000000000000086521690840152851b16602482015283816044816f71727de22e5e9d8baf0edac6f37da0325afa92831561090f57926108e0575b5051908152f35b9091508281813d8311610908575b6108f8818361258e565b810103126105fd575190836108d9565b503d6108ee565b8251903d90823e3d90fd5b9050610925366123be565b909391601319918236013560601c953385526020966003885261094a818a8820613c5e565b15610e6a5750338552600587526001600160a01b039081898720541696600689528987207fd691c9640000000000000000000000000000000000000000000000000000000088528952828a88205416936109a4858a61317c565b9790966109b0336139b2565b6001600160f81b031990818160081b168015600014610c0e5750811690600160f81b8203610ac9575050505050610a2e91610a288261053493350191885416918b519384917f61085573000000000000000000000000000000000000000000000000000000008d8401528c8135910160248401613a7b565b33613ddd565b80518101878282031261028a57878201519067ffffffffffffffff8211610ac5579188610a669281610a6c9897969501920101613d5d565b95613243565b83519280840190808552835180925280868601968360051b870101940192955b828710610a995785850386f35b909192938280610ab5600193603f198a82030186528851612384565b9601920196019592919092610a8c565b8680fd5b9080929395949d9c9b965015600014610ba5575050506000610b25610af78c999897969594610b0d94613a53565b9b9293919590610b05613a1e565b9c3691612aac565b8d519586948594635229073f60e01b86528501612cc8565b038183335af1908115610b9a57600090600092610b74575b5015610b65578697989950610b55610a6c9697613110565b52610b5f87613110565b50613243565b898951632b3f6d1160e21b8152fd5b9050610b9391503d806000833e610b8b818361258e565b810190612c93565b9038610b3d565b89513d6000823e3d90fd5b819c929a9b9c94939414600014610bf857505080601411610ac557610a6c9594939291610be4610bef92610bd7613a1e565b9a36910160148401612aac565b903560601c33613ddd565b610b5588613110565b602492508b5191632e5bf3f960e21b8352820152fd5b959d9c9b9a9998979695600160f81b929190838103610e5357508116918203610d3c57505050505061053490610c888a610c8e9495969798999a9b350191885416918b519384917f9abb6e17000000000000000000000000000000000000000000000000000000008d8401528c8135910160248401613a7b565b33613ce0565b8051810190888189840193031261028a57878101519067ffffffffffffffff9182811161065457810183603f8201121561065457898101518b8b610cd1836130c6565b610cdd8351918261258e565b838152019160051b83010191858311610d38578c8c9101915b838310610d20575050505089810151918211610ac5579188610a6692610a6c979695940101613d5d565b8190610d2b84612c6c565b8152019101908b90610cf6565b8980fd5b90809293949a955015600014610e1357505050610d8e610d608792610d769c613a53565b9a9293919d90610d6e613a1e565b9b3691612aac565b8c519d8e948594635229073f60e01b86528501612cc8565b038183335af18015610e09578596979899610a6c96908892610dec575b5015610dba57610b5588613110565b7fb8bc84bd77f5eb08210b8eb20fd63b3ec6a7992d277ab94663bae0e066f792ac8a8051338152898c820152a1610bef565b9050610e0291503d8089833e610b8b818361258e565b9038610dab565b88513d87823e3d90fd5b819c949596979899929a9b9c14600014610bf857505080601411610ac557610a6c9594939291610e48610bef92610bd7613a1e565b903560601c33613ce0565b868f9160249251916308c3ee0360e11b8352820152fd5b866024918a51917fb927fe5e000000000000000000000000000000000000000000000000000000008352820152fd5b8383346101e25760203660031901126101e257506101d960209235612a21565b839150346102925760203660031901126102925735916001600160e01b031983168093036105fd57816001600160a01b03916020943382526006865282822090825285522054169051908152f35b8284346101b557816003193601126101b557602090516f71727de22e5e9d8baf0edac6f37da0328152f35b9050610f3d3661228f565b92909391338652602090600582526001600160a01b039283898920541693600684528989207fa71763a8000000000000000000000000000000000000000000000000000000008a528452808a8a20541695610f98878761317c565b99909860131936013560601c6f71727de22e5e9d8baf0edac6f37da03281149081156113ac575b501561139d57839291906001860361111a5790610fde91810190613831565b92169083861680158015611110575b6110fa5780858f611011866001600160a01b03166000526002602052604060002090565b336000528b526000205416036110e45750508a8561026e9c9d956106e59561054899956105349561105d637827252560e01b9b6001600160a01b03166000526002602052604060002090565b336000528852611087838b6000205416916001600160a01b03166000526002602052604060002090565b336000528852896000206001600160a01b031991828254161790556110bf856001600160a01b03166000526002602052604060002090565b33600052885289600020908154169055935b54169651978895860152602485016129c5565b602492508d5191637c84ecfb60e01b8352820152fd5b506024918d5191637c84ecfb60e01b8352820152fd5b5060018114610fed565b9250600285036111f9579061113e8493928e8e33815260038b522093810190613831565b93169184871691821580156111ef575b6111d857828f879086600052848c526000205416036111c15750958c9d956106e595610548999561026e9f949586637827252560e01b9b610534986000528952838b6000205416916000528a6000206001600160a01b0319928382541617905560005289600020908154169055936110d1565b90506024918e5191637c84ecfb60e01b8352820152fd5b60249150838f5191637c84ecfb60e01b8352820152fd5b506001831461114e565b9492909a9b93959160038714600014611289578c9086019385878603126101b557611223876123a9565b97848801359367ffffffffffffffff851161028e5761026e9e6105489a61125a6106e59961053498637827252560e01b9d01613465565b9133875288526001600160e01b03198a87209116865287528885206001600160a01b03198154169055936110d1565b8b87959d9c9397969294961460001461138757906112a991810190613480565b929091600281101561137457801580611362575b1561130057505050936105348a637827252560e01b9561026e9c9d956106e59561054899338552600587528885206001600160a01b031981541690555b936110d1565b60010361135457508a637827252560e01b9561026e9c9d956106e595610548999561053495338652600688526001600160e01b03198a87209116865287528885206001600160a01b031981541690556112fa565b8c51635691922f60e01b8152fd5b506001600160e01b03198316156112bd565b60248d602184634e487b7160e01b835252fd5b602483868f519163041c38b360e41b8352820152fd5b828d51635629665f60e11b8152fd5b9050331438610fbf565b8284346101b557816003193601126101b55781815180947fffa1ad7400000000000000000000000000000000000000000000000000000000825281335afa9182156114eb578092611492575b61033883836114806034825180947f736166652d000000000000000000000000000000000000000000000000000000602083015261144a815180926020602586019101612361565b81017f2e657263373537392e76302e302e310000000000000000000000000000000000602582015203601481018552018361258e565b51918291602083526020830190612384565b9091503d8082853e6114a4818561258e565b8301926020818503126101b55780519067ffffffffffffffff821161029257019083601f830112156101e25750610338928160206114e4935191016129ea565b9083611402565b9051903d90823e3d90fd5b82846115013661228f565b95929391909333865260056020526001600160a01b0392838188205416926006602052818820907f9517e29f0000000000000000000000000000000000000000000000000000000091828a5260205285838a20541695611561878761317c565b99909860131936013560601c6f71727de22e5e9d8baf0edac6f37da03281149081156117b0575b50156117a257600187036115e157508a83610548979695936115ca61026e9e9f94610534956115b961054299613935565b6115c38533612ffc565b3691612aac565b925b541695519687946020860152602485016129c5565b6002870361160e57508a836105489796959361160861026e9e9f61053495610542986136c5565b926115cc565b6003870361163557508a836105489796959361160861026e9e9f61053495610542986134c2565b86810361165b57508a836105489796959361160861026e9e9f61053495610542986132e6565b909b508561178c578b358c019b8c91602082013582019060208201913592888101350193358303611765579d91908d9e8f5b8435116116be57505050508a61026e9b9c506105429361054897969593611608610534943690602081359101612aac565b839f8082602060019360051b880101358381146000146117065750506116fb6116e88287876132cf565b6116f18c613935565b6115c38c33612ffc565b505b019f508f61168d565b6002810361172c57505061172561171e8287876132cf565b908b6136c5565b505b6116fd565b6003810361174b5750506117256117448287876132cf565b908b6134c2565b036117275761172561175e8287876132cf565b908b6132e6565b87517fb4fa3fb3000000000000000000000000000000000000000000000000000000008152fd5b6024908686519163041c38b360e41b8352820152fd5b8551635629665f60e11b8152fd5b905033148e611588565b8284346101b557806003193601126101b5576117d4612237565b90602435916001600160a01b038082169460019560018114158061190a575b6118f4575084156118e55785611808866130de565b9561182783956001600160a01b03166000526002602052604060002090565b903360005260209160205284876000205416985b611866575b505050600182871614158061037f5761033c575050906103389183525192839283612307565b90919497848116801515806118db575b806118d2575b156118ca57906118aa916118908b8b61311d565b526001600160a01b03166000526002602052604060002090565b336000528252846118c18588600020541699613131565b9592919061183b565b509794611840565b50828a1061187c565b5086811415611876565b86845163f725081760e01b8152fd5b87602491865191637c84ecfb60e01b8352820152fd5b506119158433613c97565b156117f3565b905060203660031901126101b55780359067ffffffffffffffff821161029257611947913691016122d6565b61195033612f80565b825b81811061195d578380f35b8061197c6119766119716001948688612979565b6129b1565b33612ffc565b01611952565b83915060031960a03682011261028e5767ffffffffffffffff91803583811161028a576119b290369083016122d6565b929094602435858111610654576119cc90369085016122d6565b604435878111610d38576119e390369087016122d6565b939094606435898111611c58576119fd90369089016122d6565b979099608435818111611c5457606081360394850112611c545780830135916001600160a01b03948584168403611c505760248301359060221901811215611c5057820184810135918211611c5057602401918160051b36038313611c5057604401359160ff83168303611c5057611a7493612e59565b60019a8b60005260209960028b5284600020336000528b528385600020541615600014611c19578c8e611aa633612f80565b828110611bdd57505050505b338c5260038952828c20918b600052828a52836000205416611bcf5750896000528752600020886001600160a01b031982541617905587895b828110611b9c575050505085875b828110611b695750505050845b818110611b365785337ff48581d8a62b775b74f2fb67f1d5806a9a356fbcc598040ab3071d3e37af40c28280a280f35b80611b62611b4687938588612979565b611b5c611b52826129b1565b9187810190612f4d565b916132e6565b5001611b06565b611b93611b77828587612979565b611b8d611b83826129b1565b9189810190612f4d565b916134c2565b50018690611af9565b611bc6611baa828587612979565b611bc0611bb6826129b1565b918b810190612f4d565b916136c5565b50018890611aeb565b82516329e42f3360e11b8152fd5b611c108d6115c3611c04611bf285888a612979565b611bfb816129b1565b93810190612f4d565b91909261197681613935565b50018d90611aa6565b905015611ab2576024908351907fd8e3ed1b0000000000000000000000000000000000000000000000000000000082523390820152fd5b8f80fd5b8d80fd5b8b80fd5b828460031960603682011261029257833567ffffffffffffffff9182821161217657610120828701918336030112612176576f71727de22e5e9d8baf0edac6f37da032917fffffffffffffffffffffffffffffffff8e8d821dd1a1627450f125390c825fce36601319013560601c0161218b5760248101358060601c8015801561217a575b156120435750611cf5610104830184612f4d565b919092826006116120295782600c1161202957600684013594611d1e6115c36044840183612f4d565b6020815191012091611d366115c36064830184612f4d565b602081519101209060848101356fffffffffffffffffffffffffffffffff92611d6b6115c360c48501359660e4860190612f4d565b60208151910120958d51978d6101c08a01908a82109082111761202d57928f926101c0999795928460a496611e5b9e9d9b9996527f84aa190356f56b8c87825f54884392a9907c23ee0f8e1ea86336b763faf021bd8b523360208c01528a01526060890152608088015283811660a088015260801c60c0870152013560e0850152811661010084015260801c610120830152610140820152843560d01c6101608201528560d01c610180820152866101a082015220611e69611e2b612b1e565b9189519485916020830194859091604292601960f81b8352600160f81b6001840152600283015260228201520190565b03601f19810185528461258e565b82519020333b1561202957918891611e9e8b948a51958694859463934f3a1160e01b8652600b190192600c8a019286016125f3565b0381335afa9081612016575b50611fdd579065ffffffffffff60a01b7fffffffffffff000000000000000000000000000000000000000000000000000060019335169160301c1617175b935b604435611efc575b6020858551908152f35b8351926020840190811184821017611fc85791611f499391602093865282528451938492839263468721a760e01b8452898401526044356024840152608060448401526084830190612384565b6000606483015203816000335af1908115611fbd57600091611f83575b5015611f7457828080611ef2565b905051632b3f6d1160e21b8152fd5b90506020813d602011611fb5575b81611f9e6020938361258e565b810103126105fd57611faf90612c6c565b84611f66565b3d9150611f91565b82513d6000823e3d90fd5b604187634e487b7160e01b6000525260246000fd5b7fffffffffffff000000000000000000000000000000000000000000000000000065ffffffffffff60a01b9135169160301c1617611ee8565b61202290979197612548565b9588611eaa565b8880fd5b50508f8f6041602492634e487b7160e01b835252fd5b906121599061214361215f959489519586937f970032030000000000000000000000000000000000000000000000000000000060208601528b60248601526001600160a01b036120928361224d565b16606486015260848501526121336120c36120b0604485018461292b565b61012060a48901526101848801916125d2565b916120e86120d4606486018361292b565b606319898703810160c48b015295916125d2565b608485013560e488015261212b6101049160a4870135838a015260c48701356101248a015261211a60e488018561292b565b90878b8403016101448c01526125d2565b94019061292b565b91858403016101648601526125d2565b602435604483015203601f19810184528361258e565b33612cfa565b602081805181010312612176576020015193611eea565b8480fd5b506121858133613c97565b15611ce1565b868551635629665f60e11b8152fd5b8383346101e257816003193601126101e2576024359067ffffffffffffffff82116101e257506121e36020936121dc6001600160e01b03199336908301612261565b913561261f565b915191168152f35b8284346101b5576020906101d96122013661228f565b929190916123ee565b839085346102925782600319360112610292576001600160a01b0390602093338152600585522054168152f35b600435906001600160a01b03821682036105fd57565b35906001600160a01b03821682036105fd57565b9181601f840112156105fd5782359167ffffffffffffffff83116105fd57602083818601950101116105fd57565b60606003198201126105fd57600435916024356001600160a01b03811681036105fd57916044359067ffffffffffffffff82116105fd576122d291600401612261565b9091565b9181601f840112156105fd5782359167ffffffffffffffff83116105fd576020808501948460051b0101116105fd57565b909291926040820190604083528051809252606083019160208092019160005b82811061234457505050506001600160a01b036020919416910152565b83516001600160a01b031685529381019392810192600101612327565b60005b8381106123745750506000910152565b8181015183820152602001612364565b9060209161239d81518092818552858086019101612361565b601f01601f1916010190565b35906001600160e01b0319821682036105fd57565b9060406003198301126105fd57600435916024359067ffffffffffffffff82116105fd576122d291600401612261565b90929060018103612409575050506124069033613c97565b90565b6002810361242b57505050612406903360005260036020526040600020613c5e565b6003810361247e575081602091810103126105fd57612449906123a9565b3360005260046020526001600160e01b0319604060002091166000526020526001600160a01b03806040600020541691161490565b9192916004036125405782604091810103126105fd5781359160028310156105fd5760206124ac91016123a9565b60009280158061252e575b61250e575b6001146124d6575b506001600160a01b0380911691161490565b9091503360005260066020526001600160e01b0319604060002091166000526020526001600160a01b036040600020541690386124c4565b336000908152600560205260409020546001600160a01b031693506124bc565b506001600160e01b03198216156124b7565b505050600090565b67ffffffffffffffff811161255c57604052565b634e487b7160e01b600052604160045260246000fd5b6040810190811067ffffffffffffffff82111761255c57604052565b90601f8019910116810190811067ffffffffffffffff82111761255c57604052565b90602091808252806000848401376000828201840152601f01601f1916010190565b908060209392818452848401376000828201840152601f01601f1916010190565b92906124069492612611918552606060208601526060850190612384565b9260408185039101526125d2565b918015806128a0575b61289257806014116105fd57813560601c9081158015612881575b6126d4576126af936105346126a9926013199560146040519788957ff551e2ee0000000000000000000000000000000000000000000000000000000060208801528136013560601c602488015260448701526060606487015260848601930191016125d2565b33612b99565b6020818051810103126105fd57602001516001600160e01b0319811681036105fd5790565b905060409182517ff698da250000000000000000000000000000000000000000000000000000000081526020948582600481335afa91821561287657600092612845575b506127d890855187810191825287815261273181612572565b51902085519087820190815287825261274982612572565b61279687805180936127878c8301967f60b3cbf8b4a223d68d641b3b6ddf9a298e7f33710cf3d3a9d1146b5a6150fbca885251809285850190612361565b8101038a81018452018261258e565b519020956127ca8651978892830194859091604292601960f81b8352600160f81b6001840152600283015260228201520190565b03601f19810187528661258e565b8451902091333b156105fd5761280e6014926000948651978895869563934f3a1160e01b875260131901930191600486016125f3565b0381335afa90811561283b575061282c575b50630b135d3f60e11b90565b61283590612548565b38612820565b513d6000823e3d90fd5b9091508581813d831161286f575b61285d818361258e565b810103126105fd5751906127d8612718565b503d612853565b85513d6000823e3d90fd5b5061288c8233613c97565b15612643565b505050630b135d3f60e11b90565b506040517f5ae6bd37000000000000000000000000000000000000000000000000000000008152836004820152602081602481335afa90811561291f576000916128ed575b501515612628565b90506020813d602011612917575b816129086020938361258e565b810103126105fd5751386128e5565b3d91506128fb565b6040513d6000823e3d90fd5b9035601e19823603018112156105fd57016020813591019167ffffffffffffffff82116105fd5781360383136105fd57565b67ffffffffffffffff811161255c57601f01601f191660200190565b919081101561299b5760051b81013590603e19813603018212156105fd570190565b634e487b7160e01b600052603260045260246000fd5b356001600160a01b03811681036105fd5790565b6001600160a01b03612406949360609383521660208201528160408201520190612384565b909291926129f78161295d565b91612a05604051938461258e565b8294828452828201116105fd576020612a1f930190612361565b565b8060081b6001600160f81b031980921682600160f81b91828114600014612a8c57505060019283925b8380612a82575b15612a5d575050505090565b83612a76575b505050600014612a705790565b50600090565b16149050388080612a63565b5081811615612a51565b80612a9d5750506001928392612a4a565b03612540576001928392612a4a565b929192612ab88261295d565b91612ac6604051938461258e565b8294818452818301116105fd578281602093846000960137010152565b60018103612af15750600190565b60028103612aff5750600190565b60038103612b0d5750600190565b600403612b1957600190565b600090565b60405160208101907f47e79534a245952e8b16893a336b85a3d9ea9fa8c573f3d803afb92a794692188252466040820152306060820152606081526080810181811067ffffffffffffffff82111761255c5760405251902090565b6040906001600160a01b0361240694931681528160208201520190612384565b600090602092949394612bd96040519687927f6a221657000000000000000000000000000000000000000000000000000000008785015260248401612b79565b0394612bed601f199687810183528261258e565b612c35612c416001600160a01b0385541692604051928391888301957fb4faba0900000000000000000000000000000000000000000000000000000000875260248401612b79565b0388810183528261258e565b51915afa503d91604051928181850101604052016020833e60005115612c6357565b50602081519101fd5b519081151582036105fd57565b9080601f830112156105fd578151612406926020016129ea565b9190916040818403126105fd57612ca981612c6c565b92602082015167ffffffffffffffff81116105fd576124069201612c79565b9392612cf5906000936001600160a01b036060941687526020870152608060408701526080860190612384565b930152565b90612d45909392936001600160a01b0392839160405196879586948593635229073f60e01b855216600484015260009889968793846024840152608060448401526084830190612384565b8360648301520393165af1908115612d9c57838092612d7a575b50509115612d6957565b6004604051632b3f6d1160e21b8152fd5b909150612d929293503d8091833e610b8b818361258e565b9190913880612d5f565b6040513d85823e3d90fd5b612dee926020916001600160a01b03938492604051958694859363468721a760e01b8552166004840152826000988993846024840152608060448401526084830190612384565b8360648301520393165af1918215612e4d578092612e10575b505015612d6957565b9091506020823d602011612e45575b81612e2c6020938361258e565b810103126101e25750612e3e90612c6c565b3880612e07565b3d9150612e1f565b604051903d90823e3d90fd5b92919233600052600160209460016020526040600020956001600160a01b0380941696876001600160a01b031982541617905581604051967ff05c04e100000000000000000000000000000000000000000000000000000000602089015260ff606489019116602489015260406044890152526084860194936000905b838210612f295750505050505090612efa81612f019303601f19810183528261258e565b8233612da7565b337f9452c8fb077c3ea8f28a77c87488af657b1e44d010ad9a5992d73870da040e94600080a3565b909192938380879884612f3c859a61224d565b168152019701959493920190612ed6565b903590601e19813603018212156105fd570180359067ffffffffffffffff82116105fd576020019181360383136105fd57565b6001600160a01b0390811660008181527fe90b7bceb6e7df5418fb78d8ee546e97c83a08bbccc01a0644d599ccd2a7c2e060205260408120549192909116612feb576040916001825260026020528282209082526020522060016001600160a01b0319825416179055565b60046040516329e42f3360e11b8152fd5b906001600160a01b0380911690811580156130bc575b6130a45760008281526020936002855260409280848420921691828452865280848420541661308d57600183526002865283832082845286528383205416948483526002815283832082845281528383206001600160a01b031996878254161790556001835260028152838320918352522091825416179055565b602485855190631034f46960e21b82526004820152fd5b60248260405190637c84ecfb60e01b82526004820152fd5b5060018214613012565b67ffffffffffffffff811161255c5760051b60200190565b906130e8826130c6565b6130f5604051918261258e565b8281528092613106601f19916130c6565b0190602036910137565b80511561299b5760200190565b805182101561299b5760209160051b010190565b60001981146131405760010190565b634e487b7160e01b600052601160045260246000fd5b906020828203126105fd57815167ffffffffffffffff81116105fd576124069201612c79565b90916060926060926001600160a01b03908181166131f5575b50811661319f5750565b6124069192506131e6906040519063d68f602560e01b602083015260131936013560601c6024830152346044830152606060648301526121598261053460848201366125b0565b60208082518301019101613156565b61323c9195506131e6906040519063d68f602560e01b602083015260131936013560601c6024830152346044830152606060648301526121598261053460848201366125b0565b9338613195565b929190926001600160a01b0391828216613299575b50508216613264575050565b612a1f9161329361053492604051938491630b9dfbed60e11b6020840152602060248401526044830190612384565b33612da7565b6132c89161329361053492604051938491630b9dfbed60e11b6020840152602060248401526044830190612384565b3880613258565b9082101561299b576122d29160051b810190612f4d565b9060009233845260016020526001600160a01b039160409183838720541680613400575b509061331891810190613480565b959160028110156133ec578015806133da575b15613393575050338152600560205282828220541680613363575033815260056020522091166001600160a01b031982541617905590565b6024908351907f741cbe030000000000000000000000000000000000000000000000000000000082526004820152fd5b6001036133ca5733825260066020526001600160e01b0319838320911682526020522091166001600160a01b031982541617905590565b60048351635691922f60e01b8152fd5b506001600160e01b031982161561332b565b602483634e487b7160e01b81526021600452fd5b803b15610ac5578660649185519283809263529562a160e01b8252336004830152898b166024830152600460448301525afa801561345b579061331893929161344c575b50909161330a565b61345590612548565b38613444565b84513d89823e3d90fd5b9080601f830112156105fd5781602061240693359101612aac565b916060838303126105fd57823560028110156105fd57926134a3602082016123a9565b92604082013567ffffffffffffffff81116105fd576124069201613465565b90600091338352602093600185526001600160a01b03936040918583832054168061366f575b508401956060858803126101b5576134ff856123a9565b9681860135956001600160f81b03198716870361028e57848101359067ffffffffffffffff8211612176579161353f916001600160e01b03199301613465565b9716907f6d61fe700000000000000000000000000000000000000000000000000000000082148015613646575b613616573383526004815283832082845281528684842054166135e657917fffffffffffffffffffffff000000000000000000000000000000000000000000939174ff00000000000000000000000000000000000000009333835260048152838320918352522094855493169360581c1691161717905590565b6024828551907f74420d150000000000000000000000000000000000000000000000000000000082526004820152fd5b6024828551907f79bd117b0000000000000000000000000000000000000000000000000000000082526004820152fd5b507f8a91b0e300000000000000000000000000000000000000000000000000000000821461356c565b803b15610292578260649185519283809263529562a160e01b82523360048301528b8a166024830152600360448301525afa80156136bb57156134e8576136b590612548565b386134e8565b84513d85823e3d90fd5b92916136d0846139b2565b60003381526003602052604094858220956001600160a01b038092169182158015613775575b61375e5782845287602052808285205416613747576124069697600185526020528184205416928281528181206001600160a01b031994858254161790556001815220918254161790553691612aac565b602483835190631034f46960e21b82526004820152fd5b602483835190637c84ecfb60e01b82526004820152fd5b50600183146136f6565b9291612cf56060916001600160a01b0360019416865260006020870152608060408701526080860190612384565b916137db9260209260006001600160a01b0360405180978196829563468721a760e01b84526004840161377f565b0393165af190811561291f576000916137f7575b5015612d6957565b90506020813d602011613829575b816138126020938361258e565b810103126105fd5761382390612c6c565b386137ef565b3d9150613805565b9190916040818403126105fd5780356001600160a01b03811681036105fd5792602082013567ffffffffffffffff81116105fd576124069201613465565b6001600160a01b0390929192169161389960405192839263468721a760e01b84526004840161377f565b03906020816000938185875af190811561392a5782916138f0575b50156138be575050565b7fb8bc84bd77f5eb08210b8eb20fd63b3ec6a7992d277ab94663bae0e066f792ac9160409182519182526020820152a1565b90506020813d602011613922575b8161390b6020938361258e565b810103126101b55761391c90612c6c565b386138b4565b3d91506138fe565b6040513d84823e3d90fd5b600033815260016020526001600160a01b0380604083205416928361395b575b50505050565b833b15610292579060648392604051958693849263529562a160e01b8452336004850152166024830152600160448301525afa908115612e4d57506139a3575b808080613955565b6139ac90612548565b3861399b565b600033815260016020526001600160a01b038060408320541692836139d75750505050565b833b15610292579060648392604051958693849263529562a160e01b8452336004850152166024830152600260448301525afa908115612e4d57506139a357808080613955565b604051613a2a81612572565b600181528060005b602080821015613a4d57906060602092828501015201613a32565b50505090565b90806014116105fd57813560601c92816034116105fd57601483013592603401916033190190565b6020928084830185845252604093604083019260408360051b8201019585600080935b868510613ab15750505050505050505090565b909192939495969798603f198282030189528935605e198536030181121561028e5787613b1860019387839401613b096060916001600160a01b03613af58261224d565b16845285810135868501528b81019061292b565b919092818c82015201916125d2565b9b0199019796950193929190613a9e565b9060609160003381526020906004825260408120916001600160e01b03198235169283835281526040822054926001600160f81b03196001600160a01b0385169460581b16908415613c2d57507ffe000000000000000000000000000000000000000000000000000000000000008114613bea5715613ba85750505050565b6124069495506121599160349185604051968793838501378201906bffffffffffffffffffffffff19601319360135169082015203601481018552018361258e565b506124069495506126a99160349185604051968793838501378201906bffffffffffffffffffffffff19601319360135169082015203601481018552018361258e565b602490604051907f48c9ceda0000000000000000000000000000000000000000000000000000000082526004820152fd5b906001600160a01b038091169182600114159283613c7c5750505090565b90919250600052602052604060002054161515388080613a4d565b906001600160a01b038091169182600114159283613cb55750505090565b9091925060005260026020528160406000209116600052602052604060002054161515388080613a4d565b6001600160a01b039093929193169060405193635229073f60e01b85528480613d1060009485946004840161377f565b038183865af18015613d505781948291613d30575b5093156138be575050565b9050613d479194503d8086833e610b8b818361258e565b93909338613d25565b50604051903d90823e3d90fd5b81601f820112156105fd57805191602091613d77846130c6565b93613d85604051958661258e565b808552838086019160051b830101928084116105fd57848301915b848310613db05750505050505090565b825167ffffffffffffffff81116105fd578691613dd284848094890101612c79565b815201920191613da0565b9091613e0e939260405192838092635229073f60e01b82526001600160a01b03826000998a9788946004840161377f565b0393165af1908115612d9c57838092612d7a5750509115612d695756fea2646970667358221220050e7aa8c5e5f3123211d15a3d12435c074d1cf032931ff300d7f1e833b6eada64736f6c6343000817003360808060405234610016576108a6908161001c8239f35b600080fdfe60406080604052600436101561001457600080fd5b6000803560e01c9182633f707e6b1461008d575050806350c890221461008857806361085573146100835780636a2216571461007e57806378272525146100795780639517e29f1461007457639abb6e171461006f57600080fd5b610624565b6104e9565b6103fc565b61031b565b610235565b61013d565b346100e75761009b366100eb565b839291925b8181106100ab578480f35b806100e060206100be60019486896106e6565b80356100c9816102b9565b6100d58883018361070d565b93909201359061080d565b50016100a0565b5080fd5b9060206003198301126101385760043567ffffffffffffffff9283821161013857806023830112156101385781600401359384116101385760248460051b83010111610138576024019190565b600080fd5b346101385761014b366100eb565b60009182915b808410610165576020836040519015158152f35b909150600161019d602061017a8685876106e6565b8035610185816102b9565b610192604083018361070d565b939092013590610846565b509301929190610151565b9080825180825260208092019180808360051b8601019501936000936000915b8483106101d9575050505050505090565b9091929394959684601f198084840301855289518051908185528a5b82811061022157505080840183018a9052601f01169091018101978101969594936001019201906101c8565b8181018501518682018601528994016101f5565b3461013857610243366100eb565b9061024d82610758565b9160005b818110610272576040516020808252819061026e908201876101a8565b0390f35b8061029d602061028560019486886106e6565b8035610290816102b9565b6100d5604083018361070d565b6102a782876107a2565b526102b281866107a2565b5001610251565b6001600160a01b0381160361013857565b634e487b7160e01b600052604160045260246000fd5b67ffffffffffffffff81116102f457604052565b6102ca565b90601f8019910116810190811067ffffffffffffffff8211176102f457604052565b3461013857604036600319011261013857600435610338816102b9565b6024359067ffffffffffffffff80831161013857366023840112156101385782600401359081116102f4576040519261037b601f8301601f1916602001856102f9565b8184523660248383010111610138578160009260246020930183870137840101526107b6565b90606060031983011261013857600435916024356103be816102b9565b9160443567ffffffffffffffff9283821161013857806023830112156101385781600401359384116101385760248483010111610138576024019190565b346101385761040a366103a1565b6001600160a01b038392931690813b156101385761045d93604051928380927f8a91b0e30000000000000000000000000000000000000000000000000000000082528160009889968793600484016107d9565b03925af180156104e4576104b3575b50604080519384526001600160a01b03909116602084015290917f341347516a9de374859dfda710fa4828b2d48cb57d4fbe4c1149612b8e02276e91819081015b0390a180f35b916104de7f341347516a9de374859dfda710fa4828b2d48cb57d4fbe4c1149612b8e02276e936102e0565b9161046c565b610801565b34610138576104f7366103a1565b6001600160a01b038392931690813b156101385761054a93604051928380927f6d61fe700000000000000000000000000000000000000000000000000000000082528160009889968793600484016107d9565b03925af180156104e45761059e575b50604080519384526001600160a01b03909116602084015290917fd21d0b289f126c4b473ea641963e766833c2f13866e4ff480abd787c100ef12391819081016104ad565b916105c97fd21d0b289f126c4b473ea641963e766833c2f13866e4ff480abd787c100ef123936102e0565b91610559565b9092916040820191604081528451809352606081019260208096019060005b81811061060e5750505061060b93945060208184039101526101a8565b90565b82511515865294870194918701916001016105ee565b3461013857610632366100eb565b61063b81610758565b9161064582610740565b91604061065560405194856102f9565b81845261066182610740565b60209290601f1901368685013760005b818110610687576040518061026e8989836105cf565b806106b085610699600194868a6106e6565b80356106a4816102b9565b6101928883018361070d565b6106ba838b6107a2565b526106c582896107a2565b901515905201610671565b634e487b7160e01b600052603260045260246000fd5b91908110156107085760051b81013590605e1981360301821215610138570190565b6106d0565b903590601e1981360301821215610138570180359067ffffffffffffffff82116101385760200191813603831361013857565b67ffffffffffffffff81116102f45760051b60200190565b9061076282610740565b61076f60405191826102f9565b8281528092610780601f1991610740565b019060005b82811061079157505050565b806060602080938501015201610785565b80518210156107085760209160051b010190565b906000809160405193602082519201905afa3d6000833e6107d5573d90fd5b3d90f35b90918060409360208452816020850152848401376000828201840152601f01601f1916010190565b6040513d6000823e3d90fd5b9092600092819594604051968792833738935af11561083c573d82523d6000602084013e60203d830101604052565b503d6000823e3d90fd5b906000928491604051958692833738935af115913d82523d6000602084013e60203d83010160405256fea2646970667358221220db816abffe00ec7bcdf42ef422b077938fa7d65d91086b933027768eba11f62b64736f6c63430008170033",
  "devdoc": {
    "author": "rhinestone | zeroknots.eth, Konrad Kopp (@kopy-kat)",
    "details": "This contract is a Safe account implementation that supports ERC7579 operations.    In order to facilitate full ERC7579 compliance, the contract implements the IERC7579Account    interface. This contract is an implementation of a Safe account supporting ERC7579 operations and complying with the IERC7579Account interface. It serves as a Safe FallbackHandler and module for Safe accounts, incorporating complex hacks to ensure ERC7579 compliance and requiring interactions and event emissions to be done via the SafeProxy as msg.sender using Safe's \"executeTransactionFromModule\" features.",
    "kind": "dev",
    "methods": {
      "accountId()": {
        "details": "Returns the account id of the smart account",
        "returns": {
          "accountImplementationId": "the account id of the smart account the accountId should be structured like so:        \"vendorname.accountname.semver\""
        }
      },
      "execute(bytes32,bytes)": {
        "details": "Executes a transaction on behalf of the Safe account.         This function is intended to be called by ERC-4337 EntryPoint.solIf a global hook and/or selector hook is set, it will be calledAccessControl: only Self of Entrypoint can install modules Safe7579 supports the following feature set:    CallTypes:             - CALLTYPE_SINGLE             - CALLTYPE_BATCH             - CALLTYPE_DELEGATECALL    ExecTypes:             - EXECTYPE_DEFAULT (revert if not successful)             - EXECTYPE_TRY    If a different mode is selected, this function will revert",
        "params": {
          "executionCalldata": "The encoded execution call data",
          "mode": "The encoded execution mode of the transaction. See ModeLib.sol for details"
        }
      },
      "executeFromExecutor(bytes32,bytes)": {
        "details": "Executes a transaction on behalf of the Safe account.         This function is intended to be called by executor modulesIf a global hook and/or selector hook is set, it will be calledAccessControl: only enabled executor modules Safe7579 supports the following feature set:    CallTypes:             - CALLTYPE_SINGLE             - CALLTYPE_BATCH             - CALLTYPE_DELEGATECALL    ExecTypes:             - EXECTYPE_DEFAULT (revert if not successful)             - EXECTYPE_TRY    If a different mode is selected, this function will revert",
        "params": {
          "executionCalldata": "The encoded execution call data",
          "mode": "The encoded execution mode of the transaction. See ModeLib.sol for details"
        }
      },
      "getNonce(address,address)": {
        "params": {
          "safe": "address of safe account",
          "validator": "ERC7579 validator to encode"
        }
      },
      "initializeAccount((address,bytes)[],(address,bytes)[],(address,bytes)[],(address,bytes)[],(address,address[],uint8))": {
        "params": {
          "executors": "executor modules and initData",
          "fallbacks": "fallback modules and initData",
          "hooks": "hook module and initData",
          "registryInit": "(OPTIONAL) registry, attesters and threshold for IERC7484 Registry                    If not provided, the registry will be set to the zero address, and no                    registry checks will be performed",
          "validators": "validator modules and initData"
        }
      },
      "installModule(uint256,address,bytes)": {
        "details": "The module has to be initialized from msg.sender == SafeProxy, we thus use a    delegatecall to DCUtil, which calls the onInstall/onUninstall function on the ERC7579    module and emits the ModuleInstall/ModuleUnintall eventsAccessControl: only Self of Entrypoint can install modulesIf the safe set a registry, ERC7484 registry will be queried before installingIf a global hook and/or selector hook is set, it will be called",
        "params": {
          "initData": "arbitrary data that may be required on the module during `onInstall` initialization.",
          "module": "the module address",
          "moduleType": "the module type ID according the ERC-7579 spec                   Note: MULTITYPE_MODULE (uint(0)) is a special type to install a module with                         multiple types"
        }
      },
      "isModuleInstalled(uint256,address,bytes)": {
        "params": {
          "additionalContext": "additional context data that the smart account may interpret to                          identifiy conditions under which the module is installed.                          usually this is not necessary, but for some special hooks that                          are stored in mappings, this param might be needed",
          "module": "the module address",
          "moduleType": "the module type ID according the ERC-7579 spec      Note: keep in mind that some contracts can be multiple module types at the same time. It            thus may be necessary to query multiple module types"
        }
      },
      "isValidSignature(bytes32,bytes)": {
        "params": {
          "data": "abi.encodePacked(address validationModule, bytes signatures)",
          "hash": "message hash of ERC1271 request"
        }
      },
      "launchpadValidators((address,bytes)[])": {
        "details": "it will initialize the SentinelList4337 list for validators, and sstore all validatorsSince this function has to be 4337 compliant (storage access), only validator storage is  acccessNote: this function DOES NOT call onInstall() on the validator modules or emit ModuleInstalled events. this has to be done by the launchpad"
      },
      "supportsExecutionMode(bytes32)": {
        "params": {
          "encodedMode": "the encoded mode"
        }
      },
      "supportsModule(uint256)": {
        "params": {
          "moduleTypeId": "the module type ID according the ERC-7579 spec"
        }
      },
      "uninstallModule(uint256,address,bytes)": {
        "details": "The module has to be initialized from msg.sender == SafeProxy, we thus use a    delegatecall to DCUtil, which calls the onInstall/onUninstall function on the ERC7579    module and emits the ModuleInstall/ModuleUnintall eventsAccessControl: only Self of Entrypoint can install modulesIf a global hook and/or selector hook is set, it will be called",
        "params": {
          "deInitData": "arbitrary data that may be required on the module during `onUninstall` de-initialization.",
          "module": "the module address",
          "moduleType": "the module type ID according the ERC-7579 spec"
        }
      },
      "validateUserOp((address,uint256,bytes,bytes,bytes32,uint256,bytes32,bytes,bytes),bytes32,uint256)": {
        "details": "expects that a ERC7579 validator module is encoded within the UserOp nonce.         if no validator module is provided, it will fallback to validate the transaction with         Safe's signers"
      }
    },
    "title": "ERC7579 Adapter for Safe accounts. creates full ERC7579 compliance to Safe accounts",
    "version": 1
  },
  "userdoc": {
    "kind": "user",
    "methods": {
      "domainSeparator()": {
        "notice": "Domain Separator for EIP-712."
      },
      "getNonce(address,address)": {
        "notice": "Safe7579 is using validator selection encoding in the userop nonce. to make it easier for SDKs / devs to integrate, this function can be called to get the next nonce for a specific validator"
      },
      "getValidatorPaginated(address,uint256)": {
        "notice": "Get paginated list of installed validators"
      },
      "initializeAccount((address,bytes)[],(address,bytes)[],(address,bytes)[],(address,bytes)[],(address,address[],uint8))": {
        "notice": "This function can be called by the Launchpad.initSafe7579() or by already existing Safes that want to use Safe7579 if this is called by the Launchpad, it is expected that launchpadValidators() was called previously, and the param validators is empty"
      },
      "installModule(uint256,address,bytes)": {
        "notice": "Installs a 7579 Module of a certain type on the smart account"
      },
      "isModuleInstalled(uint256,address,bytes)": {
        "notice": "Function to check if the account has a certain module installed"
      },
      "isValidSignature(bytes32,bytes)": {
        "notice": "Will use Safe's signed messages or checkSignatures features or ERC7579 validation modules if no signature is provided, it makes use of Safe's signedMessages if address(0) or a non-installed validator module is provided, it will use Safe's checkSignatures if a valid validator module is provided, it will use the module's validateUserOp function"
      },
      "launchpadValidators((address,bytes)[])": {
        "notice": "This function is intended to be called by Launchpad.validateUserOp()"
      },
      "setRegistry(address,address[],uint8)": {
        "notice": "TODO:"
      },
      "supportsExecutionMode(bytes32)": {
        "notice": "Function to check if the account supports a certain CallType or ExecType (see ModeLib.sol)"
      },
      "supportsModule(uint256)": {
        "notice": "Function to check if the account supports installation of a certain module type Id"
      },
      "uninstallModule(uint256,address,bytes)": {
        "notice": "Uninstalls a Module of a certain type on the smart account."
      },
      "validateUserOp((address,uint256,bytes,bytes,bytes32,uint256,bytes32,bytes,bytes),bytes32,uint256)": {
        "notice": "ERC4337 v0.7 validation function"
      }
    },
    "version": 1
  },
  "storageLayout": {
    "storage": [
      {
        "astId": 4815,
        "contract": "contracts/safe7579/Safe7579.sol:Safe7579",
        "label": "UTIL",
        "offset": 0,
        "slot": "0",
        "type": "t_address"
      },
      {
        "astId": 4711,
        "contract": "contracts/safe7579/Safe7579.sol:Safe7579",
        "label": "$registry",
        "offset": 0,
        "slot": "1",
        "type": "t_mapping(t_address,t_contract(IERC7484)4956)"
      },
      {
        "astId": 3553,
        "contract": "contracts/safe7579/Safe7579.sol:Safe7579",
        "label": "$validators",
        "offset": 0,
        "slot": "2",
        "type": "t_struct(SentinelList)17461_storage"
      },
      {
        "astId": 3660,
        "contract": "contracts/safe7579/Safe7579.sol:Safe7579",
        "label": "$executorStorage",
        "offset": 0,
        "slot": "3",
        "type": "t_mapping(t_address,t_struct(SentinelList)17086_storage)"
      },
      {
        "astId": 3810,
        "contract": "contracts/safe7579/Safe7579.sol:Safe7579",
        "label": "$fallbackStorage",
        "offset": 0,
        "slot": "4",
        "type": "t_mapping(t_address,t_mapping(t_bytes4,t_struct(FallbackHandler)954_storage))"
      },
      {
        "astId": 4098,
        "contract": "contracts/safe7579/Safe7579.sol:Safe7579",
        "label": "$globalHook",
        "offset": 0,
        "slot": "5",
        "type": "t_mapping(t_address,t_address)"
      },
      {
        "astId": 4104,
        "contract": "contracts/safe7579/Safe7579.sol:Safe7579",
        "label": "$hookManager",
        "offset": 0,
        "slot": "6",
        "type": "t_mapping(t_address,t_mapping(t_bytes4,t_address))"
      }
    ],
    "types": {
      "t_address": {
        "encoding": "inplace",
        "label": "address",
        "numberOfBytes": "20"
      },
      "t_bytes4": {
        "encoding": "inplace",
        "label": "bytes4",
        "numberOfBytes": "4"
      },
      "t_contract(IERC7484)4956": {
        "encoding": "inplace",
        "label": "contract IERC7484",
        "numberOfBytes": "20"
      },
      "t_mapping(t_address,t_address)": {
        "encoding": "mapping",
        "key": "t_address",
        "label": "mapping(address => address)",
        "numberOfBytes": "32",
        "value": "t_address"
      },
      "t_mapping(t_address,t_contract(IERC7484)4956)": {
        "encoding": "mapping",
        "key": "t_address",
        "label": "mapping(address => contract IERC7484)",
        "numberOfBytes": "32",
        "value": "t_contract(IERC7484)4956"
      },
      "t_mapping(t_address,t_mapping(t_address,t_address))": {
        "encoding": "mapping",
        "key": "t_address",
        "label": "mapping(address => mapping(address => address))",
        "numberOfBytes": "32",
        "value": "t_mapping(t_address,t_address)"
      },
      "t_mapping(t_address,t_mapping(t_bytes4,t_address))": {
        "encoding": "mapping",
        "key": "t_address",
        "label": "mapping(address => mapping(bytes4 => address))",
        "numberOfBytes": "32",
        "value": "t_mapping(t_bytes4,t_address)"
      },
      "t_mapping(t_address,t_mapping(t_bytes4,t_struct(FallbackHandler)954_storage))": {
        "encoding": "mapping",
        "key": "t_address",
        "label": "mapping(address => mapping(bytes4 => struct FallbackHandler))",
        "numberOfBytes": "32",
        "value": "t_mapping(t_bytes4,t_struct(FallbackHandler)954_storage)"
      },
      "t_mapping(t_address,t_struct(SentinelList)17086_storage)": {
        "encoding": "mapping",
        "key": "t_address",
        "label": "mapping(address => struct SentinelListLib.SentinelList)",
        "numberOfBytes": "32",
        "value": "t_struct(SentinelList)17086_storage"
      },
      "t_mapping(t_bytes4,t_address)": {
        "encoding": "mapping",
        "key": "t_bytes4",
        "label": "mapping(bytes4 => address)",
        "numberOfBytes": "32",
        "value": "t_address"
      },
      "t_mapping(t_bytes4,t_struct(FallbackHandler)954_storage)": {
        "encoding": "mapping",
        "key": "t_bytes4",
        "label": "mapping(bytes4 => struct FallbackHandler)",
        "numberOfBytes": "32",
        "value": "t_struct(FallbackHandler)954_storage"
      },
      "t_struct(FallbackHandler)954_storage": {
        "encoding": "inplace",
        "label": "struct FallbackHandler",
        "members": [
          {
            "astId": 950,
            "contract": "contracts/safe7579/Safe7579.sol:Safe7579",
            "label": "handler",
            "offset": 0,
            "slot": "0",
            "type": "t_address"
          },
          {
            "astId": 953,
            "contract": "contracts/safe7579/Safe7579.sol:Safe7579",
            "label": "calltype",
            "offset": 20,
            "slot": "0",
            "type": "t_userDefinedValueType(CallType)5459"
          }
        ],
        "numberOfBytes": "32"
      },
      "t_struct(SentinelList)17086_storage": {
        "encoding": "inplace",
        "label": "struct SentinelListLib.SentinelList",
        "members": [
          {
            "astId": 17085,
            "contract": "contracts/safe7579/Safe7579.sol:Safe7579",
            "label": "entries",
            "offset": 0,
            "slot": "0",
            "type": "t_mapping(t_address,t_address)"
          }
        ],
        "numberOfBytes": "32"
      },
      "t_struct(SentinelList)17461_storage": {
        "encoding": "inplace",
        "label": "struct SentinelList4337Lib.SentinelList",
        "members": [
          {
            "astId": 17460,
            "contract": "contracts/safe7579/Safe7579.sol:Safe7579",
            "label": "entries",
            "offset": 0,
            "slot": "0",
            "type": "t_mapping(t_address,t_mapping(t_address,t_address))"
          }
        ],
        "numberOfBytes": "32"
      },
      "t_userDefinedValueType(CallType)5459": {
        "encoding": "inplace",
        "label": "CallType",
        "numberOfBytes": "1"
      }
    }
  }
}