{
  "_format": "hh-sol-artifact-1",
  "contractName": "MSAAdvanced",
  "sourceName": "erc7579/MSAAdvanced.sol",
  "abi": [
    {
      "inputs": [],
      "name": "AccountAccessUnauthorized",
      "type": "error"
    },
    {
      "inputs": [],
      "name": "AccountInitializationFailed",
      "type": "error"
    },
    {
      "inputs": [],
      "name": "CannotRemoveLastValidator",
      "type": "error"
    },
    {
      "inputs": [],
      "name": "ExecutionFailed",
      "type": "error"
    },
    {
      "inputs": [
        {
          "internalType": "address",
          "name": "currentHook",
          "type": "address"
        }
      ],
      "name": "HookAlreadyInstalled",
      "type": "error"
    },
    {
      "inputs": [],
      "name": "HookPostCheckFailed",
      "type": "error"
    },
    {
      "inputs": [
        {
          "internalType": "address",
          "name": "module",
          "type": "address"
        }
      ],
      "name": "InvalidModule",
      "type": "error"
    },
    {
      "inputs": [],
      "name": "LinkedList_AlreadyInitialized",
      "type": "error"
    },
    {
      "inputs": [
        {
          "internalType": "address",
          "name": "entry",
          "type": "address"
        }
      ],
      "name": "LinkedList_EntryAlreadyInList",
      "type": "error"
    },
    {
      "inputs": [
        {
          "internalType": "address",
          "name": "entry",
          "type": "address"
        }
      ],
      "name": "LinkedList_InvalidEntry",
      "type": "error"
    },
    {
      "inputs": [],
      "name": "LinkedList_InvalidPage",
      "type": "error"
    },
    {
      "inputs": [
        {
          "internalType": "uint256",
          "name": "moduleTypeId",
          "type": "uint256"
        }
      ],
      "name": "MismatchModuleTypeId",
      "type": "error"
    },
    {
      "inputs": [
        {
          "internalType": "bytes4",
          "name": "selector",
          "type": "bytes4"
        }
      ],
      "name": "NoFallbackHandler",
      "type": "error"
    },
    {
      "inputs": [
        {
          "internalType": "CallType",
          "name": "callType",
          "type": "bytes1"
        }
      ],
      "name": "UnsupportedCallType",
      "type": "error"
    },
    {
      "inputs": [
        {
          "internalType": "ExecType",
          "name": "execType",
          "type": "bytes1"
        }
      ],
      "name": "UnsupportedExecType",
      "type": "error"
    },
    {
      "inputs": [
        {
          "internalType": "uint256",
          "name": "moduleTypeId",
          "type": "uint256"
        }
      ],
      "name": "UnsupportedModuleType",
      "type": "error"
    },
    {
      "anonymous": false,
      "inputs": [
        {
          "indexed": false,
          "internalType": "uint256",
          "name": "moduleTypeId",
          "type": "uint256"
        },
        {
          "indexed": false,
          "internalType": "address",
          "name": "module",
          "type": "address"
        }
      ],
      "name": "ModuleInstalled",
      "type": "event"
    },
    {
      "anonymous": false,
      "inputs": [
        {
          "indexed": false,
          "internalType": "uint256",
          "name": "moduleTypeId",
          "type": "uint256"
        },
        {
          "indexed": false,
          "internalType": "address",
          "name": "module",
          "type": "address"
        }
      ],
      "name": "ModuleUninstalled",
      "type": "event"
    },
    {
      "anonymous": false,
      "inputs": [
        {
          "indexed": false,
          "internalType": "uint256",
          "name": "batchExecutionindex",
          "type": "uint256"
        },
        {
          "indexed": false,
          "internalType": "bytes",
          "name": "result",
          "type": "bytes"
        }
      ],
      "name": "TryExecuteUnsuccessful",
      "type": "event"
    },
    {
      "stateMutability": "payable",
      "type": "fallback"
    },
    {
      "inputs": [],
      "name": "accountId",
      "outputs": [
        {
          "internalType": "string",
          "name": "",
          "type": "string"
        }
      ],
      "stateMutability": "view",
      "type": "function"
    },
    {
      "inputs": [],
      "name": "entryPoint",
      "outputs": [
        {
          "internalType": "address",
          "name": "",
          "type": "address"
        }
      ],
      "stateMutability": "view",
      "type": "function"
    },
    {
      "inputs": [
        {
          "internalType": "ModeCode",
          "name": "mode",
          "type": "bytes32"
        },
        {
          "internalType": "bytes",
          "name": "executionCalldata",
          "type": "bytes"
        }
      ],
      "name": "execute",
      "outputs": [],
      "stateMutability": "payable",
      "type": "function"
    },
    {
      "inputs": [
        {
          "internalType": "ModeCode",
          "name": "mode",
          "type": "bytes32"
        },
        {
          "internalType": "bytes",
          "name": "executionCalldata",
          "type": "bytes"
        }
      ],
      "name": "executeFromExecutor",
      "outputs": [
        {
          "internalType": "bytes[]",
          "name": "returnData",
          "type": "bytes[]"
        }
      ],
      "stateMutability": "payable",
      "type": "function"
    },
    {
      "inputs": [
        {
          "components": [
            {
              "internalType": "address",
              "name": "sender",
              "type": "address"
            },
            {
              "internalType": "uint256",
              "name": "nonce",
              "type": "uint256"
            },
            {
              "internalType": "bytes",
              "name": "initCode",
              "type": "bytes"
            },
            {
              "internalType": "bytes",
              "name": "callData",
              "type": "bytes"
            },
            {
              "internalType": "bytes32",
              "name": "accountGasLimits",
              "type": "bytes32"
            },
            {
              "internalType": "uint256",
              "name": "preVerificationGas",
              "type": "uint256"
            },
            {
              "internalType": "bytes32",
              "name": "gasFees",
              "type": "bytes32"
            },
            {
              "internalType": "bytes",
              "name": "paymasterAndData",
              "type": "bytes"
            },
            {
              "internalType": "bytes",
              "name": "signature",
              "type": "bytes"
            }
          ],
          "internalType": "struct PackedUserOperation",
          "name": "userOp",
          "type": "tuple"
        },
        {
          "internalType": "bytes32",
          "name": "userOpHash",
          "type": "bytes32"
        }
      ],
      "name": "executeUserOp",
      "outputs": [],
      "stateMutability": "payable",
      "type": "function"
    },
    {
      "inputs": [
        {
          "internalType": "bytes4",
          "name": "functionSig",
          "type": "bytes4"
        }
      ],
      "name": "getActiveFallbackHandler",
      "outputs": [
        {
          "components": [
            {
              "internalType": "address",
              "name": "handler",
              "type": "address"
            },
            {
              "internalType": "CallType",
              "name": "calltype",
              "type": "bytes1"
            }
          ],
          "internalType": "struct ModuleManager.FallbackHandler",
          "name": "",
          "type": "tuple"
        }
      ],
      "stateMutability": "view",
      "type": "function"
    },
    {
      "inputs": [],
      "name": "getActiveHook",
      "outputs": [
        {
          "internalType": "address",
          "name": "hook",
          "type": "address"
        }
      ],
      "stateMutability": "view",
      "type": "function"
    },
    {
      "inputs": [
        {
          "internalType": "address",
          "name": "cursor",
          "type": "address"
        },
        {
          "internalType": "uint256",
          "name": "size",
          "type": "uint256"
        }
      ],
      "name": "getExecutorsPaginated",
      "outputs": [
        {
          "internalType": "address[]",
          "name": "array",
          "type": "address[]"
        },
        {
          "internalType": "address",
          "name": "next",
          "type": "address"
        }
      ],
      "stateMutability": "view",
      "type": "function"
    },
    {
      "inputs": [
        {
          "internalType": "address",
          "name": "cursor",
          "type": "address"
        },
        {
          "internalType": "uint256",
          "name": "size",
          "type": "uint256"
        }
      ],
      "name": "getValidatorPaginated",
      "outputs": [
        {
          "internalType": "address[]",
          "name": "array",
          "type": "address[]"
        },
        {
          "internalType": "address",
          "name": "next",
          "type": "address"
        }
      ],
      "stateMutability": "view",
      "type": "function"
    },
    {
      "inputs": [
        {
          "internalType": "bytes",
          "name": "data",
          "type": "bytes"
        }
      ],
      "name": "initializeAccount",
      "outputs": [],
      "stateMutability": "payable",
      "type": "function"
    },
    {
      "inputs": [
        {
          "internalType": "uint256",
          "name": "moduleTypeId",
          "type": "uint256"
        },
        {
          "internalType": "address",
          "name": "module",
          "type": "address"
        },
        {
          "internalType": "bytes",
          "name": "initData",
          "type": "bytes"
        }
      ],
      "name": "installModule",
      "outputs": [],
      "stateMutability": "payable",
      "type": "function"
    },
    {
      "inputs": [
        {
          "internalType": "uint256",
          "name": "moduleTypeId",
          "type": "uint256"
        },
        {
          "internalType": "address",
          "name": "module",
          "type": "address"
        },
        {
          "internalType": "bytes",
          "name": "additionalContext",
          "type": "bytes"
        }
      ],
      "name": "isModuleInstalled",
      "outputs": [
        {
          "internalType": "bool",
          "name": "",
          "type": "bool"
        }
      ],
      "stateMutability": "view",
      "type": "function"
    },
    {
      "inputs": [
        {
          "internalType": "bytes32",
          "name": "hash",
          "type": "bytes32"
        },
        {
          "internalType": "bytes",
          "name": "data",
          "type": "bytes"
        }
      ],
      "name": "isValidSignature",
      "outputs": [
        {
          "internalType": "bytes4",
          "name": "",
          "type": "bytes4"
        }
      ],
      "stateMutability": "view",
      "type": "function"
    },
    {
      "inputs": [
        {
          "internalType": "ModeCode",
          "name": "mode",
          "type": "bytes32"
        }
      ],
      "name": "supportsExecutionMode",
      "outputs": [
        {
          "internalType": "bool",
          "name": "isSupported",
          "type": "bool"
        }
      ],
      "stateMutability": "view",
      "type": "function"
    },
    {
      "inputs": [
        {
          "internalType": "uint256",
          "name": "modulTypeId",
          "type": "uint256"
        }
      ],
      "name": "supportsModule",
      "outputs": [
        {
          "internalType": "bool",
          "name": "",
          "type": "bool"
        }
      ],
      "stateMutability": "view",
      "type": "function"
    },
    {
      "inputs": [
        {
          "internalType": "uint256",
          "name": "moduleTypeId",
          "type": "uint256"
        },
        {
          "internalType": "address",
          "name": "module",
          "type": "address"
        },
        {
          "internalType": "bytes",
          "name": "deInitData",
          "type": "bytes"
        }
      ],
      "name": "uninstallModule",
      "outputs": [],
      "stateMutability": "payable",
      "type": "function"
    },
    {
      "inputs": [
        {
          "components": [
            {
              "internalType": "address",
              "name": "sender",
              "type": "address"
            },
            {
              "internalType": "uint256",
              "name": "nonce",
              "type": "uint256"
            },
            {
              "internalType": "bytes",
              "name": "initCode",
              "type": "bytes"
            },
            {
              "internalType": "bytes",
              "name": "callData",
              "type": "bytes"
            },
            {
              "internalType": "bytes32",
              "name": "accountGasLimits",
              "type": "bytes32"
            },
            {
              "internalType": "uint256",
              "name": "preVerificationGas",
              "type": "uint256"
            },
            {
              "internalType": "bytes32",
              "name": "gasFees",
              "type": "bytes32"
            },
            {
              "internalType": "bytes",
              "name": "paymasterAndData",
              "type": "bytes"
            },
            {
              "internalType": "bytes",
              "name": "signature",
              "type": "bytes"
            }
          ],
          "internalType": "struct PackedUserOperation",
          "name": "userOp",
          "type": "tuple"
        },
        {
          "internalType": "bytes32",
          "name": "userOpHash",
          "type": "bytes32"
        },
        {
          "internalType": "uint256",
          "name": "missingAccountFunds",
          "type": "uint256"
        }
      ],
      "name": "validateUserOp",
      "outputs": [
        {
          "internalType": "uint256",
          "name": "validSignature",
          "type": "uint256"
        }
      ],
      "stateMutability": "payable",
      "type": "function"
    },
    {
      "stateMutability": "payable",
      "type": "receive"
    }
  ],
  "bytecode": "0x60808060405234601557612c8b908161001b8239f35b600080fdfe6080604052600436101561001e575b361561001c5761001c611cc0565b005b60003560e01c80630a664dba1461012e578063112d3a7d146101295780631626ba7e1461012457806319822f7c1461011f5780634b6a14191461011a57806385571368146101155780638dd7712f146101105780639517e29f1461010b5780639cfd7cff14610106578063a71763a814610101578063b0d691fe146100fc578063d03c7914146100f7578063d691c964146100f2578063e9ae5c53146100ed578063ea5f61d0146100e8578063eac9b20d146100e35763f2dc691d0361000e57610f81565b610ed3565b610d7a565b610ca6565b610b65565b610ab3565b610a88565b6109b4565b610956565b6107e4565b610722565b61054a565b610413565b61038c565b61023b565b610215565b610143565b600091031261013e57565b600080fd5b3461013e57600036600319011261013e5760207f36e05829dd1b9a4411d96a3549582172d7f071c1c0db5c573fcf94eb28431608546001600160a01b0360405191168152f35b6001600160a01b0381160361013e57565b35906101a582610189565b565b9181601f8401121561013e5782359167ffffffffffffffff831161013e576020838186019501011161013e57565b606060031982011261013e57600435916024356101f181610189565b916044359067ffffffffffffffff821161013e57610211916004016101a7565b9091565b3461013e576020610231610228366101d5565b92919091610f9f565b6040519015158152f35b3461013e57604036600319011261013e5760243567ffffffffffffffff811161013e5761026c9036906004016101a7565b61028861028261027c838561102e565b906110a1565b60601c90565b9161029961029584612900565b1590565b61035c57916102ae826020936102f19561103c565b91906001600160a01b036040518096819582947ff551e2ee0000000000000000000000000000000000000000000000000000000084526004353360048601611175565b0392165afa80156103575761032491600091610328575b506040516001600160e01b031990911681529081906020820190565b0390f35b61034a915060203d602011610350575b610342818361111d565b81019061113f565b38610308565b503d610338565b61119a565b604051635c93ff2f60e11b81526001600160a01b0384166004820152602490fd5b908161012091031261013e5790565b606036600319011261013e5760043567ffffffffffffffff811161013e576103b890369060040161037d565b6044356f71727de22e5e9d8baf0edac6f37da032330361040257806103e2602093602435906111e7565b916103f1575b50604051908152f35b60009081803892335af150386103e8565b6004604051635629665f60e11b8152fd5b602036600319011261013e5760043567ffffffffffffffff811161013e5761043f9036906004016101a7565b9060009160018352600080516020612c16833981519152806020526001600160a01b0390816040862054166104c657849384936104a792600186526020526104976040862060016001600160a01b0319825416179055565b61049f612baa565b8101906113b1565b9160208351930191165af46104ba6113fa565b50156104c35780f35b80fd5b60046040517f53c85e66000000000000000000000000000000000000000000000000000000008152fd5b909291926040820190604083528051809252606083019160208092019160005b82811061052d57505050506001600160a01b036020919416910152565b83516001600160a01b031685529381019392810192600101610510565b3461013e57604036600319011261013e5760043561056781610189565b6001906000906001600160a01b0360243581831685141580610710575b6106ef5780156106c557806105d46105c761059f8894611e9f565b96956001600160a01b0316600052600080516020612c36833981519152602052604060002090565b546001600160a01b031690565b955b610632575b505083166001141580610629575b6105ff575b8152610324604051928392836104f0565b915061062361061661061084611efb565b8361191d565b516001600160a01b031690565b916105ee565b508015156105e9565b9092948281168481151591826106ba575b5050806106b1575b156106aa57906106a461069e6105c784610678889661066a8c8c61191d565b906001600160a01b03169052565b6001600160a01b0316600052600080516020612c36833981519152602052604060002090565b96611ee7565b936105d6565b94926105db565b5081861061064b565b141590508438610643565b60046040517ff7250817000000000000000000000000000000000000000000000000000000008152fd5b604051637c84ecfb60e01b81526001600160a01b0384166004820152602490fd5b5061071d61029584612900565b610584565b60031960403682011261013e57600490813567ffffffffffffffff811161013e57610750903690840161037d565b6f71727de22e5e9d8baf0edac6f37da03233036107d45780606061077592019061142a565b80841161013e576000928392604051928391878483019101833781018483820152030190305af46107a46113fa565b50156107ac57005b6040517facfdb444000000000000000000000000000000000000000000000000000000008152fd5b82604051635629665f60e11b8152fd5b6107ed366101d5565b916f71727de22e5e9d8baf0edac6f37da03233148015610905575b15610402577f36e05829dd1b9a4411d96a3549582172d7f071c1c0db5c573fcf94eb28431608546001600160a01b031693846108485761001c9450611522565b91936040519363d68f602560e01b855260009586868061086d363433600485016114bc565b038183875af193841561035757879687956108dd575b5061088f939495611522565b803b156108d9576108b691604051948580948193630b9dfbed60e11b8352600483016114f9565b03925af18015610357576108c657005b806108d361001c926110e8565b80610133565b5050fd5b61088f9495506108fe903d808a833e6108f6818361111d565b81019061145d565b9493610883565b50303314610808565b60005b8381106109215750506000910152565b8181015183820152602001610911565b9060209161094a8151809281855285808601910161090e565b601f01601f1916010190565b3461013e57600036600319011261013e5761032460405161097681611101565b601b81527f754d53412e616476616e6365642f77697468486f6f6b2e76302e3100000000006020820152604051918291602083526020830190610931565b6109bd366101d5565b916f71727de22e5e9d8baf0edac6f37da03233148015610a7f575b15610402577f36e05829dd1b9a4411d96a3549582172d7f071c1c0db5c573fcf94eb28431608546001600160a01b03169384610a185761001c9450611717565b91936040519363d68f602560e01b8552600095868680610a3d363433600485016114bc565b038183875af19384156103575787968795610a5f575b5061088f939495611717565b61088f949550610a78903d808a833e6108f6818361111d565b9493610a53565b503033146109d8565b3461013e57600036600319011261013e5760206040516f71727de22e5e9d8baf0edac6f37da0328152f35b3461013e57602036600319011261013e5760206102316004356117f3565b90604060031983011261013e57600435916024359067ffffffffffffffff821161013e57610211916004016101a7565b6020808201906020835283518092526040830192602060408460051b8301019501936000915b848310610b375750505050505090565b9091929394958480610b55600193603f198682030187528a51610931565b9801930193019194939290610b27565b610b6e36610ad1565b91610b7833612940565b15610c8f5760006001600160a01b037f36e05829dd1b9a4411d96a3549582172d7f071c1c0db5c573fcf94eb2843160854168015600014610bcf57505091610bc39161032493611949565b60405191829182610b01565b9193909260405163d68f602560e01b8152848180610bf2363433600485016114bc565b038183885af1948515610357578095610c6d575b5050610c13929394611949565b90803b1561013e57610c40600093918492604051958680948193630b9dfbed60e11b8352600483016114f9565b03925af19182156103575761032492610c5a575b50610bc3565b806108d3610c67926110e8565b38610c54565b610c1394955090610c87913d8091833e6108f6818361111d565b939238610c06565b6024604051635c93ff2f60e11b8152336004820152fd5b610caf36610ad1565b916f71727de22e5e9d8baf0edac6f37da03233148015610d71575b15610402577f36e05829dd1b9a4411d96a3549582172d7f071c1c0db5c573fcf94eb28431608546001600160a01b031680610d0b57509061001c9291611b58565b916040519263d68f602560e01b8452600094858580610d2f363433600485016114bc565b038183865af19283156103575786958694610d51575b5061088f929394611b58565b61088f939450610d6a903d8089833e6108f6818361111d565b9392610d45565b50303314610cca565b3461013e57604036600319011261013e57600435610d9781610189565b6001906000906001600160a01b0360243581831685141580610e97575b6106ef5780156106c55780610df76105c7610dcf8894611e9f565b96956001600160a01b0316600052600080516020612c16833981519152602052604060002090565b955b610e1f57505083166001141580610629576105ff578152610324604051928392836104f0565b909294828116848115159182610e8c575b505080610e83575b156106aa5790610e7d61069e6105c784610e57889661066a8c8c61191d565b6001600160a01b0316600052600080516020612c16833981519152602052604060002090565b93610df9565b50818610610e38565b141590508438610e30565b50610ea461029584612940565b610db4565b6001600160e01b031981160361013e57565b9081602091031261013e5735610ed081610ea9565b90565b3461013e57602036600319011261013e576040610f42600435610ef581610ea9565b600060208451610f0481611101565b82815201526001600160e01b0319166000527ff88ce1fdb7fb1cbd3282e49729100fa3f2d6ee9f797961fe4fb1871cea89ea04602052604060002090565b6020825191610f5083611101565b546001600160a01b038116928381526001600160f81b0319928391019160581b168152835192835251166020820152f35b3461013e57602036600319011261013e576020610231600435611c8a565b90929060018103610fb657505050610ed090612900565b60028103610fca57505050610ed090612940565b60038103610fe9575081610fe491610ed094930190610ebb565b611e4f565b6004141591506110289050577f36e05829dd1b9a4411d96a3549582172d7f071c1c0db5c573fcf94eb28431608546001600160a01b0390811691161490565b50600090565b9060141161013e5790601490565b909291928360141161013e57831161013e57601401916013190190565b9060041161013e5790600490565b909291928360051161013e57831161013e57600501916004190190565b909291928360041161013e57831161013e57600401916003190190565b6bffffffffffffffffffffffff1990358181169392601481106110c357505050565b60140360031b82901b16169150565b634e487b7160e01b600052604160045260246000fd5b67ffffffffffffffff81116110fc57604052565b6110d2565b6040810190811067ffffffffffffffff8211176110fc57604052565b90601f8019910116810190811067ffffffffffffffff8211176110fc57604052565b9081602091031261013e5751610ed081610ea9565b908060209392818452848401376000828201840152601f01601f1916010190565b610ed094926001600160a01b0360609316825260208201528160408201520191611154565b6040513d6000823e3d90fd5b9081602091031261013e575190565b9035601e198236030181121561013e57016020813591019167ffffffffffffffff821161013e57813603831361013e57565b60208101358060601c6111f981612900565b1561134857602092600061130393604051968795869485937f97003203000000000000000000000000000000000000000000000000000000008552604060048601526112586044860161124b8461019a565b6001600160a01b03169052565b606485015261128061126d60408301836111b5565b6101206084880152610164870191611154565b6112f36112e76112aa61129660608601866111b5565b6043198a8703810160a48c01529591611154565b608085013560c489015260a085013560e489015260c08501356101048901526112d660e08601866111b5565b90858a8403016101248b0152611154565b926101008101906111b5565b9186840301610144870152611154565b90602483015203925af19081156103575760009161131f575090565b610ed0915060203d602011611341575b611339818361111d565b8101906111a6565b503d61132f565b50505050600190565b604051906101a582611101565b67ffffffffffffffff81116110fc57601f01601f191660200190565b9291926113868261135e565b91611394604051938461111d565b82948184528183011161013e578281602093846000960137010152565b919060408382031261013e5782356113c881610189565b9260208101359067ffffffffffffffff821161013e57019080601f8301121561013e57816020610ed09335910161137a565b3d15611425573d9061140b8261135e565b91611419604051938461111d565b82523d6000602084013e565b606090565b903590601e198136030182121561013e570180359067ffffffffffffffff821161013e5760200191813603831361013e57565b60208183031261013e5780519067ffffffffffffffff821161013e570181601f8201121561013e5780516114908161135e565b9261149e604051948561111d565b8184526020828401011161013e57610ed0916020808501910161090e565b916001600160a01b0360809492168352602083015260606040830152806060830152806000848401376000828201840152601f01601f1916010190565b906020610ed0928181520190610931565b9081602091031261013e5751801515810361013e5790565b939290916040517fecd059610000000000000000000000000000000000000000000000000000000081526020818061156289600483019190602083019252565b03816001600160a01b0388165afa908115610357576000916116e8575b50156116b657600185036115dd577fd21d0b289f126c4b473ea641963e766833c2f13866e4ff480abd787c100ef1239394916115bb91846123b0565b604080519182526001600160a01b03909216602082015290819081015b0390a1565b60028503611618577fd21d0b289f126c4b473ea641963e766833c2f13866e4ff480abd787c100ef12393949161161391846121f7565b6115bb565b6003850361164e577fd21d0b289f126c4b473ea641963e766833c2f13866e4ff480abd787c100ef1239394916116139184612014565b60048503611684577fd21d0b289f126c4b473ea641963e766833c2f13866e4ff480abd787c100ef1239394916116139184611f1b565b6040517f41c38b3000000000000000000000000000000000000000000000000000000000815260048101869052602490fd5b6040517fd393448a00000000000000000000000000000000000000000000000000000000815260048101869052602490fd5b61170a915060203d602011611710575b611702818361111d565b81019061150a565b3861157f565b503d6116f8565b9392909160018503611751577f341347516a9de374859dfda710fa4828b2d48cb57d4fbe4c1149612b8e02276e9394916115bb9184612833565b60028503611787577f341347516a9de374859dfda710fa4828b2d48cb57d4fbe4c1149612b8e02276e939491611613918461270c565b600385036117bd577f341347516a9de374859dfda710fa4828b2d48cb57d4fbe4c1149612b8e02276e9394916116139184612517565b60048503611684577f341347516a9de374859dfda710fa4828b2d48cb57d4fbe4c1149612b8e02276e93949161161391846124b5565b611807818060081b918160301b9160501b90565b5050906001600160f81b03198091169181600160f81b93848103611844575b50501680611835575050600190565b0361183f57600190565b600090565b80156118265703611856578138611826565b505050600090565b67ffffffffffffffff81116110fc5760051b60200190565b60405161188281611101565b600181528060005b6020808210156118a55790606060209282850101520161188a565b50505090565b906118b58261185e565b6118c2604051918261111d565b82815280926118d3601f199161185e565b019060005b8281106118e457505050565b8060606020809385010152016118d8565b634e487b7160e01b600052603260045260246000fd5b8051156119185760200190565b6118f5565b80518210156119185760209160051b010190565b906040610ed092600081528160208201520190610931565b600881901b9391600160f81b916001600160f81b031991906060908381168085016119cf5750505061198691929394508035019060208201913590565b92909185168061199d575050610ed0929350612b3c565b036119ad57610ed0929350612a7f565b6040516308c3ee0360e11b81526001600160f81b031985166004820152602490fd5b93969380611a9757505050906119e4916129dd565b936119f0939193611876565b96881680611a1c575050611a0694959650612a2e565b611a0f8361190b565b52611a198261190b565b50565b03611a7557611a2d94959650612a05565b611a368461190b565b526101a5577fe723f28f104e46b47fd3531f3608374ac226bcf3ddda334a23a266453e0efdb76115d8611a688461190b565b5160405191829182611931565b6040516308c3ee0360e11b81526001600160f81b031988166004820152602490fd5b919693918403611b1b57508080611ac6611aba61028261027c611acc968861102e565b6001600160a01b031690565b9361103c565b939092871680611ae4575050611a19939495506129a7565b03611af957611af593949550612980565b5050565b6040516308c3ee0360e11b81526001600160f81b031987166004820152602490fd5b6040517fb96fcfe40000000000000000000000000000000000000000000000000000000081526001600160f81b0319919091166004820152602490fd5b600881901b9392600160f81b926001600160f81b03199290919083808216808201611bb95750505050611b92908035019060208201913590565b929091851680611ba9575050611a19929350612b3c565b036119ad57611a19929350612a7f565b80611bf457505050611bca916129dd565b949093919291871680611be4575050611a19949550612a2e565b03611af957611af5949550612a05565b03611b1b57508080611ac6611aba61028261027c611c12968861102e565b939092861680611c29575050611a199394506129a7565b03611c3957611af5939450612980565b6040516308c3ee0360e11b81526001600160f81b031986166004820152602490fd5b90604051611c6881611101565b91546001600160a01b038116835260581b6001600160f81b0319166020830152565b60018103611c985750600190565b60028103611ca65750600190565b60038103611cb45750600190565b60040361183f57600190565b600080358060e01c63bc197c81811463f23a6e6182141763150b7a02821417611e4657506001600160e01b03191660008181527ff88ce1fdb7fb1cbd3282e49729100fa3f2d6ee9f797961fe4fb1871cea89ea046020526040902054906001600160f81b03196001600160a01b0383169260581b16908215611e0957507ffe000000000000000000000000000000000000000000000000000000000000008114611dc45715611d6d575050565b818091611d803690604051918201604052565b36838237611d946040519060148201604052565b3360601b90528260143601925af1611db23d90604051918201604052565b913d90833e15611dc0573d90f35b3d90fd5b50818091611dd83690604051918201604052565b36838237611dec6040519060148201604052565b3360601b905260143601915afa611db23d90604051918201604052565b6040517f48c9ceda0000000000000000000000000000000000000000000000000000000081526001600160e01b0319919091166004820152602490fd5b6020526020603cf35b611e97906001600160a01b039182916001600160e01b0319166000527ff88ce1fdb7fb1cbd3282e49729100fa3f2d6ee9f797961fe4fb1871cea89ea04602052604060002090565b541691161490565b90611ea98261185e565b611eb6604051918261111d565b8281528092611ec7601f199161185e565b0190602036910137565b634e487b7160e01b600052601160045260246000fd5b6000198114611ef65760010190565b611ed1565b600019810191908211611ef657565b916020610ed0938181520191611154565b9190916001600160a01b03907f36e05829dd1b9a4411d96a3549582172d7f071c1c0db5c573fcf94eb284316088281541680611fa857508190551691823b1561013e57611f8a92600092836040518096819582946306d61fe760e41b8452602060048501526024840191611154565b03925af1801561035757611f9b5750565b806108d36101a5926110e8565b602490604051907f741cbe030000000000000000000000000000000000000000000000000000000082526004820152fd5b6001600160e01b03199035818116939260048110611ff657505050565b60040360031b82901b16169150565b90600410156119185760040190565b61206761206061202d6120278686611059565b90611fd9565b948061205a61204d61203f8389612005565b356001600160f81b03191690565b6001600160f81b03191690565b95611067565b369161137a565b926001600160a01b0392836120af836001600160e01b0319166000527ff88ce1fdb7fb1cbd3282e49729100fa3f2d6ee9f797961fe4fb1871cea89ea04602052604060002090565b54166121b25761211e612185926120e56120c7611351565b6001600160a01b0387168152936001600160f81b0319166020850152565b6001600160e01b0319166000527ff88ce1fdb7fb1cbd3282e49729100fa3f2d6ee9f797961fe4fb1871cea89ea04602052604060002090565b815181546001600160a01b0319166001600160a01b039190911617815590602001517fffffffffffffffffffffff00ffffffffffffffffffffffffffffffffffffffff74ff000000000000000000000000000000000000000083549260581c169116179055565b16803b1561013e57611f8a6000929183926040519485809481936306d61fe760e41b8352600483016114f9565b60405162461bcd60e51b815260206004820152601e60248201527f46756e6374696f6e2073656c6563746f7220616c7265616479207573656400006044820152606490fd5b916001600160a01b03831692831580156123a6575b61238e57612240611aba6105c7836001600160a01b0316600052600080516020612c16833981519152602052604060002090565b612352576001600052600080516020612c1683398151915260205261230d906122d061228b7ff599f677901b372c86416e614fc87c5db3b6d91d0e22ab04aaaf537207065e996105c7565b6122b5836001600160a01b0316600052600080516020612c16833981519152602052604060002090565b906001600160a01b03166001600160a01b0319825416179055565b6001600052600080516020612c168339815191526020527ff599f677901b372c86416e614fc87c5db3b6d91d0e22ab04aaaf537207065e996122b5565b823b1561013e5761233892600092836040518096819582946306d61fe760e41b845260048401611f0a565b03925af18015610357576123495750565b6101a5906110e8565b6040517f40d3d1a40000000000000000000000000000000000000000000000000000000081526001600160a01b03919091166004820152602490fd5b60248460405190637c84ecfb60e01b82526004820152fd5b506001841461220c565b916001600160a01b03831692831580156124ab575b61238e576123f9611aba6105c7836001600160a01b0316600052600080516020612c36833981519152602052604060002090565b612352576001600052600080516020612c3683398151915260205261230d9061246e6124447f643a0023cfcea778bfa72ce77c7e63d8b140a6542bf3f6edb59a96ccce28ad866105c7565b6122b5836001600160a01b0316600052600080516020612c36833981519152602052604060002090565b6001600052600080516020612c368339815191526020527f643a0023cfcea778bfa72ce77c7e63d8b140a6542bf3f6edb59a96ccce28ad866122b5565b50600184146123c5565b60007f36e05829dd1b9a4411d96a3549582172d7f071c1c0db5c573fcf94eb28431608556001600160a01b03169190823b1561013e576123389260009283604051809681958294638a91b0e360e01b8452602060048501526024840191611154565b9091612060612534918061252e6120278288611059565b95611084565b6001600160a01b03916125848361257e866001600160e01b0319166000527ff88ce1fdb7fb1cbd3282e49729100fa3f2d6ee9f797961fe4fb1871cea89ea04602052604060002090565b54161590565b6126c757826125d16106166125cc876001600160e01b0319166000527ff88ce1fdb7fb1cbd3282e49729100fa3f2d6ee9f797961fe4fb1871cea89ea04602052604060002090565b611c5b565b9116928391160361265c5761262f6125e7611351565b61211e6000958683528660208401526001600160e01b0319166000527ff88ce1fdb7fb1cbd3282e49729100fa3f2d6ee9f797961fe4fb1871cea89ea04602052604060002090565b813b15612658578291611f8a91604051948580948193638a91b0e360e01b8352600483016114f9565b8280fd5b60405162461bcd60e51b815260206004820152602a60248201527f46756e6374696f6e2073656c6563746f72206e6f74207573656420627920746860448201527f69732068616e646c6572000000000000000000000000000000000000000000006064820152608490fd5b60405162461bcd60e51b815260206004820152601a60248201527f46756e6374696f6e2073656c6563746f72206e6f7420757365640000000000006044820152606490fd5b919061271a918101906113b1565b6001600160a01b03918216929182169182158015612829575b61238e57600093808552600080516020612c1683398151915260205283612768611aba604088206001600160a01b0390541690565b036128085781610e576127cf926122b56127a86105c76127df976001600160a01b0316600052600080516020612c16833981519152602052604060002090565b916001600160a01b0316600052600080516020612c16833981519152602052604060002090565b6001600160a01b03198154169055565b813b1561265857829161233891604051948580948193638a91b0e360e01b8352600483016114f9565b604051637c84ecfb60e01b81526001600160a01b0383166004820152602490fd5b5060018314612733565b9190612841918101906113b1565b6001600160a01b039182169291821691821580156128f6575b61238e57600093808552600080516020612c368339815191526020528361288f611aba604088206001600160a01b0390541690565b0361280857816106786127cf926122b56128cf6105c76127df976001600160a01b0316600052600080516020612c36833981519152602052604060002090565b916001600160a01b0316600052600080516020612c36833981519152602052604060002090565b506001831461285a565b6001600160a01b03809116908160011415918261291c57505090565b909150600052600080516020612c3683398151915260205260406000205416151590565b6001600160a01b03809116908160011415918261295c57505090565b909150600052600080516020612c1683398151915260205260406000205416151590565b60009192806040519485378338925af4913d82523d6000602084013e60203d830101604052565b6000919392806040519586378438925af4156129d3573d82523d6000602084013e60203d830101604052565b503d6000823e3d90fd5b908060141161013e57813560601c928160341161013e57601483013592603401916033190190565b906000928491604051958692833738935af1913d82523d6000602084013e60203d830101604052565b9092600092819594604051968792833738935af1156129d3573d82523d6000602084013e60203d830101604052565b91908110156119185760051b81013590605e198136030182121561013e570190565b919091612a8b836118ab565b9260005b818110612a9b57505050565b80612aa96001928486612a5d565b8035612ab481610189565b612ad560208093604093612aca8583018361142a565b939092013590612a05565b612adf858b61191d565b5215612aee575b505001612a8f565b7fe723f28f104e46b47fd3531f3608374ac226bcf3ddda334a23a266453e0efdb791612b32612b1d858b61191d565b51838051948594888652850152830190610931565b0390a13880612ae6565b919091612b48836118ab565b9260005b818110612b5857505050565b80612b8e6020612b6b6001948688612a5d565b8035612b7681610189565b612b83604083018361142a565b939092013590612a2e565b612b98828861191d565b52612ba3818761191d565b5001612b4c565b6001600052600080516020612c3683398151915260208190527f643a0023cfcea778bfa72ce77c7e63d8b140a6542bf3f6edb59a96ccce28ad86546001600160a01b03166104c65760016000526020526101a5604060002060016001600160a01b031982541617905556fef88ce1fdb7fb1cbd3282e49729100fa3f2d6ee9f797961fe4fb1871cea89ea03f88ce1fdb7fb1cbd3282e49729100fa3f2d6ee9f797961fe4fb1871cea89ea02a2646970667358221220fbe222da3c214c4bcca3c43f07f02163645e76ba7f0eae0b7439ec85ff42883964736f6c63430008190033",
  "linkReferences": {},
  "deployedLinkReferences": {}
}