{
  "_format": "hh-sol-artifact-1",
  "contractName": "UniswapV3Integration",
  "sourceName": "modulekit/integrations/uniswap/v3/Uniswap.sol",
  "abi": [
    {
      "inputs": [],
      "name": "PoolDoesNotExist",
      "type": "error"
    },
    {
      "inputs": [
        {
          "internalType": "address",
          "name": "token0",
          "type": "address"
        },
        {
          "internalType": "address",
          "name": "token1",
          "type": "address"
        }
      ],
      "name": "getPoolAddress",
      "outputs": [
        {
          "internalType": "address",
          "name": "poolAddress",
          "type": "address"
        }
      ],
      "stateMutability": "view",
      "type": "function"
    },
    {
      "inputs": [
        {
          "internalType": "address",
          "name": "poolAddress",
          "type": "address"
        }
      ],
      "name": "getSqrtPriceX96",
      "outputs": [
        {
          "internalType": "uint160",
          "name": "sqrtPriceX96",
          "type": "uint160"
        }
      ],
      "stateMutability": "view",
      "type": "function"
    }
  ],
  "bytecode": "0x6080806040523460195761036f908161001f823930815050f35b600080fdfe60806040818152600436101561001457600080fd5b60009160e0908335821c9081633fa1e0c8146101a1575063d098d3201461003a57600080fd5b602036600319011261019d57600473ffffffffffffffffffffffffffffffffffffffff9180836100686102ca565b168551938480927f3850c7bd0000000000000000000000000000000000000000000000000000000082525afa9182156101935785926100b1575b50506020935051169051908152f35b9080925081813d831161018c575b6100c981836102f2565b8101031261017057835191820182811067ffffffffffffffff8211176101785784528051838116810361017457825260208101518060020b810361017457602083015261011784820161032a565b848301526101276060820161032a565b60608301526101386080820161032a565b608083015260a08101519060ff821682036101745760c09160a084015201518015158103610170576020945060c082015238806100a2565b8480fd5b8580fd5b602486634e487b7160e01b81526041600452fd5b503d6100bf565b84513d87823e3d90fd5b8280fd5b848491826003193601126102b2576101b76102ca565b9160243573ffffffffffffffffffffffffffffffffffffffff9384821680920361019d577f1698ee82000000000000000000000000000000000000000000000000000000008452841660048401526024830152610bb86044830152602082606481731f98431c8ad98523631ae4a59f267346ea31f9845afa9182156102be578192610278575b505016801561024f5760209151908152f35b600482517f9c8787c0000000000000000000000000000000000000000000000000000000008152fd5b9091506020813d6020116102b6575b81610294602093836102f2565b810103126102b257519082821682036102af5750838061023d565b80fd5b5080fd5b3d9150610287565b508351903d90823e3d90fd5b6004359073ffffffffffffffffffffffffffffffffffffffff821682036102ed57565b600080fd5b90601f8019910116810190811067ffffffffffffffff82111761031457604052565b634e487b7160e01b600052604160045260246000fd5b519061ffff821682036102ed5756fea2646970667358221220288f94d4112e9f523a64324c61b5c056fe731a93079619b108fabc61d4ab4c0664736f6c63430008190033",
  "linkReferences": {},
  "deployedLinkReferences": {}
}