{
  "address": "0x7B21BBDBdE8D01Df591fdc2dc0bE9956Dde1e16C",
  "abi": [
    {
      "inputs": [],
      "stateMutability": "nonpayable",
      "type": "constructor"
    },
    {
      "inputs": [
        {
          "internalType": "bytes",
          "name": "transactions",
          "type": "bytes"
        }
      ],
      "name": "multiSend",
      "outputs": [],
      "stateMutability": "payable",
      "type": "function"
    }
  ],
  "transactionHash": "0xd00b8f64eb2a4de02807900b40d824013964e522b820ebe94eb2d91fc9a754e2",
  "args": [],
  "numDeployments": 1,
  "bytecode": "0x60a060405234801561001057600080fd5b503073ffffffffffffffffffffffffffffffffffffffff1660808173ffffffffffffffffffffffffffffffffffffffff1660601b8152505060805160601c6102756100646000398060e052506102756000f3fe60806040526004361061001e5760003560e01c80638d80ff0a14610023575b600080fd5b6100dc6004803603602081101561003957600080fd5b810190808035906020019064010000000081111561005657600080fd5b82018360208201111561006857600080fd5b8035906020019184600183028401116401000000008311171561008a57600080fd5b91908080601f016020809104026020016040519081016040528093929190818152602001838380828437600081840152601f19601f8201169050808301925050505050505091929192905050506100de565b005b7f000000000000000000000000000000000000000000000000000000000000000073ffffffffffffffffffffffffffffffffffffffff163073ffffffffffffffffffffffffffffffffffffffff161415610183576040517f08c379a00000000000000000000000000000000000000000000000000000000081526004018080602001828103825260308152602001806102106030913960400191505060405180910390fd5b805160205b8181101561020a578083015160f81c6001820184015160601c6015830185015160358401860151605585018701600085600081146101cd57600181146101dd576101e8565b6000808585888a5af191506101e8565b6000808585895af491505b5060008114156101f757600080fd5b8260550187019650505050505050610188565b50505056fe4d756c746953656e642073686f756c64206f6e6c792062652063616c6c6564207669612064656c656761746563616c6ca264697066735822122021102e6d5bc1da75411b41fe2792a1748bf5c49c794e51e81405ccd2399da13564736f6c63430007060033"
}