{
  "address": "0xa128f9A221c8A0fC13eC23525511ee1448402eBf",
  "abi": [
    {
      "inputs": [
        {
          "internalType": "address",
          "name": "smartAccount",
          "type": "address"
        }
      ],
      "name": "AlreadyInitialized",
      "type": "error"
    },
    {
      "inputs": [],
      "name": "ExecutionFailed",
      "type": "error"
    },
    {
      "inputs": [
        {
          "internalType": "address",
          "name": "smartAccount",
          "type": "address"
        }
      ],
      "name": "NotInitialized",
      "type": "error"
    },
    {
      "inputs": [
        {
          "internalType": "address",
          "name": "session",
          "type": "address"
        }
      ],
      "name": "SessionKeyDoesNotExist",
      "type": "error"
    },
    {
      "anonymous": false,
      "inputs": [
        {
          "indexed": true,
          "internalType": "address",
          "name": "sessionKey",
          "type": "address"
        },
        {
          "indexed": true,
          "internalType": "address",
          "name": "account",
          "type": "address"
        }
      ],
      "name": "SessionKeyActive",
      "type": "event"
    },
    {
      "anonymous": false,
      "inputs": [
        {
          "indexed": true,
          "internalType": "address",
          "name": "sessionKey",
          "type": "address"
        },
        {
          "indexed": true,
          "internalType": "address",
          "name": "account",
          "type": "address"
        }
      ],
      "name": "SessionKeyAdded",
      "type": "event"
    },
    {
      "anonymous": false,
      "inputs": [
        {
          "indexed": true,
          "internalType": "address",
          "name": "sessionKey",
          "type": "address"
        },
        {
          "indexed": true,
          "internalType": "address",
          "name": "account",
          "type": "address"
        }
      ],
      "name": "SessionKeyDisabled",
      "type": "event"
    },
    {
      "anonymous": false,
      "inputs": [
        {
          "indexed": true,
          "internalType": "address",
          "name": "sessionKey",
          "type": "address"
        },
        {
          "indexed": true,
          "internalType": "address",
          "name": "account",
          "type": "address"
        }
      ],
      "name": "SessionKeyInactive",
      "type": "event"
    },
    {
      "inputs": [
        {
          "internalType": "address",
          "name": "_session",
          "type": "address"
        }
      ],
      "name": "disableSessionKey",
      "outputs": [],
      "stateMutability": "nonpayable",
      "type": "function"
    },
    {
      "inputs": [
        {
          "internalType": "address",
          "name": "sessionKey",
          "type": "address"
        },
        {
          "components": [
            {
              "internalType": "address",
              "name": "target",
              "type": "address"
            },
            {
              "internalType": "bytes4",
              "name": "funcSelector",
              "type": "bytes4"
            },
            {
              "internalType": "uint48",
              "name": "validAfter",
              "type": "uint48"
            },
            {
              "internalType": "uint48",
              "name": "validUntil",
              "type": "uint48"
            },
            {
              "internalType": "bool",
              "name": "active",
              "type": "bool"
            }
          ],
          "internalType": "struct SessionValidator.SessionData",
          "name": "sessionData",
          "type": "tuple"
        }
      ],
      "name": "enableSessionKey",
      "outputs": [],
      "stateMutability": "nonpayable",
      "type": "function"
    },
    {
      "inputs": [
        {
          "internalType": "address",
          "name": "sessionKey",
          "type": "address"
        }
      ],
      "name": "getSessionData",
      "outputs": [
        {
          "components": [
            {
              "internalType": "address",
              "name": "target",
              "type": "address"
            },
            {
              "internalType": "bytes4",
              "name": "funcSelector",
              "type": "bytes4"
            },
            {
              "internalType": "uint48",
              "name": "validAfter",
              "type": "uint48"
            },
            {
              "internalType": "uint48",
              "name": "validUntil",
              "type": "uint48"
            },
            {
              "internalType": "bool",
              "name": "active",
              "type": "bool"
            }
          ],
          "internalType": "struct SessionValidator.SessionData",
          "name": "",
          "type": "tuple"
        }
      ],
      "stateMutability": "view",
      "type": "function"
    },
    {
      "inputs": [
        {
          "internalType": "address",
          "name": "smartAccount",
          "type": "address"
        }
      ],
      "name": "isInitialized",
      "outputs": [
        {
          "internalType": "bool",
          "name": "",
          "type": "bool"
        }
      ],
      "stateMutability": "view",
      "type": "function"
    },
    {
      "inputs": [
        {
          "internalType": "uint256",
          "name": "typeID",
          "type": "uint256"
        }
      ],
      "name": "isModuleType",
      "outputs": [
        {
          "internalType": "bool",
          "name": "",
          "type": "bool"
        }
      ],
      "stateMutability": "pure",
      "type": "function"
    },
    {
      "inputs": [
        {
          "internalType": "address",
          "name": "_sessionKey",
          "type": "address"
        }
      ],
      "name": "isSessionKeyActive",
      "outputs": [
        {
          "internalType": "bool",
          "name": "",
          "type": "bool"
        }
      ],
      "stateMutability": "view",
      "type": "function"
    },
    {
      "inputs": [
        {
          "internalType": "address",
          "name": "",
          "type": "address"
        },
        {
          "internalType": "bytes32",
          "name": "hash",
          "type": "bytes32"
        },
        {
          "internalType": "bytes",
          "name": "data",
          "type": "bytes"
        }
      ],
      "name": "isValidSignatureWithSender",
      "outputs": [
        {
          "internalType": "bytes4",
          "name": "",
          "type": "bytes4"
        }
      ],
      "stateMutability": "view",
      "type": "function"
    },
    {
      "inputs": [],
      "name": "name",
      "outputs": [
        {
          "internalType": "string",
          "name": "",
          "type": "string"
        }
      ],
      "stateMutability": "pure",
      "type": "function"
    },
    {
      "inputs": [
        {
          "internalType": "bytes",
          "name": "data",
          "type": "bytes"
        }
      ],
      "name": "onInstall",
      "outputs": [],
      "stateMutability": "nonpayable",
      "type": "function"
    },
    {
      "inputs": [
        {
          "internalType": "bytes",
          "name": "",
          "type": "bytes"
        }
      ],
      "name": "onUninstall",
      "outputs": [],
      "stateMutability": "nonpayable",
      "type": "function"
    },
    {
      "inputs": [
        {
          "internalType": "address",
          "name": "",
          "type": "address"
        },
        {
          "internalType": "address",
          "name": "",
          "type": "address"
        }
      ],
      "name": "sessionKeyData",
      "outputs": [
        {
          "internalType": "address",
          "name": "target",
          "type": "address"
        },
        {
          "internalType": "bytes4",
          "name": "funcSelector",
          "type": "bytes4"
        },
        {
          "internalType": "uint48",
          "name": "validAfter",
          "type": "uint48"
        },
        {
          "internalType": "uint48",
          "name": "validUntil",
          "type": "uint48"
        },
        {
          "internalType": "bool",
          "name": "active",
          "type": "bool"
        }
      ],
      "stateMutability": "view",
      "type": "function"
    },
    {
      "inputs": [
        {
          "internalType": "address",
          "name": "",
          "type": "address"
        },
        {
          "internalType": "uint256",
          "name": "",
          "type": "uint256"
        }
      ],
      "name": "sessionKeyList",
      "outputs": [
        {
          "internalType": "address",
          "name": "",
          "type": "address"
        }
      ],
      "stateMutability": "view",
      "type": "function"
    },
    {
      "inputs": [
        {
          "internalType": "address",
          "name": "_sessionKey",
          "type": "address"
        }
      ],
      "name": "toggleSessionKeyActive",
      "outputs": [],
      "stateMutability": "nonpayable",
      "type": "function"
    },
    {
      "inputs": [
        {
          "internalType": "address",
          "name": "_sessionKey",
          "type": "address"
        },
        {
          "components": [
            {
              "internalType": "address",
              "name": "sender",
              "type": "address"
            },
            {
              "internalType": "uint256",
              "name": "nonce",
              "type": "uint256"
            },
            {
              "internalType": "bytes",
              "name": "initCode",
              "type": "bytes"
            },
            {
              "internalType": "bytes",
              "name": "callData",
              "type": "bytes"
            },
            {
              "internalType": "bytes32",
              "name": "accountGasLimits",
              "type": "bytes32"
            },
            {
              "internalType": "uint256",
              "name": "preVerificationGas",
              "type": "uint256"
            },
            {
              "internalType": "bytes32",
              "name": "gasFees",
              "type": "bytes32"
            },
            {
              "internalType": "bytes",
              "name": "paymasterAndData",
              "type": "bytes"
            },
            {
              "internalType": "bytes",
              "name": "signature",
              "type": "bytes"
            }
          ],
          "internalType": "struct PackedUserOperation",
          "name": "userOp",
          "type": "tuple"
        }
      ],
      "name": "validateSessionKeyParams",
      "outputs": [
        {
          "internalType": "bool",
          "name": "",
          "type": "bool"
        }
      ],
      "stateMutability": "view",
      "type": "function"
    },
    {
      "inputs": [
        {
          "components": [
            {
              "internalType": "address",
              "name": "sender",
              "type": "address"
            },
            {
              "internalType": "uint256",
              "name": "nonce",
              "type": "uint256"
            },
            {
              "internalType": "bytes",
              "name": "initCode",
              "type": "bytes"
            },
            {
              "internalType": "bytes",
              "name": "callData",
              "type": "bytes"
            },
            {
              "internalType": "bytes32",
              "name": "accountGasLimits",
              "type": "bytes32"
            },
            {
              "internalType": "uint256",
              "name": "preVerificationGas",
              "type": "uint256"
            },
            {
              "internalType": "bytes32",
              "name": "gasFees",
              "type": "bytes32"
            },
            {
              "internalType": "bytes",
              "name": "paymasterAndData",
              "type": "bytes"
            },
            {
              "internalType": "bytes",
              "name": "signature",
              "type": "bytes"
            }
          ],
          "internalType": "struct PackedUserOperation",
          "name": "userOp",
          "type": "tuple"
        },
        {
          "internalType": "bytes32",
          "name": "userOpHash",
          "type": "bytes32"
        }
      ],
      "name": "validateUserOp",
      "outputs": [
        {
          "internalType": "ERC7579ValidatorBase.ValidationData",
          "name": "",
          "type": "uint256"
        }
      ],
      "stateMutability": "nonpayable",
      "type": "function"
    },
    {
      "inputs": [],
      "name": "version",
      "outputs": [
        {
          "internalType": "string",
          "name": "",
          "type": "string"
        }
      ],
      "stateMutability": "pure",
      "type": "function"
    }
  ],
  "transactionHash": "0x8cc631598ca6ab12726fa453714d8df45d31e8515af58e113f9e36552d2b58cb",
  "args": [],
  "numDeployments": 2,
  "solcInputHash": "2396308e43d96a238747fc9a1ffc6a35",
  "bytecode": "0x60808060405234601557610f14908161001b8239f35b600080fdfe6040608081526004908136101561001557600080fd5b600090813560e01c806306fdde031461072757806351b037901461069457806354fd4d501461063e5780636d61fe70146106045780638a91b0e3146105ce5780639479b011146104e45780639700320314610498578063c037ee191461044b578063c7305b1714610400578063ced2023214610327578063d56842fe14610277578063d60b347f14610252578063d8d38e42146101ad578063ecd0596114610174578063f4d2a1941461011c5763f551e2ee146100d157600080fd5b34610118576060366003190112610118576100ea6107be565b5060443567ffffffffffffffff81116101145760209361010c913691016107d9565b505051908152f35b8280fd5b5080fd5b50346101185760203660031901126101185760209061016b61013c6107be565b6001600160a01b0316600052600160205260406000203360005260205260ff60016040600020015460301c1690565b90519015158152f35b50823461011457602036600319011261011457602092503590600182149182156101a2575b50519015158152f35b600214915083610199565b50829034610114576020366003190112610114576001600160a01b036101d16107be565b1691828452600160205281842033855260205265ffffffffffff60018386200154161561023d575060018391838352816020528083203384526020528220828155015533907ffed2ef743855f014248940ee5ec9f0e777462c94ab9c0218f7df27d5acf963958380a380f35b82602492519163bf7faead60e01b8352820152fd5b503461011857602036600319011261011857906020916102706107be565b5051908152f35b50346101185760c0366003190112610118576102916107be565b9060a0366023190112610114576102a6610807565b906024356001600160a01b03811681036103235782526044356001600160e01b03198116810361032357602083015260643565ffffffffffff91828216820361031f57830152608435908116810361031b57606082015260a43591821515830361031b57610318926080830152610de3565b80f35b8380fd5b8580fd5b8480fd5b5090346103fd576020806003193601126101185760018360a0946103496107be565b94806080610355610807565b8281528288820152828582015282606082015201526001600160a01b0380961681528385528181203382528552209061038c610807565b918054958616958684526001600160e01b031995808501968083861b16885265ffffffffffff968794858789019560c01c16855201549760ff60806060890198878c168a52019960301c16151589528551998a52511690880152511690850152511660608301525115156080820152f35b80fd5b50346101185780600319360112610118576104196107be565b6024356001600160a01b0380921684528360205282842080548210156103235784526020938490200154915191168152f35b5082346101145760031990828236011261031b576104676107be565b936024359267ffffffffffffffff8411610118576101209084360301126103fd57509261016b916020940190610b6a565b5090346103fd576003199082823601126103fd5783359167ffffffffffffffff8311610118576101209083360301126103fd57506020926104dd916024359101610953565b9051908152f35b508234610114576020366003190112610114576001600160a01b036105076107be565b169182845260016020528084203385526020526001818520019182549165ffffffffffff8316156105b857505060ff8160301c1660001461057a5750805466ff0000000000001916905533907f372387852d8cf935f1b241dc2c9401f2de07256dc3b7624f41771a65aa8c30588380a380f35b66ff0000000000001916660100000000000017905533907f295a27d3639cc5db57f2823fa52be0046afef8b8a991ed07a36ed22a07d98dc68380a380f35b9084602492519163bf7faead60e01b8352820152fd5b8284346101185760203660031901126101185780359067ffffffffffffffff8211610114576105ff913691016107d9565b505080f35b82843461011857602036600319011261011857803567ffffffffffffffff81116101145761031891610638913691016107d9565b90610870565b50346101185781600319360112610118576106909061065b61083d565b90600582527f302e302e3100000000000000000000000000000000000000000000000000000060208301525191829182610775565b0390f35b50346101185780600319360112610118576106ad6107be565b906024356001600160a01b0392838216809203610323578260a09560ff94938660019416825283602052828220908252602052209182549265ffffffffffff928391015493825196811687526001600160e01b031981841b16602088015260c01c16908501528116606084015260301c1615156080820152f35b50346101185781600319360112610118576106909061074461083d565b90601482527f4175746f44434153657373696f6e4d6f64756c65000000000000000000000000602083015251918291825b6020808252825181830181905290939260005b8281106107aa57505060409293506000838284010152601f8019910116010190565b818101860151848201604001528501610788565b600435906001600160a01b03821682036107d457565b600080fd5b9181601f840112156107d45782359167ffffffffffffffff83116107d457602083818601950101116107d457565b6040519060a0820182811067ffffffffffffffff82111761082757604052565b634e487b7160e01b600052604160045260246000fd5b604051906040820182811067ffffffffffffffff82111761082757604052565b359065ffffffffffff821682036107d457565b90801561091c57819081010360c081126107d4578135916001600160a01b03918284168094036107d45760a090601f1901126107d4576108ae610807565b91602082013590811681036107d45782526040810135906001600160e01b0319821682036107d45760a09160208401526108ea6060820161085d565b60408401526108fb6080820161085d565b606084015201359182151583036107d45761091a926080830152610de3565b565b5050565b903590601e19813603018212156107d4570180359067ffffffffffffffff82116107d4576020019181360383136107d457565b60209182526000907b19457468657265756d205369676e6564204d6573736167653a0a33328252603c60042061098d610100830183610920565b67ffffffffffffffff9391848211610b1e57601f1991604095865193603f81601f850116011684019084821090821117610b0a578652808352878301913682820111610b0657928783818b858b96610a219a998399378501015260019084519883525184528380845114610acd57506041835114610ab5575060809150805b5afa50846060523d6060185192845282610b6a565b15610aac5760018260ff936080956001600160a01b03809516815283885281812033825288522090610a51610807565b96825494851688526001600160e01b031985831b169088015265ffffffffffff809460c01c16908701520154908116606085015260301c16151591015279ffffffffffff000000000000000000000000000000000000000090565b50505050600190565b6080928460609182810151851a885201519052610a0c565b7f7fffffffffffffffffffffffffffffffffffffffffffffffffffffffffffffff906080940151601b8160ff1c01875216606052610a0c565b8780fd5b602488634e487b7160e01b81526041600452fd5b602486634e487b7160e01b81526041600452fd5b9190811015610b545760051b81013590605e19813603018212156107d4570190565b634e487b7160e01b600052603260045260246000fd5b906001600160a01b0360009080841682526001936001602052604093604084203385526020526040842090610b9d610807565b90610c1a835494868616845260ff6001600160e01b03199660016020870197898360401b16895265ffffffffffff809360c01c1660408901520154908116606087015260301c16151560808501526001600160a01b0316600052600160205260406000203360005260205260ff60016040600020015460301c1690565b15610dd857806060610c2d920190610920565b949060049580600411610b0657813586167fe9ae5c530000000000000000000000000000000000000000000000000000000003610d6c5780602411610b06577fff000000000000000000000000000000000000000000000000000000000000006004830135168015610d79577f010000000000000000000000000000000000000000000000000000000000000003610d6c57606411610d68576064810135019160646084840193013597875b898110610cf0575050505050505050505050600190565b610cfb818b87610b32565b35848116809103610d6457610d1d610d14838d89610b32565b84810190610920565b8a92919211610d60578585511603610d5157878088511691351603610d43578a01610cd9565b505050505050505091505090565b50505050505050505091505090565b8a80fd5b8980fd5b8680fd5b5050505050505091505090565b509293955096509294965080606411610d6857606319810180601411610b0657603411610d68576097190160041161031f575116606484013560601c03610dd2578160989151169201351603610dcf5750600190565b90565b50505090565b505050505091505090565b906001600160a01b038092169060016000938385528160205260408520338652602052604085209083511681549077ffffffff0000000000000000000000000000000000000000602086015160401c16907fffff0000000000000000000000000000000000000000000000000000000000007dffffffffffff000000000000000000000000000000000000000000000000604088015160c01b1693161717178155019065ffffffffffff60608201511666ff00000000000060808454930151151560301b169166ffffffffffffff1916171790557f18181a00afae36a38027e087bdecba0ee3dd48839669ffb2b1484450c703267b339280a356fea2646970667358221220854ec62edeaf66686c379050e8d01f402b679458f5d4e8993474ce4960f94cdb64736f6c63430008190033",
  "devdoc": {
    "kind": "dev",
    "methods": {
      "enableSessionKey(address,(address,bytes4,uint48,uint48,bool))": {
        "details": "Adds a session key to the mapping."
      },
      "isInitialized(address)": {
        "details": "Returns if the module was already initialized for a provided smartaccount"
      },
      "onInstall(bytes)": {
        "details": "This function is called by the smart account during installation of the module",
        "params": {
          "data": "arbitrary data that may be required on the module during `onInstall` initialization MUST revert on error (i.e. if module is already enabled)"
        }
      }
    },
    "version": 1
  },
  "userdoc": {
    "kind": "user",
    "methods": {},
    "version": 1
  },
  "storageLayout": {
    "storage": [
      {
        "astId": 2402,
        "contract": "contracts/validator/SessionValidator.sol:SessionValidator",
        "label": "sessionKeyList",
        "offset": 0,
        "slot": "0",
        "type": "t_mapping(t_address,t_array(t_address)dyn_storage)"
      },
      {
        "astId": 2409,
        "contract": "contracts/validator/SessionValidator.sol:SessionValidator",
        "label": "sessionKeyData",
        "offset": 0,
        "slot": "1",
        "type": "t_mapping(t_address,t_mapping(t_address,t_struct(SessionData)2420_storage))"
      }
    ],
    "types": {
      "t_address": {
        "encoding": "inplace",
        "label": "address",
        "numberOfBytes": "20"
      },
      "t_array(t_address)dyn_storage": {
        "base": "t_address",
        "encoding": "dynamic_array",
        "label": "address[]",
        "numberOfBytes": "32"
      },
      "t_bool": {
        "encoding": "inplace",
        "label": "bool",
        "numberOfBytes": "1"
      },
      "t_bytes4": {
        "encoding": "inplace",
        "label": "bytes4",
        "numberOfBytes": "4"
      },
      "t_mapping(t_address,t_array(t_address)dyn_storage)": {
        "encoding": "mapping",
        "key": "t_address",
        "label": "mapping(address => address[])",
        "numberOfBytes": "32",
        "value": "t_array(t_address)dyn_storage"
      },
      "t_mapping(t_address,t_mapping(t_address,t_struct(SessionData)2420_storage))": {
        "encoding": "mapping",
        "key": "t_address",
        "label": "mapping(address => mapping(address => struct SessionValidator.SessionData))",
        "numberOfBytes": "32",
        "value": "t_mapping(t_address,t_struct(SessionData)2420_storage)"
      },
      "t_mapping(t_address,t_struct(SessionData)2420_storage)": {
        "encoding": "mapping",
        "key": "t_address",
        "label": "mapping(address => struct SessionValidator.SessionData)",
        "numberOfBytes": "32",
        "value": "t_struct(SessionData)2420_storage"
      },
      "t_struct(SessionData)2420_storage": {
        "encoding": "inplace",
        "label": "struct SessionValidator.SessionData",
        "members": [
          {
            "astId": 2411,
            "contract": "contracts/validator/SessionValidator.sol:SessionValidator",
            "label": "target",
            "offset": 0,
            "slot": "0",
            "type": "t_address"
          },
          {
            "astId": 2413,
            "contract": "contracts/validator/SessionValidator.sol:SessionValidator",
            "label": "funcSelector",
            "offset": 20,
            "slot": "0",
            "type": "t_bytes4"
          },
          {
            "astId": 2415,
            "contract": "contracts/validator/SessionValidator.sol:SessionValidator",
            "label": "validAfter",
            "offset": 24,
            "slot": "0",
            "type": "t_uint48"
          },
          {
            "astId": 2417,
            "contract": "contracts/validator/SessionValidator.sol:SessionValidator",
            "label": "validUntil",
            "offset": 0,
            "slot": "1",
            "type": "t_uint48"
          },
          {
            "astId": 2419,
            "contract": "contracts/validator/SessionValidator.sol:SessionValidator",
            "label": "active",
            "offset": 6,
            "slot": "1",
            "type": "t_bool"
          }
        ],
        "numberOfBytes": "64"
      },
      "t_uint48": {
        "encoding": "inplace",
        "label": "uint48",
        "numberOfBytes": "6"
      }
    }
  }
}