{
  "_format": "hh-sol-artifact-1",
  "contractName": "SafeProxyFactory",
  "sourceName": "@safe-global/safe-contracts/contracts/proxies/SafeProxyFactory.sol",
  "abi": [
    {
      "anonymous": false,
      "inputs": [
        {
          "indexed": true,
          "internalType": "contract SafeProxy",
          "name": "proxy",
          "type": "address"
        },
        {
          "indexed": false,
          "internalType": "address",
          "name": "singleton",
          "type": "address"
        }
      ],
      "name": "ProxyCreation",
      "type": "event"
    },
    {
      "inputs": [
        {
          "internalType": "address",
          "name": "_singleton",
          "type": "address"
        },
        {
          "internalType": "bytes",
          "name": "initializer",
          "type": "bytes"
        },
        {
          "internalType": "uint256",
          "name": "saltNonce",
          "type": "uint256"
        }
      ],
      "name": "createChainSpecificProxyWithNonce",
      "outputs": [
        {
          "internalType": "contract SafeProxy",
          "name": "proxy",
          "type": "address"
        }
      ],
      "stateMutability": "nonpayable",
      "type": "function"
    },
    {
      "inputs": [
        {
          "internalType": "address",
          "name": "_singleton",
          "type": "address"
        },
        {
          "internalType": "bytes",
          "name": "initializer",
          "type": "bytes"
        },
        {
          "internalType": "uint256",
          "name": "saltNonce",
          "type": "uint256"
        },
        {
          "internalType": "contract IProxyCreationCallback",
          "name": "callback",
          "type": "address"
        }
      ],
      "name": "createProxyWithCallback",
      "outputs": [
        {
          "internalType": "contract SafeProxy",
          "name": "proxy",
          "type": "address"
        }
      ],
      "stateMutability": "nonpayable",
      "type": "function"
    },
    {
      "inputs": [
        {
          "internalType": "address",
          "name": "_singleton",
          "type": "address"
        },
        {
          "internalType": "bytes",
          "name": "initializer",
          "type": "bytes"
        },
        {
          "internalType": "uint256",
          "name": "saltNonce",
          "type": "uint256"
        }
      ],
      "name": "createProxyWithNonce",
      "outputs": [
        {
          "internalType": "contract SafeProxy",
          "name": "proxy",
          "type": "address"
        }
      ],
      "stateMutability": "nonpayable",
      "type": "function"
    },
    {
      "inputs": [],
      "name": "getChainId",
      "outputs": [
        {
          "internalType": "uint256",
          "name": "",
          "type": "uint256"
        }
      ],
      "stateMutability": "view",
      "type": "function"
    },
    {
      "inputs": [],
      "name": "proxyCreationCode",
      "outputs": [
        {
          "internalType": "bytes",
          "name": "",
          "type": "bytes"
        }
      ],
      "stateMutability": "pure",
      "type": "function"
    }
  ],
  "bytecode": "0x6080806040523460155761080d908161001b8239f35b600080fdfe6080604052600436101561001257600080fd5b6000803560e01c9081631688f0b9146100825781633408e470146100655750806353e5d93514610060578063d18af54d1461005b5763ec9e80bb1461005657600080fd5b6103bc565b61027b565b610234565b3461007f578060031936011261007f576020604051468152f35b80fd5b3461007f576100b661009c610096366101a1565b9161045c565b6040516001600160a01b0390911681529081906020820190565b0390f35b6001600160a01b038116036100cb57565b600080fd5b7f4e487b7100000000000000000000000000000000000000000000000000000000600052604160045260246000fd5b67ffffffffffffffff811161011357604052565b6100d0565b90601f8019910116810190811067ffffffffffffffff82111761011357604052565b906101486040519283610118565b565b81601f820112156100cb5780359067ffffffffffffffff8211610113576040519261017f601f8401601f191660200185610118565b828452602083830101116100cb57816000926020809301838601378301015290565b9060606003198301126100cb576004356101ba816100ba565b916024359067ffffffffffffffff82116100cb576101da9160040161014a565b9060443590565b60009103126100cb57565b60005b8381106101ff5750506000910152565b81810151838201526020016101ef565b90602091610228815180928185528580860191016101ec565b601f01601f1916010190565b346100cb5760003660031901126100cb576100b661017f6040519061025c6020820183610118565b808252610659602083013960405191829160208352602083019061020f565b346100cb5760803660031901126100cb57600435610298816100ba565b60243567ffffffffffffffff81116100cb576102b890369060040161014a565b90606435906044356102c9836100ba565b6001600160a01b03610321604051602081019061031781610309898886909160349282526bffffffffffffffffffffffff199060601b1660208201520190565b03601f198101835282610118565b519020868561045c565b93168061033d575b6040516001600160a01b0385168152602090f35b803b156100cb576103839460008094604051978895869485937f1e52b5180000000000000000000000000000000000000000000000000000000085528a600486016104dd565b03925af19182156103b7576100b69261039e575b8080610329565b806103ab6103b1926100ff565b806101e1565b38610397565b610510565b346100cb576103ca366101a1565b919080516020820120906040519360208501928352604085015246606085015260608452608084019084821067ffffffffffffffff8311176101135760209461044886927f4f51faf6c4561ff95f067657e43439f0f856d97c04d9ec9070a6199ad418e235946040526001600160a01b039586935190209087610585565b1693849360405191168152a2604051908152f35b929190805160208201206040519260208401918252604084015260408352606083019280841067ffffffffffffffff851117610113576104a3936040525190209084610585565b917f4f51faf6c4561ff95f067657e43439f0f856d97c04d9ec9070a6199ad418e23560206001600160a01b038060405194168452851692a2565b94939261050b916060936001600160a01b03809216885216602087015260806040870152608086019061020f565b930152565b6040513d6000823e3d90fd5b60209291906105328492828151948592016101ec565b019081520190565b1561054157565b606460405162461bcd60e51b815260206004820152601360248201527f437265617465322063616c6c206661696c6564000000000000000000000000006044820152fd5b90929192813b15610614576105f46105d2946105e061017f946105aa6020870161013a565b9580875261065960208801396001600160a01b0397889660405197889316906020840161051c565b03601f198101865285610118565b835160009460200185f5948516151561053a565b8051908161060157505050565b8291602083920182875af11561007f5750565b606460405162461bcd60e51b815260206004820152601f60248201527f53696e676c65746f6e20636f6e7472616374206e6f74206465706c6f796564006044820152fdfe60803460c457601f61017f38819003918201601f19168301916001600160401b0383118484101760c95780849260209460405283398101031260c457516001600160a01b0381169081900360c4578015607457600080546001600160a01b031916919091179055604051609f90816100e08239f35b60405162461bcd60e51b815260206004820152602260248201527f496e76616c69642073696e676c65746f6e20616464726573732070726f766964604482015261195960f21b6064820152608490fd5b600080fd5b634e487b7160e01b600052604160045260246000fdfe6080604052600073ffffffffffffffffffffffffffffffffffffffff815416907fa619486e00000000000000000000000000000000000000000000000000000000813514606257808092368280378136915af43d82803e15605e573d90f35b3d90fd5b6020918152f3fea2646970667358221220d99d4ac4554514e6772376872bc6e257f6e9302ac45a97b8c2c66b5d7c68c65764736f6c63430008190033a26469706673582212206b95dd1f79129ebaad1cb724c31c528aaf5b0dfb5bdac4132a792f6eb30be8b764736f6c63430008190033",
  "linkReferences": {},
  "deployedLinkReferences": {}
}