{
  "address": "0x7362839Ede3E5f146740451075230d486FAf05db",
  "abi": [
    {
      "inputs": [
        {
          "internalType": "address",
          "name": "smartAccount",
          "type": "address"
        }
      ],
      "name": "AlreadyInitialized",
      "type": "error"
    },
    {
      "inputs": [],
      "name": "InvalidSqrtPriceLimitX96",
      "type": "error"
    },
    {
      "inputs": [],
      "name": "LinkedList_AlreadyInitialized",
      "type": "error"
    },
    {
      "inputs": [
        {
          "internalType": "address",
          "name": "entry",
          "type": "address"
        }
      ],
      "name": "LinkedList_EntryAlreadyInList",
      "type": "error"
    },
    {
      "inputs": [
        {
          "internalType": "address",
          "name": "entry",
          "type": "address"
        }
      ],
      "name": "LinkedList_InvalidEntry",
      "type": "error"
    },
    {
      "inputs": [],
      "name": "LinkedList_InvalidPage",
      "type": "error"
    },
    {
      "inputs": [
        {
          "internalType": "address",
          "name": "smartAccount",
          "type": "address"
        }
      ],
      "name": "NotInitialized",
      "type": "error"
    },
    {
      "inputs": [
        {
          "internalType": "uint256",
          "name": "x",
          "type": "uint256"
        },
        {
          "internalType": "uint256",
          "name": "y",
          "type": "uint256"
        }
      ],
      "name": "PRBMath_MulDiv18_Overflow",
      "type": "error"
    },
    {
      "inputs": [],
      "name": "TooManyTokens",
      "type": "error"
    },
    {
      "anonymous": false,
      "inputs": [
        {
          "indexed": true,
          "internalType": "address",
          "name": "smartAccount",
          "type": "address"
        },
        {
          "indexed": true,
          "internalType": "address",
          "name": "token",
          "type": "address"
        },
        {
          "indexed": false,
          "internalType": "uint256",
          "name": "amountIn",
          "type": "uint256"
        }
      ],
      "name": "AutoSaveExecuted",
      "type": "event"
    },
    {
      "anonymous": false,
      "inputs": [
        {
          "indexed": true,
          "internalType": "address",
          "name": "account",
          "type": "address"
        },
        {
          "indexed": true,
          "internalType": "address",
          "name": "token",
          "type": "address"
        }
      ],
      "name": "ConfigSet",
      "type": "event"
    },
    {
      "anonymous": false,
      "inputs": [
        {
          "indexed": true,
          "internalType": "address",
          "name": "account",
          "type": "address"
        }
      ],
      "name": "ModuleInitialized",
      "type": "event"
    },
    {
      "anonymous": false,
      "inputs": [
        {
          "indexed": true,
          "internalType": "address",
          "name": "account",
          "type": "address"
        }
      ],
      "name": "ModuleUninitialized",
      "type": "event"
    },
    {
      "inputs": [
        {
          "internalType": "address",
          "name": "token",
          "type": "address"
        },
        {
          "internalType": "uint256",
          "name": "amountReceived",
          "type": "uint256"
        }
      ],
      "name": "autoSave",
      "outputs": [],
      "stateMutability": "nonpayable",
      "type": "function"
    },
    {
      "inputs": [
        {
          "internalType": "uint256",
          "name": "amountReceived",
          "type": "uint256"
        },
        {
          "internalType": "UD2x18",
          "name": "percentage",
          "type": "uint64"
        }
      ],
      "name": "calcDepositAmount",
      "outputs": [
        {
          "internalType": "uint256",
          "name": "",
          "type": "uint256"
        }
      ],
      "stateMutability": "pure",
      "type": "function"
    },
    {
      "inputs": [
        {
          "internalType": "address",
          "name": "account",
          "type": "address"
        },
        {
          "internalType": "address",
          "name": "token",
          "type": "address"
        }
      ],
      "name": "config",
      "outputs": [
        {
          "internalType": "UD2x18",
          "name": "percentage",
          "type": "uint64"
        },
        {
          "internalType": "address",
          "name": "vault",
          "type": "address"
        },
        {
          "internalType": "uint128",
          "name": "sqrtPriceLimitX96",
          "type": "uint128"
        }
      ],
      "stateMutability": "view",
      "type": "function"
    },
    {
      "inputs": [
        {
          "internalType": "address",
          "name": "prevToken",
          "type": "address"
        },
        {
          "internalType": "address",
          "name": "token",
          "type": "address"
        }
      ],
      "name": "deleteConfig",
      "outputs": [],
      "stateMutability": "nonpayable",
      "type": "function"
    },
    {
      "inputs": [
        {
          "internalType": "address",
          "name": "account",
          "type": "address"
        }
      ],
      "name": "getTokens",
      "outputs": [
        {
          "internalType": "address[]",
          "name": "tokensArray",
          "type": "address[]"
        }
      ],
      "stateMutability": "view",
      "type": "function"
    },
    {
      "inputs": [
        {
          "internalType": "address",
          "name": "smartAccount",
          "type": "address"
        }
      ],
      "name": "isInitialized",
      "outputs": [
        {
          "internalType": "bool",
          "name": "",
          "type": "bool"
        }
      ],
      "stateMutability": "view",
      "type": "function"
    },
    {
      "inputs": [
        {
          "internalType": "uint256",
          "name": "typeID",
          "type": "uint256"
        }
      ],
      "name": "isModuleType",
      "outputs": [
        {
          "internalType": "bool",
          "name": "",
          "type": "bool"
        }
      ],
      "stateMutability": "pure",
      "type": "function"
    },
    {
      "inputs": [],
      "name": "name",
      "outputs": [
        {
          "internalType": "string",
          "name": "",
          "type": "string"
        }
      ],
      "stateMutability": "pure",
      "type": "function"
    },
    {
      "inputs": [
        {
          "internalType": "bytes",
          "name": "data",
          "type": "bytes"
        }
      ],
      "name": "onInstall",
      "outputs": [],
      "stateMutability": "nonpayable",
      "type": "function"
    },
    {
      "inputs": [
        {
          "internalType": "bytes",
          "name": "",
          "type": "bytes"
        }
      ],
      "name": "onUninstall",
      "outputs": [],
      "stateMutability": "nonpayable",
      "type": "function"
    },
    {
      "inputs": [
        {
          "internalType": "address",
          "name": "token",
          "type": "address"
        },
        {
          "components": [
            {
              "internalType": "UD2x18",
              "name": "percentage",
              "type": "uint64"
            },
            {
              "internalType": "address",
              "name": "vault",
              "type": "address"
            },
            {
              "internalType": "uint128",
              "name": "sqrtPriceLimitX96",
              "type": "uint128"
            }
          ],
          "internalType": "struct AutoDCAModule.Config",
          "name": "_config",
          "type": "tuple"
        }
      ],
      "name": "setConfig",
      "outputs": [],
      "stateMutability": "nonpayable",
      "type": "function"
    },
    {
      "inputs": [],
      "name": "version",
      "outputs": [
        {
          "internalType": "string",
          "name": "",
          "type": "string"
        }
      ],
      "stateMutability": "pure",
      "type": "function"
    }
  ],
  "transactionHash": "0x3d8b6f3192ef5777d0d8ee264585952a76da09416ddd48fb39aac892514bcf69",
  "args": [],
  "numDeployments": 1,
  "solcInputHash": "e912b3ad105dcc75c728c4f1c386c03b",
  "bytecode": "0x608080604052346015576115b3908161001b8239f35b600080fdfe608080604052600436101561001357600080fd5b60003560e01c90816306fdde03146110da5750806337d0f1eb14610f0d578063450efe2114610e91578063541e683314610e5957806354fd4d5014610df757806361d9a3001461070f5780636d61fe70146103e55780638a91b0e3146102c7578063cbf75c9a14610242578063d60b347f146101e8578063e1f2f9fb146100c85763ecd05961146100a357600080fd5b346100c35760203660031901126100c35760206040516002600435148152f35b600080fd5b346100c35760403660031901126100c3576100e161117e565b6100e9611194565b903360005260006020526040600020916001600160a01b03809116928360005260205260006001604082208281550155336000526001602052604060002091831580156101de575b6101c5578116918260005280602052838260406000205416036101ad5783600052602052604060002054169060005260406000206001600160a01b03199182825416179055816000526040600020908154169055337f5d29cb23b5ad294992752fd5187119f150168eb0673b9d5d8599deab0e4d7df4600080a3005b60248460405190637c84ecfb60e01b82526004820152fd5b60249160405191637c84ecfb60e01b8352166004820152fd5b5060018414610131565b346100c35760203660031901126100c3576001600160a01b0361020961117e565b1660005260016020526020610238604060002060016000526020526001600160a01b0360406000205416151590565b6040519015158152f35b346100c35760403660031901126100c357606061025d61117e565b610265611194565b6001600160a01b03809216600052600060205281604060002091166000526020526040600020906fffffffffffffffffffffffffffffffff6001835493015416906040519267ffffffffffffffff8116845260401c1660208301526040820152f35b346100c3576102d53661124b565b505033600052600160208181526102ef6040600020611389565b508051908360005b8381106103ab57508333600052818152604060002091806000528282526001600160a01b03818160406000205416905b61036d575b50506000525260406000206001600160a01b03198154169055337f9d00629762554452d03c3b45626436df6ca1c3795d05d04df882f6db481b1be0600080a2005b8181169081156103a5579060005284845281806040600020541691166000528260406000206001600160a01b03198154169055610327565b5061032c565b336000526000855260406000206001600160a01b036103ca83866112a5565b511660005285526000826040822082815501550184906102f7565b346100c3576103f33661124b565b810160209081838203126100c357823567ffffffffffffffff938482116100c3570181601f820112156100c357803561042b816112b9565b926104396040519485611212565b818452848085019260071b840101928184116100c3578501915b838310610678575050505033600052600192838352604060002091846000528284526001600160a01b0392836040600020541661064e578560005284526040600020856001600160a01b0319825416179055805193606485116106245760005b8581106104e257337f27b541a16df0902e262f34789782092ab25125513b8ed73608e802951771b928600080a2005b846104ed82856112a5565b5151169084836104fd83876112a5565b5101511686604061050e84886112a5565b51015116926fffffffffffffffffffffffffffffffff806060610531868a6112a5565b510151169060405193610543856111be565b84528684019586526040840191808352156105fa578b6105f49481973360005260008a526040600020866000528a528b60406000209251167fffffffff000000000000000000000000000000000000000000000000000000007bffffffffffffffffffffffffffffffffffffffff00000000000000008454935160401b16921617178155019151166fffffffffffffffffffffffffffffffff198254161790553360005283855260406000206112d1565b016104b3565b60046040517f8582dc3d000000000000000000000000000000000000000000000000000000008152fd5b60046040517f748e67b2000000000000000000000000000000000000000000000000000000008152fd5b60046040517f53c85e66000000000000000000000000000000000000000000000000000000008152fd5b60809081848403126100c357604051918201828110898211176106f9576040526106a1846111aa565b82528684013588811681036100c357878301526106c0604085016111aa565b604083015260609081850135926fffffffffffffffffffffffffffffffff841684036100c3576080938993820152815201920191610453565b634e487b7160e01b600052604160045260246000fd5b346100c35760403660031901126100c35761072861117e565b33600052600060205260406000206001600160a01b0382166000526020526040600020604051610757816111be565b60016001600160a01b03835467ffffffffffffffff8116845260401c16928360208401526fffffffffffffffffffffffffffffffff918291015416604083019081528315610dc75760206107ba67ffffffffffffffff60049551166024356114ce565b94604051948580927f38d52e0f0000000000000000000000000000000000000000000000000000000082525afa928315610cd757600093610d83575b506001600160a01b0385811690841614610d7157511660405192610819846111f6565b6003845260005b60608110610d5a57506108316114ad565b5061083a6114ad565b5060405163095ea7b360e01b602082015273e592427a0aece92de3edee1f18e0157c0586156460248201526000604482015260448152610879816111f6565b60405190610886826111be565b6001600160a01b038716825260006020830152604082015260405163095ea7b360e01b602082015273e592427a0aece92de3edee1f18e0157c058615646024820152826044820152604481526108db816111f6565b604051906108e8826111be565b6001600160a01b0388168252600060208301526040820152855160011015610d44576040860152845115610d445760208501526109236114ad565b50604051908161010081011067ffffffffffffffff610100840111176106f95760209361010083016040526001600160a01b03871683526001600160a01b03858401911681526001600160a01b0360408401610bb8815262ffffff606086019133835283608088019542875260a089019788528160c08a019960008b5260e081019b8c527f414bf389000000000000000000000000000000000000000000000000000000006040519d8e0152511660248c0152511660448a015251166064880152511660848601525160a48501525160c48401525160e4830152516001600160a01b03610104911681830152815261014081019080821067ffffffffffffffff8311176106f95781604052610a37826111be565b73e592427a0aece92de3edee1f18e0157c0586156482526000610160820152610180810152610a6582611295565b52610a6f81611295565b5060405160208101907f010000000000000000000000000000000000000000000000000000000000000082526000602182015260006022820152600060268201526000602a82015260208152610ac4816111da565b5190519060208110610d32575b5090604051906040820160208084015281518091526060830190602060608260051b8601019301916000905b828210610ce3575050505081610b65926000920393610b24601f1995868101845283611212565b60405193849283927fd691c9640000000000000000000000000000000000000000000000000000000084526004840152604060248401526044830190611159565b038183335af1908115610cd757600091610bd2575b50610b859150611295565b516020818051810103126100c35760206001600160a01b03910151915b60405192835216907f08e2ed806097a381d22900fff99d42ccd16283e24fdd2912277d39995588bb2860203392a3005b90503d806000833e610be48183611212565b8101906020818303126100c35780519067ffffffffffffffff82116100c35701601f9282601f830112156100c3578151610c1d816112b9565b94610c2b6040519687611212565b81865260208087019260051b850101938585116100c35760208101925b858410610c605750505050505050610b859083610b7a565b835167ffffffffffffffff81116100c35782019087603f830112156100c35760208201519067ffffffffffffffff82116106f957604051610ca8602089888601160182611212565b82815289604084860101116100c357610ccc60209493859460408685019101611136565b815201930192610c48565b6040513d6000823e3d90fd5b90919293602080610d24600193605f198a8203018652606060408a516001600160a01b03815116845285810151868501520151918160408201520190611159565b960192019201909291610afd565b6000199060200360031b1b1683610ad1565b634e487b7160e01b600052603260045260246000fd5b602090610d656114ad565b82828801015201610820565b505050906001600160a01b0390610ba2565b9092506020813d602011610dbf575b81610d9f60209383611212565b810103126100c357516001600160a01b03811681036100c35791856107f6565b3d9150610d92565b60246040517ff91bd6f1000000000000000000000000000000000000000000000000000000008152336004820152fd5b346100c35760003660031901126100c357610e55604051610e17816111da565b600581527f312e302e300000000000000000000000000000000000000000000000000000006020820152604051918291602083526020830190611159565b0390f35b346100c35760403660031901126100c3576020610e8967ffffffffffffffff610e80611234565b166004356114ce565b604051908152f35b346100c3576020806003193601126100c3576001600160a01b039081610eb561117e565b166000526001808252610ecb6040600020611389565b50926040519280840190808552855180925280604086019601926000905b838210610ef65786880387f35b845181168852968201969382019390850190610ee9565b346100c35760803660031901126100c357610f2661117e565b60603660231901126100c357604051610f3e816111be565b610f46611234565b8152604435916001600160a01b0380841684036100c357602092838101948552606435906fffffffffffffffffffffffffffffffff9081831683036100c357604081019283523360005260018652610fb8604060002060016000526020526001600160a01b0360406000205416151590565b15610dc75781835116156105fa5760019033600052600087526040600020978587169889600052885267ffffffffffffffff60406000209251167fffffffff000000000000000000000000000000000000000000000000000000007bffffffffffffffffffffffffffffffffffffffff00000000000000008454935160401b16921617178155019151166fffffffffffffffffffffffffffffffff198254161790553360005260018352604060002090846001141591826110c1575b5050156110a5575b82337f5d29cb23b5ad294992752fd5187119f150168eb0673b9d5d8599deab0e4d7df4600080a3005b60016110ba92336000525260406000206112d1565b818061107c565b9091508460005283526040600020541615158480611074565b346100c35760003660031901126100c357806110f8610e55926111da565b600d81527f4175746f4443414d6f64756c65000000000000000000000000000000000000006020820152604051918291602083526020830190611159565b60005b8381106111495750506000910152565b8181015183820152602001611139565b9060209161117281518092818552858086019101611136565b601f01601f1916010190565b600435906001600160a01b03821682036100c357565b602435906001600160a01b03821682036100c357565b35906001600160a01b03821682036100c357565b6060810190811067ffffffffffffffff8211176106f957604052565b6040810190811067ffffffffffffffff8211176106f957604052565b6080810190811067ffffffffffffffff8211176106f957604052565b90601f8019910116810190811067ffffffffffffffff8211176106f957604052565b6024359067ffffffffffffffff821682036100c357565b9060206003198301126100c35760043567ffffffffffffffff928382116100c357806023830112156100c35781600401359384116100c357602484830101116100c3576024019190565b805160021015610d445760600190565b8051821015610d445760209160051b010190565b67ffffffffffffffff81116106f95760051b60200190565b906001600160a01b03809116908115801561137f575b6113675760009282845280602052816040852054166113365790604091600185526020528184205416928281528181206001600160a01b03199485825416179055600181522091825416179055565b602483604051907f40d3d1a40000000000000000000000000000000000000000000000000000000082526004820152fd5b60248260405190637c84ecfb60e01b82526004820152fd5b50600182146112e7565b60409160405192610ca0840184811067ffffffffffffffff8211176106f957604093919352606493606481526020610c803660208401378195600093600196879160018752806020526001600160a01b039485604089205416995b611441575b50505050506001818616141580611438575b611403575052565b90935060001982018281116114225761141c90856112a5565b51169252565b634e487b7160e01b600052601160045260246000fd5b508215156113fb565b90919296939885811690811515806114a3575b8061149a575b1561149057508061146b86896112a5565b52600052818152848360002054169860001985146114225793870196929190836113e4565b99508497506113e9565b508a861061145a565b5088821415611454565b604051906114ba826111be565b606060408360008152600060208201520152565b9091906000198382098382029182808310920391808303921461156c57670de0b6b3a7640000908183101561153557947faccb18165bd6fe31ae1cf318dc5b51eee0e1ba569b88cd74c1773b91fac1066994950990828211900360ee1b910360121c170290565b60449086604051917f5173648d00000000000000000000000000000000000000000000000000000000835260048301526024820152fd5b5050670de0b6b3a76400009004915056fea264697066735822122051ca64b96de55b22a7cebc64961b84931a8828b694ee60ee276dcdc6227ff87c64736f6c63430008190033",
  "devdoc": {
    "details": "Module that allows users to automatically save a percentage of their received tokens to a vault",
    "kind": "dev",
    "methods": {
      "autoSave(address,uint256)": {
        "params": {
          "amountReceived": "amount received by the user",
          "token": "address of the token received"
        }
      },
      "calcDepositAmount(uint256,uint64)": {
        "params": {
          "amountReceived": "amount received by the user",
          "percentage": "percentage to be saved to the vault"
        },
        "returns": {
          "_0": "amount to be saved to the vault"
        }
      },
      "deleteConfig(address,address)": {
        "details": "the function will revert if the module is not initialized",
        "params": {
          "prevToken": "address of the token stored before the token to be deleted",
          "token": "address of the token to be deleted"
        }
      },
      "getTokens(address)": {
        "details": "the function will revert if the module is not initialized",
        "params": {
          "account": "address of the account"
        }
      },
      "isInitialized(address)": {
        "params": {
          "smartAccount": "address of the smart account"
        },
        "returns": {
          "_0": "true if the module is initialized, false otherwise"
        }
      },
      "isModuleType(uint256)": {
        "params": {
          "typeID": "type of the module"
        },
        "returns": {
          "_0": "true if the type is a module type, false otherwise"
        }
      },
      "name()": {
        "returns": {
          "_0": "name of the module"
        }
      },
      "onInstall(bytes)": {
        "details": "data is encoded as follows: abi.encode([tokens], [configs])if there are more tokens than configs, the function will revertif there are more configs than tokens, the function will ignore the extra configs",
        "params": {
          "data": "encoded data containing the tokens and their configurations"
        }
      },
      "onUninstall(bytes)": {
        "details": "the data parameter is not used"
      },
      "setConfig(address,(uint64,address,uint128))": {
        "details": "the function will revert if the module is not initializedthis function can be used to set a new configuration or update an existing one",
        "params": {
          "_config": "Config struct containing the configuration",
          "token": "address of the token"
        }
      },
      "version()": {
        "returns": {
          "_0": "version of the module"
        }
      }
    },
    "title": "AutoDCAModule",
    "version": 1
  },
  "userdoc": {
    "errors": {
      "PRBMath_MulDiv18_Overflow(uint256,uint256)": [
        {
          "notice": "Thrown when the resultant value in {mulDiv18} overflows uint256."
        }
      ]
    },
    "kind": "user",
    "methods": {
      "autoSave(address,uint256)": {
        "notice": "Executes the auto save logic"
      },
      "calcDepositAmount(uint256,uint64)": {
        "notice": "Calculates the amount to be saved to the vault"
      },
      "deleteConfig(address,address)": {
        "notice": "Deletes the configuration for a token"
      },
      "getTokens(address)": {
        "notice": "Gets a list of all tokens"
      },
      "isInitialized(address)": {
        "notice": "Checks if the module is initialized"
      },
      "isModuleType(uint256)": {
        "notice": "Returns the type of the module"
      },
      "name()": {
        "notice": "Returns the name of the module"
      },
      "onInstall(bytes)": {
        "notice": "Initializes the module with the tokens and their configurations"
      },
      "onUninstall(bytes)": {
        "notice": "Handles the uninstallation of the module and clears the tokens and configurations"
      },
      "setConfig(address,(uint64,address,uint128))": {
        "notice": "Sets the configuration for a token"
      },
      "version()": {
        "notice": "Returns the version of the module"
      }
    },
    "version": 1
  },
  "storageLayout": {
    "storage": [
      {
        "astId": 11399,
        "contract": "contracts/AutoDCA/AutoDCAModule.sol:AutoDCAModule",
        "label": "config",
        "offset": 0,
        "slot": "0",
        "type": "t_mapping(t_address,t_mapping(t_address,t_struct(Config)11382_storage))"
      },
      {
        "astId": 11404,
        "contract": "contracts/AutoDCA/AutoDCAModule.sol:AutoDCAModule",
        "label": "tokens",
        "offset": 0,
        "slot": "1",
        "type": "t_mapping(t_address,t_struct(SentinelList)29707_storage)"
      }
    ],
    "types": {
      "t_address": {
        "encoding": "inplace",
        "label": "address",
        "numberOfBytes": "20"
      },
      "t_mapping(t_address,t_address)": {
        "encoding": "mapping",
        "key": "t_address",
        "label": "mapping(address => address)",
        "numberOfBytes": "32",
        "value": "t_address"
      },
      "t_mapping(t_address,t_mapping(t_address,t_struct(Config)11382_storage))": {
        "encoding": "mapping",
        "key": "t_address",
        "label": "mapping(address => mapping(address => struct AutoDCAModule.Config))",
        "numberOfBytes": "32",
        "value": "t_mapping(t_address,t_struct(Config)11382_storage)"
      },
      "t_mapping(t_address,t_struct(Config)11382_storage)": {
        "encoding": "mapping",
        "key": "t_address",
        "label": "mapping(address => struct AutoDCAModule.Config)",
        "numberOfBytes": "32",
        "value": "t_struct(Config)11382_storage"
      },
      "t_mapping(t_address,t_struct(SentinelList)29707_storage)": {
        "encoding": "mapping",
        "key": "t_address",
        "label": "mapping(address => struct SentinelListLib.SentinelList)",
        "numberOfBytes": "32",
        "value": "t_struct(SentinelList)29707_storage"
      },
      "t_struct(Config)11382_storage": {
        "encoding": "inplace",
        "label": "struct AutoDCAModule.Config",
        "members": [
          {
            "astId": 11377,
            "contract": "contracts/AutoDCA/AutoDCAModule.sol:AutoDCAModule",
            "label": "percentage",
            "offset": 0,
            "slot": "0",
            "type": "t_userDefinedValueType(UD2x18)9063"
          },
          {
            "astId": 11379,
            "contract": "contracts/AutoDCA/AutoDCAModule.sol:AutoDCAModule",
            "label": "vault",
            "offset": 8,
            "slot": "0",
            "type": "t_address"
          },
          {
            "astId": 11381,
            "contract": "contracts/AutoDCA/AutoDCAModule.sol:AutoDCAModule",
            "label": "sqrtPriceLimitX96",
            "offset": 0,
            "slot": "1",
            "type": "t_uint128"
          }
        ],
        "numberOfBytes": "64"
      },
      "t_struct(SentinelList)29707_storage": {
        "encoding": "inplace",
        "label": "struct SentinelListLib.SentinelList",
        "members": [
          {
            "astId": 29706,
            "contract": "contracts/AutoDCA/AutoDCAModule.sol:AutoDCAModule",
            "label": "entries",
            "offset": 0,
            "slot": "0",
            "type": "t_mapping(t_address,t_address)"
          }
        ],
        "numberOfBytes": "32"
      },
      "t_uint128": {
        "encoding": "inplace",
        "label": "uint128",
        "numberOfBytes": "16"
      },
      "t_userDefinedValueType(UD2x18)9063": {
        "encoding": "inplace",
        "label": "UD2x18",
        "numberOfBytes": "8"
      }
    }
  }
}