{
  "_format": "hh-sol-artifact-1",
  "contractName": "TestUniqueSignerFactory",
  "sourceName": "contracts/test/TestUniqueSigner.sol",
  "abi": [
    {
      "inputs": [
        {
          "internalType": "bytes",
          "name": "data",
          "type": "bytes"
        }
      ],
      "name": "createSigner",
      "outputs": [
        {
          "internalType": "address",
          "name": "signer",
          "type": "address"
        }
      ],
      "stateMutability": "nonpayable",
      "type": "function"
    },
    {
      "inputs": [
        {
          "internalType": "bytes",
          "name": "data",
          "type": "bytes"
        }
      ],
      "name": "getSigner",
      "outputs": [
        {
          "internalType": "address",
          "name": "signer",
          "type": "address"
        }
      ],
      "stateMutability": "view",
      "type": "function"
    },
    {
      "inputs": [
        {
          "internalType": "bytes32",
          "name": "message",
          "type": "bytes32"
        },
        {
          "internalType": "bytes",
          "name": "signatureData",
          "type": "bytes"
        },
        {
          "internalType": "bytes",
          "name": "signerData",
          "type": "bytes"
        }
      ],
      "name": "isValidSignatureForSigner",
      "outputs": [
        {
          "internalType": "bytes4",
          "name": "magicValue",
          "type": "bytes4"
        }
      ],
      "stateMutability": "pure",
      "type": "function"
    }
  ],
  "bytecode": "0x6080806040523460155761069d908161001b8239f35b600080fdfe60808060405260048036101561001457600080fd5b600091823560e01c908163930bbb3b146101a657508063d312e182146100b65763e6adabfd1461004357600080fd5b346100b25760203660031901126100b257803567ffffffffffffffff81116100ae576020929161007591369101610276565b90809391810103126100ab57602061008d83356102e1565b73ffffffffffffffffffffffffffffffffffffffff60405191168152f35b80fd5b8280fd5b5080fd5b50346100b25760203660031901126100b25767ffffffffffffffff9080358281116101a2576100ea60209136908401610276565b90809291810103126101a2573591610101836102e1565b92833b1561012b575b60208473ffffffffffffffffffffffffffffffffffffffff60405191168152f35b6040519261029d90818501938585109085111761018f575092809260209287956103cb8439815203019082f580156101845773ffffffffffffffffffffffffffffffffffffffff8083169116036100b25781808061010a565b6040513d84823e3d90fd5b866041602492634e487b7160e01b835252fd5b8380fd5b919050346100ae5760603660031901126100ae5767ffffffffffffffff90602435828111610272576101db9036908301610276565b9260443590811161026a576101f39036908401610276565b9360208288968101031261026e57826020918101031261026a576020955035903518903514610243575b7fffffffff00000000000000000000000000000000000000000000000000000000168152f35b507f930bbb3b0000000000000000000000000000000000000000000000000000000061021d565b8580fd5b8680fd5b8480fd5b9181601f840112156102a45782359167ffffffffffffffff83116102a457602083818601950101116102a457565b600080fd5b90601f8019910116810190811067ffffffffffffffff8211176102cb57604052565b634e487b7160e01b600052604160045260246000fd5b60405160209161029d6102f6848201846102a9565b8083526103cb8484013960405182819351908560005b8381106103b35750505090610332926040928201908682015203848101845201826102a9565b818151910120604051918201907fff0000000000000000000000000000000000000000000000000000000000000082523060601b602184015260006035840152605583015260558252608082019180831067ffffffffffffffff8411176102cb5773ffffffffffffffffffffffffffffffffffffffff926040525190201690565b82810182015187820183015286945087910161030c56fe60a034605c57601f61029d38819003918201601f19168301916001600160401b03831184841017606157808492602094604052833981010312605c575160805260405161022590816100788239608051818181604a015260da0152f35b600080fd5b634e487b7160e01b600052604160045260246000fdfe6080604052600436101561001257600080fd5b6000803560e01c806320c13b0b1461007057632dc387b31461003357600080fd5b3461006d578060031936011261006d5760206040517f00000000000000000000000000000000000000000000000000000000000000008152f35b80fd5b503461006d57604036600319011261006d5767ffffffffffffffff600435818111610154576100a3903690600401610158565b90602435908111610154576100bc903690600401610158565b8260208280518101031261006d5750602001519060208151910120907f0000000000000000000000000000000000000000000000000000000000000000181461012d575b6020907fffffffff0000000000000000000000000000000000000000000000000000000060405191168152f35b507f20c13b0b00000000000000000000000000000000000000000000000000000000610100565b8280fd5b81601f820112156101bb5780359067ffffffffffffffff928383116101c05760405193601f8401601f19908116603f01168501908111858210176101c057604052828452602083830101116101bb57816000926020809301838601378301015290565b600080fd5b7f4e487b7100000000000000000000000000000000000000000000000000000000600052604160045260246000fdfea26469706673582212208de79936287e3a14285950bb3e4026cacc76caca0d42b08885a6f6ebd1dba73764736f6c63430008190033a2646970667358221220b79b05866b3d004dce49d16fc7c2e119220c0d1ccb5acf93ec301ab815ead05f64736f6c63430008190033",
  "linkReferences": {},
  "deployedLinkReferences": {}
}