{
  "_format": "hh-sol-artifact-1",
  "contractName": "TestUniqueSigner",
  "sourceName": "contracts/test/TestUniqueSigner.sol",
  "abi": [
    {
      "inputs": [
        {
          "internalType": "uint256",
          "name": "key",
          "type": "uint256"
        }
      ],
      "stateMutability": "nonpayable",
      "type": "constructor"
    },
    {
      "inputs": [],
      "name": "KEY",
      "outputs": [
        {
          "internalType": "uint256",
          "name": "",
          "type": "uint256"
        }
      ],
      "stateMutability": "view",
      "type": "function"
    },
    {
      "inputs": [
        {
          "internalType": "bytes",
          "name": "data",
          "type": "bytes"
        },
        {
          "internalType": "bytes",
          "name": "signatureData",
          "type": "bytes"
        }
      ],
      "name": "isValidSignature",
      "outputs": [
        {
          "internalType": "bytes4",
          "name": "magicValue",
          "type": "bytes4"
        }
      ],
      "stateMutability": "view",
      "type": "function"
    }
  ],
  "bytecode": "0x60a034605c57601f61029d38819003918201601f19168301916001600160401b03831184841017606157808492602094604052833981010312605c575160805260405161022590816100788239608051818181604a015260da0152f35b600080fd5b634e487b7160e01b600052604160045260246000fdfe6080604052600436101561001257600080fd5b6000803560e01c806320c13b0b1461007057632dc387b31461003357600080fd5b3461006d578060031936011261006d5760206040517f00000000000000000000000000000000000000000000000000000000000000008152f35b80fd5b503461006d57604036600319011261006d5767ffffffffffffffff600435818111610154576100a3903690600401610158565b90602435908111610154576100bc903690600401610158565b8260208280518101031261006d5750602001519060208151910120907f0000000000000000000000000000000000000000000000000000000000000000181461012d575b6020907fffffffff0000000000000000000000000000000000000000000000000000000060405191168152f35b507f20c13b0b00000000000000000000000000000000000000000000000000000000610100565b8280fd5b81601f820112156101bb5780359067ffffffffffffffff928383116101c05760405193601f8401601f19908116603f01168501908111858210176101c057604052828452602083830101116101bb57816000926020809301838601378301015290565b600080fd5b7f4e487b7100000000000000000000000000000000000000000000000000000000600052604160045260246000fdfea26469706673582212208de79936287e3a14285950bb3e4026cacc76caca0d42b08885a6f6ebd1dba73764736f6c63430008190033",
  "linkReferences": {},
  "deployedLinkReferences": {}
}