{
  "_format": "hh-sol-artifact-1",
  "contractName": "SafeMock",
  "sourceName": "contracts/test/SafeMock.sol",
  "abi": [
    {
      "inputs": [],
      "stateMutability": "nonpayable",
      "type": "constructor"
    },
    {
      "stateMutability": "payable",
      "type": "fallback"
    },
    {
      "inputs": [
        {
          "internalType": "bytes32",
          "name": "dataHash",
          "type": "bytes32"
        },
        {
          "internalType": "bytes",
          "name": "data",
          "type": "bytes"
        },
        {
          "internalType": "bytes",
          "name": "signature",
          "type": "bytes"
        }
      ],
      "name": "checkSignatures",
      "outputs": [],
      "stateMutability": "view",
      "type": "function"
    },
    {
      "inputs": [
        {
          "internalType": "address payable",
          "name": "to",
          "type": "address"
        },
        {
          "internalType": "uint256",
          "name": "value",
          "type": "uint256"
        },
        {
          "internalType": "bytes",
          "name": "data",
          "type": "bytes"
        },
        {
          "internalType": "uint8",
          "name": "operation",
          "type": "uint8"
        }
      ],
      "name": "execTransaction",
      "outputs": [
        {
          "internalType": "bool",
          "name": "success",
          "type": "bool"
        }
      ],
      "stateMutability": "nonpayable",
      "type": "function"
    },
    {
      "inputs": [
        {
          "internalType": "address payable",
          "name": "to",
          "type": "address"
        },
        {
          "internalType": "uint256",
          "name": "value",
          "type": "uint256"
        },
        {
          "internalType": "bytes",
          "name": "data",
          "type": "bytes"
        },
        {
          "internalType": "uint8",
          "name": "operation",
          "type": "uint8"
        }
      ],
      "name": "execTransactionFromModule",
      "outputs": [
        {
          "internalType": "bool",
          "name": "success",
          "type": "bool"
        }
      ],
      "stateMutability": "nonpayable",
      "type": "function"
    },
    {
      "inputs": [
        {
          "internalType": "address payable",
          "name": "to",
          "type": "address"
        },
        {
          "internalType": "uint256",
          "name": "value",
          "type": "uint256"
        },
        {
          "internalType": "bytes",
          "name": "data",
          "type": "bytes"
        },
        {
          "internalType": "uint8",
          "name": "operation",
          "type": "uint8"
        }
      ],
      "name": "execTransactionFromModuleReturnData",
      "outputs": [
        {
          "internalType": "bool",
          "name": "success",
          "type": "bool"
        },
        {
          "internalType": "bytes",
          "name": "returnData",
          "type": "bytes"
        }
      ],
      "stateMutability": "nonpayable",
      "type": "function"
    },
    {
      "inputs": [],
      "name": "fallbackHandler",
      "outputs": [
        {
          "internalType": "address",
          "name": "",
          "type": "address"
        }
      ],
      "stateMutability": "view",
      "type": "function"
    },
    {
      "inputs": [],
      "name": "getChainId",
      "outputs": [
        {
          "internalType": "uint256",
          "name": "",
          "type": "uint256"
        }
      ],
      "stateMutability": "view",
      "type": "function"
    },
    {
      "inputs": [
        {
          "internalType": "address",
          "name": "",
          "type": "address"
        }
      ],
      "name": "modules",
      "outputs": [
        {
          "internalType": "bool",
          "name": "",
          "type": "bool"
        }
      ],
      "stateMutability": "view",
      "type": "function"
    },
    {
      "inputs": [],
      "name": "nonce",
      "outputs": [
        {
          "internalType": "uint256",
          "name": "",
          "type": "uint256"
        }
      ],
      "stateMutability": "view",
      "type": "function"
    },
    {
      "inputs": [],
      "name": "owner",
      "outputs": [
        {
          "internalType": "address",
          "name": "",
          "type": "address"
        }
      ],
      "stateMutability": "view",
      "type": "function"
    },
    {
      "inputs": [
        {
          "internalType": "address",
          "name": "_fallbackHandler",
          "type": "address"
        },
        {
          "internalType": "address",
          "name": "_module",
          "type": "address"
        }
      ],
      "name": "setup",
      "outputs": [],
      "stateMutability": "nonpayable",
      "type": "function"
    },
    {
      "inputs": [],
      "name": "singleton",
      "outputs": [
        {
          "internalType": "address",
          "name": "",
          "type": "address"
        }
      ],
      "stateMutability": "view",
      "type": "function"
    },
    {
      "stateMutability": "payable",
      "type": "receive"
    }
  ],
  "bytecode": "0x60808060405234602757600180546001600160a01b03191633179055610829908161002d8239f35b600080fdfe608060409080825260049081361015610054575b505036156100525760025490811561005257600080915192368285373360601b36850152838260143601925af13d6000833e1561004e573d90f35b3d90fd5b005b600091823560e01c91826329238ee4146105e3575081632d34ba79146105125781633408e470146104f7578163468721a7146104615781635229073f1461037c5781638da5cb5b14610354578163934f3a111461018d578163a8ee49fe14610151578163affed0e01461012e57508063b62654fb146101085763eed2f252146100dd5780610013565b90346101045781600319360112610104576020906001600160a01b03600254169051908152f35b5080fd5b5090346101045781600319360112610104576001600160a01b0360209254169051908152f35b8391503461014d578260031936011261014d5760209250549051908152f35b8280fd5b8284346101045760203660031901126101045760ff816020936001600160a01b0361017a6106c7565b1681526003855220541690519015158152f35b9050823461014d57600319906060368301126103505767ffffffffffffffff91833560243584811161034c576101c69036908701610731565b93604435818111610348576101de9036908801610731565b85516020809701208303610306578581015192606086830151920151891a936001600160a01b03948560015416968851938a8501907f19457468657265756d205369676e6564204d6573736167653a0a3332000000008252603c860152603c85526060850196858810908811176102f357868a528451902091019060ff82116102e057608093869360ff8e979460c0948e9a52168683015260a0820152015282805260015afa156102d65785511603610295578380f35b60649350519162461bcd60e51b8352820152601160248201527f496e76616c6964207369676e61747572650000000000000000000000000000006044820152fd5b82513d87823e3d90fd5b60248c60118d634e487b7160e01b835252fd5b60248d60418e634e487b7160e01b835252fd5b6064878787519162461bcd60e51b8352820152601160248201527f496e76616c6964206461746120686173680000000000000000000000000000006044820152fd5b8780fd5b8680fd5b8380fd5b8284346101045781600319360112610104576020906001600160a01b03600154169051908152f35b82843461010457818061038e36610652565b9793929091338552600160ff60209a60036020526103b0828c8a2054166107a8565b1603610432576001600160a01b039150828851938492833781018581520392165af4926103db610778565b9391939290935b81519485931515845282602085015284518093850152815b83811061041b57505060608094508284010152601f80199101168101030190f35b8086018201518782016060015286945081016103fa565b6001600160a01b0390838951948592833781018681520393165af192610456610778565b9391939290936103e2565b8284346101045781602092600160ff61047936610652565b8796929394969591955033885260038b52610498828b8a2054166107a8565b16036104cd576001600160a01b039150828751938492833781018581520392165af46104c2610778565b50905b519015158152f35b6001600160a01b0390838851948592833781018681520393165af16104f0610778565b50906104c5565b82843461010457816003193601126101045760209051468152f35b8391503461014d578160031936011261014d5761052d6106c7565b90602435916001600160a01b03908184168094036105df576001549282841661059c57507fffffffffffffffffffffffff000000000000000000000000000000000000000092833391161760015516906002541617600255825260036020528120600160ff1982541617905580f35b606490602087519162461bcd60e51b8352820152600d60248201527f416c7265616479207365747570000000000000000000000000000000000000006044820152fd5b8580fd5b8484913461014d579180602093600160ff6105fd36610652565b939690959194909316036106305750506001600160a01b0390828751938492833781018581520392165af46104c2610778565b91908381946001600160a01b0393833781018681520393165af16104f0610778565b9060806003198301126106c2576004356001600160a01b03811681036106c257916024359160443567ffffffffffffffff928382116106c257806023830112156106c25781600401359384116106c257602484830101116106c257602401919060643560ff811681036106c25790565b600080fd5b600435906001600160a01b03821682036106c257565b90601f8019910116810190811067ffffffffffffffff8211176106ff57604052565b634e487b7160e01b600052604160045260246000fd5b67ffffffffffffffff81116106ff57601f01601f191660200190565b81601f820112156106c25780359061074882610715565b9261075660405194856106dd565b828452602083830101116106c257816000926020809301838601378301015290565b3d156107a3573d9061078982610715565b9161079760405193846106dd565b82523d6000602084013e565b606090565b156107af57565b606460405162461bcd60e51b815260206004820152601260248201527f6e6f7420657865637574696e67207468617400000000000000000000000000006044820152fdfea264697066735822122089015c21347637249a5656e0eff916fe1da71f1f5361ae4693a2aa47352746fc64736f6c63430008190033",
  "linkReferences": {},
  "deployedLinkReferences": {}
}