{
  "_format": "hh-sol-artifact-1",
  "contractName": "Safe4337Mock",
  "sourceName": "contracts/test/SafeMock.sol",
  "abi": [
    {
      "inputs": [
        {
          "internalType": "address",
          "name": "entryPoint",
          "type": "address"
        }
      ],
      "stateMutability": "nonpayable",
      "type": "constructor"
    },
    {
      "stateMutability": "payable",
      "type": "fallback"
    },
    {
      "inputs": [],
      "name": "SUPPORTED_ENTRYPOINT",
      "outputs": [
        {
          "internalType": "address",
          "name": "",
          "type": "address"
        }
      ],
      "stateMutability": "view",
      "type": "function"
    },
    {
      "inputs": [],
      "name": "chainId",
      "outputs": [
        {
          "internalType": "uint256",
          "name": "",
          "type": "uint256"
        }
      ],
      "stateMutability": "view",
      "type": "function"
    },
    {
      "inputs": [
        {
          "internalType": "bytes32",
          "name": "dataHash",
          "type": "bytes32"
        },
        {
          "internalType": "bytes",
          "name": "data",
          "type": "bytes"
        },
        {
          "internalType": "bytes",
          "name": "signature",
          "type": "bytes"
        }
      ],
      "name": "checkSignatures",
      "outputs": [],
      "stateMutability": "view",
      "type": "function"
    },
    {
      "inputs": [],
      "name": "domainSeparator",
      "outputs": [
        {
          "internalType": "bytes32",
          "name": "",
          "type": "bytes32"
        }
      ],
      "stateMutability": "view",
      "type": "function"
    },
    {
      "inputs": [
        {
          "internalType": "address payable",
          "name": "to",
          "type": "address"
        },
        {
          "internalType": "uint256",
          "name": "value",
          "type": "uint256"
        },
        {
          "internalType": "bytes",
          "name": "data",
          "type": "bytes"
        },
        {
          "internalType": "uint8",
          "name": "operation",
          "type": "uint8"
        }
      ],
      "name": "execTransaction",
      "outputs": [
        {
          "internalType": "bool",
          "name": "success",
          "type": "bool"
        }
      ],
      "stateMutability": "nonpayable",
      "type": "function"
    },
    {
      "inputs": [
        {
          "internalType": "address payable",
          "name": "to",
          "type": "address"
        },
        {
          "internalType": "uint256",
          "name": "value",
          "type": "uint256"
        },
        {
          "internalType": "bytes",
          "name": "data",
          "type": "bytes"
        },
        {
          "internalType": "uint8",
          "name": "operation",
          "type": "uint8"
        }
      ],
      "name": "execTransactionFromModule",
      "outputs": [
        {
          "internalType": "bool",
          "name": "success",
          "type": "bool"
        }
      ],
      "stateMutability": "nonpayable",
      "type": "function"
    },
    {
      "inputs": [
        {
          "internalType": "address payable",
          "name": "to",
          "type": "address"
        },
        {
          "internalType": "uint256",
          "name": "value",
          "type": "uint256"
        },
        {
          "internalType": "bytes",
          "name": "data",
          "type": "bytes"
        },
        {
          "internalType": "uint8",
          "name": "operation",
          "type": "uint8"
        }
      ],
      "name": "execTransactionFromModuleReturnData",
      "outputs": [
        {
          "internalType": "bool",
          "name": "success",
          "type": "bool"
        },
        {
          "internalType": "bytes",
          "name": "returnData",
          "type": "bytes"
        }
      ],
      "stateMutability": "nonpayable",
      "type": "function"
    },
    {
      "inputs": [
        {
          "internalType": "address",
          "name": "to",
          "type": "address"
        },
        {
          "internalType": "uint256",
          "name": "value",
          "type": "uint256"
        },
        {
          "internalType": "bytes",
          "name": "data",
          "type": "bytes"
        },
        {
          "internalType": "uint8",
          "name": "operation",
          "type": "uint8"
        }
      ],
      "name": "executeUserOp",
      "outputs": [],
      "stateMutability": "nonpayable",
      "type": "function"
    },
    {
      "inputs": [
        {
          "internalType": "address",
          "name": "to",
          "type": "address"
        },
        {
          "internalType": "uint256",
          "name": "value",
          "type": "uint256"
        },
        {
          "internalType": "bytes",
          "name": "data",
          "type": "bytes"
        },
        {
          "internalType": "uint8",
          "name": "operation",
          "type": "uint8"
        }
      ],
      "name": "executeUserOpWithErrorString",
      "outputs": [],
      "stateMutability": "nonpayable",
      "type": "function"
    },
    {
      "inputs": [],
      "name": "fallbackHandler",
      "outputs": [
        {
          "internalType": "address",
          "name": "",
          "type": "address"
        }
      ],
      "stateMutability": "view",
      "type": "function"
    },
    {
      "inputs": [],
      "name": "getChainId",
      "outputs": [
        {
          "internalType": "uint256",
          "name": "",
          "type": "uint256"
        }
      ],
      "stateMutability": "view",
      "type": "function"
    },
    {
      "inputs": [
        {
          "components": [
            {
              "internalType": "address",
              "name": "sender",
              "type": "address"
            },
            {
              "internalType": "uint256",
              "name": "nonce",
              "type": "uint256"
            },
            {
              "internalType": "bytes",
              "name": "initCode",
              "type": "bytes"
            },
            {
              "internalType": "bytes",
              "name": "callData",
              "type": "bytes"
            },
            {
              "internalType": "bytes32",
              "name": "accountGasLimits",
              "type": "bytes32"
            },
            {
              "internalType": "uint256",
              "name": "preVerificationGas",
              "type": "uint256"
            },
            {
              "internalType": "bytes32",
              "name": "gasFees",
              "type": "bytes32"
            },
            {
              "internalType": "bytes",
              "name": "paymasterAndData",
              "type": "bytes"
            },
            {
              "internalType": "bytes",
              "name": "signature",
              "type": "bytes"
            }
          ],
          "internalType": "struct PackedUserOperation",
          "name": "userOp",
          "type": "tuple"
        }
      ],
      "name": "getOperationHash",
      "outputs": [
        {
          "internalType": "bytes32",
          "name": "operationHash",
          "type": "bytes32"
        }
      ],
      "stateMutability": "view",
      "type": "function"
    },
    {
      "inputs": [
        {
          "internalType": "address",
          "name": "",
          "type": "address"
        }
      ],
      "name": "modules",
      "outputs": [
        {
          "internalType": "bool",
          "name": "",
          "type": "bool"
        }
      ],
      "stateMutability": "view",
      "type": "function"
    },
    {
      "inputs": [],
      "name": "nonce",
      "outputs": [
        {
          "internalType": "uint256",
          "name": "",
          "type": "uint256"
        }
      ],
      "stateMutability": "view",
      "type": "function"
    },
    {
      "inputs": [],
      "name": "owner",
      "outputs": [
        {
          "internalType": "address",
          "name": "",
          "type": "address"
        }
      ],
      "stateMutability": "view",
      "type": "function"
    },
    {
      "inputs": [
        {
          "internalType": "address",
          "name": "_fallbackHandler",
          "type": "address"
        },
        {
          "internalType": "address",
          "name": "_module",
          "type": "address"
        }
      ],
      "name": "setup",
      "outputs": [],
      "stateMutability": "nonpayable",
      "type": "function"
    },
    {
      "inputs": [],
      "name": "singleton",
      "outputs": [
        {
          "internalType": "address",
          "name": "",
          "type": "address"
        }
      ],
      "stateMutability": "view",
      "type": "function"
    },
    {
      "inputs": [
        {
          "components": [
            {
              "internalType": "address",
              "name": "sender",
              "type": "address"
            },
            {
              "internalType": "uint256",
              "name": "nonce",
              "type": "uint256"
            },
            {
              "internalType": "bytes",
              "name": "initCode",
              "type": "bytes"
            },
            {
              "internalType": "bytes",
              "name": "callData",
              "type": "bytes"
            },
            {
              "internalType": "bytes32",
              "name": "accountGasLimits",
              "type": "bytes32"
            },
            {
              "internalType": "uint256",
              "name": "preVerificationGas",
              "type": "uint256"
            },
            {
              "internalType": "bytes32",
              "name": "gasFees",
              "type": "bytes32"
            },
            {
              "internalType": "bytes",
              "name": "paymasterAndData",
              "type": "bytes"
            },
            {
              "internalType": "bytes",
              "name": "signature",
              "type": "bytes"
            }
          ],
          "internalType": "struct PackedUserOperation",
          "name": "userOp",
          "type": "tuple"
        },
        {
          "internalType": "bytes32",
          "name": "",
          "type": "bytes32"
        },
        {
          "internalType": "uint256",
          "name": "missingAccountFunds",
          "type": "uint256"
        }
      ],
      "name": "validateUserOp",
      "outputs": [
        {
          "internalType": "uint256",
          "name": "validationData",
          "type": "uint256"
        }
      ],
      "stateMutability": "nonpayable",
      "type": "function"
    },
    {
      "stateMutability": "payable",
      "type": "receive"
    }
  ],
  "bytecode": "0x60a034609457601f6110bd38819003918201601f19168301916001600160401b03831184841017609957808492602094604052833981010312609457516001600160a01b0381168103609457600180546001600160a01b0319163317905560805260405161100d90816100b08239608051818181610308015281816103d6015281816106fc015281816108b90152610f400152f35b600080fd5b634e487b7160e01b600052604160045260246000fdfe608060409080825260049081361015610054575b505036156100525760025490811561005257600080915192368285373360601b36850152838260143601925af13d6000833e1561004e573d90f35b3d90fd5b005b600091823560e01c918263137e051e1461089a5750816319822f7c146106bd57816329238ee41461066e5781632d34ba791461059d5781633408e47014610255578163468721a7146105075781635229073f1461045f578163541d63c8146103ac5781637bb37428146102de5781638da5cb5b146102b6578163934f3a111461025a5781639a8a059214610255578163a8ee49fe14610219578163affed0e0146101fa578163b62654fb146101d4578163bbe5dc4f1461017957508063eed2f252146101515763f698da251461012a5780610013565b903461014d578160031936011261014d57602090610146610d9f565b9051908152f35b5080fd5b50903461014d578160031936011261014d576020906001600160a01b03600254169051908152f35b839150346101d057600319926020368501126101cd5781359367ffffffffffffffff851161014d576101209085360301126101cd57506020926101bc9101610de9565b505050508281519101209051908152f35b80fd5b8280fd5b82843461014d578160031936011261014d576001600160a01b0360209254169051908152f35b839150346101d057826003193601126101d05760209250549051908152f35b82843461014d57602036600319011261014d5760ff816020936001600160a01b03610242610952565b1681526003855220541690519015158152f35b610968565b90503461014d57606036600319011261014d5767ffffffffffffffff906024358281116102b25761028e9036908301610a6a565b6044359283116102b2576102a86102af9336908401610a6a565b9135610c19565b80f35b8380fd5b82843461014d578160031936011261014d576020906001600160a01b03600154169051908152f35b905082346101d0578280600160ff6102f536610a88565b61032f6001600160a01b039693949592967f0000000000000000000000000000000000000000000000000000000000000000163314610adc565b16036103955750602082519201905af4610347610b9e565b505b15610352578280f35b906020606492519162461bcd60e51b8352820152601060248201527f457865637574696f6e206661696c6564000000000000000000000000000000006044820152fd5b602083519301915af16103a6610b9e565b50610349565b905082346101d0578280600160ff6103c336610a88565b6103fd6001600160a01b039693949592967f0000000000000000000000000000000000000000000000000000000000000000163314610adc565b16036104475750602082519201905af490610416610b9e565b915b15610421578380f35b60209291610443915193849362461bcd60e51b85528401526024830190610983565b0390fd5b602083519301915af190610459610b9e565b91610418565b5050346101cd5780600160ff610474366108dd565b879692939496959195503388526003602052610494828b8a205416610bce565b16036104dc576001600160a01b039150828751938492833781018581520392165af46104d86104c1610b9e565b835193849315158452806020850152830190610983565b0390f35b6001600160a01b0390838851948592833781018681520393165af16104d8610502610b9e565b6104c1565b82843461014d5781602092600160ff61051f366108dd565b8796929394969591955033885260038b5261053e828b8a205416610bce565b1603610573576001600160a01b039150828751938492833781018581520392165af4610568610b9e565b50905b519015158152f35b6001600160a01b0390838851948592833781018681520393165af1610596610b9e565b509061056b565b839150346101d057816003193601126101d0576105b8610952565b90602435916001600160a01b039081841680940361066a576001549282841661062757507fffffffffffffffffffffffff000000000000000000000000000000000000000092833391161760015516906002541617600255825260036020528120600160ff1982541617905580f35b606490602087519162461bcd60e51b8352820152600d60248201527f416c7265616479207365747570000000000000000000000000000000000000006044820152fd5b8580fd5b82843461014d5781602092600160ff610686366108dd565b879692939496959195501614600014610573576001600160a01b039150828751938492833781018581520392165af4610568610b9e565b90503461014d57600319906060368301126101d05780359167ffffffffffffffff83116102b2576101208383019184360301126102b2576044359160647f0000000000000000000000000000000000000000000000000000000000000000946107306001600160a01b0387163314610adc565b0161073b8184610b27565b906107687fffffffff00000000000000000000000000000000000000000000000000000000928392610b5a565b167f7bb37428000000000000000000000000000000000000000000000000000000001491821561085a575b5050156107f157509183916107c86107c26107b060209896610de9565b84518d86012095935036925090610a33565b91610c19565b806107d7575b50505051908152f35b8280929181925af1506107e8610b9e565b508138806107ce565b608490602087519162461bcd60e51b8352820152602160248201527f556e737570706f7274656420657865637574696f6e2066756e6374696f6e206960448201527f64000000000000000000000000000000000000000000000000000000000000006064820152fd5b61087091925061086a9085610b27565b90610b5a565b167f541d63c800000000000000000000000000000000000000000000000000000000143880610793565b83903461014d578160031936011261014d576020906001600160a01b037f0000000000000000000000000000000000000000000000000000000000000000168152f35b90608060031983011261094d576004356001600160a01b038116810361094d57916024359160443567ffffffffffffffff9283821161094d578060238301121561094d57816004013593841161094d576024848301011161094d57602401919060643560ff8116810361094d5790565b600080fd5b600435906001600160a01b038216820361094d57565b3461094d57600036600319011261094d576020604051468152f35b919082519283825260005b8481106109af575050826000602080949584010152601f8019910116010190565b60208183018101518483018201520161098e565b6080810190811067ffffffffffffffff8211176109df57604052565b634e487b7160e01b600052604160045260246000fd5b90601f8019910116810190811067ffffffffffffffff8211176109df57604052565b67ffffffffffffffff81116109df57601f01601f191660200190565b929192610a3f82610a17565b91610a4d60405193846109f5565b82948184528183011161094d578281602093846000960137010152565b9080601f8301121561094d57816020610a8593359101610a33565b90565b608060031982011261094d576004356001600160a01b038116810361094d5791602435916044359067ffffffffffffffff821161094d57610acb91600401610a6a565b9060643560ff8116810361094d5790565b15610ae357565b606460405162461bcd60e51b815260206004820152601760248201527f556e737570706f7274656420656e74727920706f696e740000000000000000006044820152fd5b903590601e198136030182121561094d570180359067ffffffffffffffff821161094d5760200191813603831361094d57565b7fffffffff000000000000000000000000000000000000000000000000000000009035818116939260048110610b8f57505050565b60040360031b82901b16169150565b3d15610bc9573d90610baf82610a17565b91610bbd60405193846109f5565b82523d6000602084013e565b606090565b15610bd557565b606460405162461bcd60e51b815260206004820152601260248201527f6e6f7420657865637574696e67207468617400000000000000000000000000006044820152fd5b91909182516020809401208103610d5b57828201519160606040820151910151916000916001600160a01b039384600154169560405191888301947f19457468657265756d205369676e6564204d6573736167653a0a3332000000008652603c840152603c8352606083019483861067ffffffffffffffff871117610d475760408690528351902090861a600319019060ff8211610d3357608093869360ff89979460c0948e9a52168683015260a0820152015282805260015afa15610d2757511603610ce35750565b6064906040519062461bcd60e51b82526004820152601160248201527f496e76616c6964207369676e61747572650000000000000000000000000000006044820152fd5b604051903d90823e3d90fd5b602487634e487b7160e01b81526011600452fd5b602487634e487b7160e01b81526041600452fd5b6064836040519062461bcd60e51b82526004820152601160248201527f496e76616c6964206461746120686173680000000000000000000000000000006044820152fd5b60405160208101907f47e79534a245952e8b16893a336b85a3d9ea9fa8c573f3d803afb92a79469218825246604082015230606082015260608152610de3816109c3565b51902090565b61010090610df982820182610b27565b90918160061161094d57823560d01c9382600c1161094d57600c600685013560d01c940192600b1901918035916001600160a01b0380841680940361094d57602093610e52610e4b6040860186610b27565b3691610a33565b85815191012090610e69610e4b6060870187610b27565b868151910120946080810135946fffffffffffffffffffffffffffffffff9260c083013592610e9e610e4b60e0830183610b27565b8a815191012095604051986101c09a8b8b01928b841067ffffffffffffffff8511176109df5760a0958e7fc03dfc11d8b10bf9cf703d558958c8c42777f785d998c62060d85a4f0ef6ea7f8e8c97604052528d01528d85013560408d015260608c015260808b01528060801c848b01521660c0890152013560e08701528160801c908601521661012084015261014083015287610160830152866101808301527f0000000000000000000000000000000000000000000000000000000000000000166101a082015220610f6f610d9f565b7f1900000000000000000000000000000000000000000000000000000000000000604051938401527f010000000000000000000000000000000000000000000000000000000000000060218401526022830152604282015260428152610fd4816109c3565b9456fea26469706673582212202cecaf2b25746d043f0fbcf842a9afded4fac852183461c8346216ba98b7d6c964736f6c63430008190033",
  "linkReferences": {},
  "deployedLinkReferences": {}
}