{
  "_format": "hh-sol-artifact-1",
  "contractName": "MSAFactory",
  "sourceName": "erc7579/MSAFactory.sol",
  "abi": [
    {
      "inputs": [
        {
          "internalType": "address",
          "name": "_msaImplementation",
          "type": "address"
        }
      ],
      "stateMutability": "nonpayable",
      "type": "constructor"
    },
    {
      "inputs": [
        {
          "internalType": "bytes32",
          "name": "_salt",
          "type": "bytes32"
        },
        {
          "internalType": "bytes",
          "name": "initCode",
          "type": "bytes"
        }
      ],
      "name": "_getSalt",
      "outputs": [
        {
          "internalType": "bytes32",
          "name": "salt",
          "type": "bytes32"
        }
      ],
      "stateMutability": "pure",
      "type": "function"
    },
    {
      "inputs": [
        {
          "internalType": "bytes32",
          "name": "salt",
          "type": "bytes32"
        },
        {
          "internalType": "bytes",
          "name": "initCode",
          "type": "bytes"
        }
      ],
      "name": "createAccount",
      "outputs": [
        {
          "internalType": "address",
          "name": "",
          "type": "address"
        }
      ],
      "stateMutability": "payable",
      "type": "function"
    },
    {
      "inputs": [
        {
          "internalType": "bytes32",
          "name": "salt",
          "type": "bytes32"
        },
        {
          "internalType": "bytes",
          "name": "initcode",
          "type": "bytes"
        }
      ],
      "name": "getAddress",
      "outputs": [
        {
          "internalType": "address",
          "name": "",
          "type": "address"
        }
      ],
      "stateMutability": "view",
      "type": "function"
    },
    {
      "inputs": [],
      "name": "implementation",
      "outputs": [
        {
          "internalType": "address",
          "name": "",
          "type": "address"
        }
      ],
      "stateMutability": "view",
      "type": "function"
    }
  ],
  "bytecode": "0x60a034607357601f6104ed38819003918201601f19168301916001600160401b03831184841017607857808492602094604052833981010312607357516001600160a01b038116810360735760805260405161045e908161008f823960805181818160b8015281816102b501526103340152f35b600080fd5b634e487b7160e01b600052604160045260246000fdfe60406080815260048036101561001457600080fd5b600090813560e01c806356c717f5146103585780635c60da1b14610314578063d959fd0e146102405763f8a593701461004c57600080fd5b6100639161005936610375565b81819692936103c7565b9382948651947fcc3735a920a3ca505d382bbc545af43d6000803e6038573d6000fd5b3d6000f36060527f5155f3363d3d373d3d363d7f360894a13ba1a3210667c828492db98dca3e207688526160096020527f0000000000000000000000000000000000000000000000000000000000000000601e5268603d3d8160223d3973600a52605f96602192605f60212060358901523060581b885260ff885380601589015260558820983415948a3b1561021f57505050506001916102195784388180348b5af11561020e57505b8487528360605215610150575b6020856001600160a01b03885191168152f35b6001600160a01b03851691823b1561020a5791848460448285819684987f4b6a141900000000000000000000000000000000000000000000000000000000845260206004850152816024850152848401378181018301849052601f01601f191681010301925af180156101fe576101c9575b808061013d565b67ffffffffffffffff82116101ea575082526001600160a01b0360206101c2565b80634e487b7160e01b602492526041600452fd5b508351903d90823e3d90fd5b8380fd5b63b12d13eb8552601cfd5b50610130565b9193995091935034f59586156102355750610130565b63301164258552601cfd5b82843461031057906001600160a01b0360209261026561025f36610375565b916103c7565b81517fcc3735a920a3ca505d382bbc545af43d6000803e6038573d6000fd5b3d6000f36060527f5155f3363d3d373d3d363d7f360894a13ba1a3210667c828492db98dca3e2076835261600986527f0000000000000000000000000000000000000000000000000000000000000000601e5268603d3d8160223d3973600a52605f6021209083528460605260ff85536035523060601b60015260155260558320926035525191168152f35b5080fd5b828434610310578160031936011261031057602090516001600160a01b037f0000000000000000000000000000000000000000000000000000000000000000168152f35b8284346103105760209061036e61025f36610375565b9051908152f35b60406003198201126103c2576004359160243567ffffffffffffffff928382116103c257806023830112156103c25781600401359384116103c257602484830101116103c2576024019190565b600080fd5b91908160405192839260208401958652604084013781016000604082015203602081018252605f601f19910116810181811067ffffffffffffffff8211176104125760405251902090565b634e487b7160e01b600052604160045260246000fdfea2646970667358221220ef533c418bef6be7b8d9f27e2a0a3d8a4bb8b8046e0634ce20898c148b1537db64736f6c63430008190033",
  "linkReferences": {},
  "deployedLinkReferences": {}
}