{
  "_format": "hh-sol-artifact-1",
  "contractName": "TestSafeSignerLaunchpad",
  "sourceName": "contracts/test/TestSafeSignerLaunchpad.sol",
  "abi": [
    {
      "inputs": [
        {
          "internalType": "address",
          "name": "entryPoint",
          "type": "address"
        }
      ],
      "stateMutability": "nonpayable",
      "type": "constructor"
    },
    {
      "inputs": [],
      "name": "SUPPORTED_ENTRYPOINT",
      "outputs": [
        {
          "internalType": "address",
          "name": "",
          "type": "address"
        }
      ],
      "stateMutability": "view",
      "type": "function"
    },
    {
      "inputs": [],
      "name": "_initHash",
      "outputs": [
        {
          "internalType": "bytes32",
          "name": "value",
          "type": "bytes32"
        }
      ],
      "stateMutability": "view",
      "type": "function"
    },
    {
      "inputs": [
        {
          "internalType": "address",
          "name": "singleton",
          "type": "address"
        },
        {
          "internalType": "address",
          "name": "signerFactory",
          "type": "address"
        },
        {
          "internalType": "bytes",
          "name": "signerData",
          "type": "bytes"
        },
        {
          "internalType": "address",
          "name": "setupTo",
          "type": "address"
        },
        {
          "internalType": "bytes",
          "name": "setupData",
          "type": "bytes"
        },
        {
          "internalType": "address",
          "name": "fallbackHandler",
          "type": "address"
        }
      ],
      "name": "getInitHash",
      "outputs": [
        {
          "internalType": "bytes32",
          "name": "initHash",
          "type": "bytes32"
        }
      ],
      "stateMutability": "view",
      "type": "function"
    },
    {
      "inputs": [
        {
          "internalType": "bytes32",
          "name": "userOpHash",
          "type": "bytes32"
        },
        {
          "internalType": "uint48",
          "name": "validAfter",
          "type": "uint48"
        },
        {
          "internalType": "uint48",
          "name": "validUntil",
          "type": "uint48"
        }
      ],
      "name": "getOperationHash",
      "outputs": [
        {
          "internalType": "bytes32",
          "name": "operationHash",
          "type": "bytes32"
        }
      ],
      "stateMutability": "view",
      "type": "function"
    },
    {
      "inputs": [
        {
          "internalType": "address",
          "name": "singleton",
          "type": "address"
        },
        {
          "internalType": "address",
          "name": "signerFactory",
          "type": "address"
        },
        {
          "internalType": "bytes",
          "name": "signerData",
          "type": "bytes"
        },
        {
          "internalType": "address",
          "name": "setupTo",
          "type": "address"
        },
        {
          "internalType": "bytes",
          "name": "setupData",
          "type": "bytes"
        },
        {
          "internalType": "address",
          "name": "fallbackHandler",
          "type": "address"
        },
        {
          "internalType": "bytes",
          "name": "callData",
          "type": "bytes"
        }
      ],
      "name": "initializeThenUserOp",
      "outputs": [],
      "stateMutability": "nonpayable",
      "type": "function"
    },
    {
      "inputs": [
        {
          "internalType": "bytes32",
          "name": "initHash",
          "type": "bytes32"
        },
        {
          "internalType": "address",
          "name": "to",
          "type": "address"
        },
        {
          "internalType": "bytes",
          "name": "preInit",
          "type": "bytes"
        }
      ],
      "name": "preValidationSetup",
      "outputs": [],
      "stateMutability": "nonpayable",
      "type": "function"
    },
    {
      "inputs": [
        {
          "components": [
            {
              "internalType": "address",
              "name": "sender",
              "type": "address"
            },
            {
              "internalType": "uint256",
              "name": "nonce",
              "type": "uint256"
            },
            {
              "internalType": "bytes",
              "name": "initCode",
              "type": "bytes"
            },
            {
              "internalType": "bytes",
              "name": "callData",
              "type": "bytes"
            },
            {
              "internalType": "bytes32",
              "name": "accountGasLimits",
              "type": "bytes32"
            },
            {
              "internalType": "uint256",
              "name": "preVerificationGas",
              "type": "uint256"
            },
            {
              "internalType": "bytes32",
              "name": "gasFees",
              "type": "bytes32"
            },
            {
              "internalType": "bytes",
              "name": "paymasterAndData",
              "type": "bytes"
            },
            {
              "internalType": "bytes",
              "name": "signature",
              "type": "bytes"
            }
          ],
          "internalType": "struct PackedUserOperation",
          "name": "userOp",
          "type": "tuple"
        },
        {
          "internalType": "bytes32",
          "name": "userOpHash",
          "type": "bytes32"
        },
        {
          "internalType": "uint256",
          "name": "missingAccountFunds",
          "type": "uint256"
        }
      ],
      "name": "validateUserOp",
      "outputs": [
        {
          "internalType": "uint256",
          "name": "validationData",
          "type": "uint256"
        }
      ],
      "stateMutability": "nonpayable",
      "type": "function"
    },
    {
      "stateMutability": "payable",
      "type": "receive"
    }
  ],
  "bytecode": "0x60c0346100e557601f61112a38819003918201601f19168301916001600160401b038311848410176100ea578084926020946040528339810103126100e557516001600160a01b0381168082036100e557156100a0573060805260a052604051611029908161010182396080518181816101df015281816106680152610ec1015260a05181818161034a0152818161069b01528181610b240152610f640152f35b60405162461bcd60e51b815260206004820152601360248201527f496e76616c696420656e74727920706f696e74000000000000000000000000006044820152606490fd5b600080fd5b634e487b7160e01b600052604160045260246000fdfe608080604052600436101561001d575b50361561001b57600080fd5b005b600090813560e01c908163137e051e14610b055750806319822f7c146106165780631e48143b146102a25780634fff40e11461018f5780636cbc5b9714610105578063c0d13687146100b25763c67e2d2a0361000f57346100af57806003193601126100af5760207f1d2f0b9dbb6ed3f829c9614e6c5d2ea2285238801394dc57e8500e0e306d8f8054604051908152f35b80fd5b50346100af5760603660031901126100af5765ffffffffffff6024358181168103610100576044359182168203610100576020916100f291600435610f0a565b818151910120604051908152f35b600080fd5b50346100af5760c03660031901126100af5761011f610b4c565b90610128610b62565b9067ffffffffffffffff60443581811161018b5761014a903690600401610c26565b90610153610b78565b926084359182116100af576020610183878787876101743660048a01610c26565b9261017d610b8e565b94610d9b565b604051908152f35b8280fd5b50346100af5760603660031901126100af57806101aa610b62565b60443567ffffffffffffffff811161029e576101ca903690600401610ba4565b6001600160a01b0392919261020581865416827f00000000000000000000000000000000000000000000000000000000000000001614610c6d565b6004357f1d2f0b9dbb6ed3f829c9614e6c5d2ea2285238801394dc57e8500e0e306d8f8055821661023557505050f35b8392816040519283928337810184815203915af4610251610d6b565b501561025a5780f35b606460405162461bcd60e51b815260206004820152601960248201527f5072652d696e697469616c697a6174696f6e206661696c6564000000000000006044820152fd5b5050fd5b50346100af5760e03660031901126100af576102bc610b4c565b906102c5610b62565b60443567ffffffffffffffff811161018b576102e5903690600401610ba4565b6102f0929192610b78565b9260843567ffffffffffffffff811161059557610311903690600401610ba4565b9161031a610b8e565b9460c43567ffffffffffffffff8111610612576103436001600160a01b03913690600401610c26565b99610371827f0000000000000000000000000000000000000000000000000000000000000000163314610cb8565b167fffffffffffffffffffffffff0000000000000000000000000000000000000000895416178855604051946040860186811067ffffffffffffffff8211176105fe579161040f9391602093604052600188528336818a01378a6001600160a01b036040518097819682957fd312e1820000000000000000000000000000000000000000000000000000000084528960048501526024840191610d4a565b0393165af19081156105f35787916105ad575b50835115610599576001600160a01b03166020840152303b156105955793918593916040519586947fb63e800d00000000000000000000000000000000000000000000000000000000865261010486016101006004880152845180915260206101248801950190885b81811061057057505050926001600160a01b03926104c59284889796600160248a0152166044880152600319878403016064880152610d4a565b911660848301528360a48301528360c48301528360e4830152038183305af1801561056557610539575b50808260208294519101305af4610504610d6b565b90156105315750807f1d2f0b9dbb6ed3f829c9614e6c5d2ea2285238801394dc57e8500e0e306d8f805580f35b602081519101fd5b67ffffffffffffffff811161055157604052386104ef565b602482634e487b7160e01b81526041600452fd5b6040513d84823e3d90fd5b82516001600160a01b031687528b99508a98506020968701969092019160010161048b565b8580fd5b602487634e487b7160e01b81526032600452fd5b90506020813d6020116105eb575b816105c860209383610bd2565b810103126105e757516001600160a01b03811681036105e75738610422565b8680fd5b3d91506105bb565b6040513d89823e3d90fd5b60248a634e487b7160e01b81526041600452fd5b8880fd5b50346100af5760603660031901126100af5767ffffffffffffffff9081600435116100af57610120600435360360031901126100af576044359061068e6001600160a01b038254166001600160a01b037f00000000000000000000000000000000000000000000000000000000000000001614610c6d565b6106c26001600160a01b037f0000000000000000000000000000000000000000000000000000000000000000163314610cb8565b6064600435016106d781600435600401610d03565b60041161018b57357fffffffff00000000000000000000000000000000000000000000000000000000167f1e48143b0000000000000000000000000000000000000000000000000000000003610ac15761073690600435600401610d03565b8060041161018b5760e06003198383810103011261018b5761075a60048301610d36565b61076660248401610d36565b9560448401358181116105955761078590600485870191870101610c26565b9661079260648601610d36565b946084810135838111610abd576107b190600487840191840101610c26565b946107be60a48301610d36565b9360c483013511610abd57926001600160a01b038080809997956107f4868f976108039c9a600491019160c48101350101610c26565b50169889931696169316610d9b565b7f1d2f0b9dbb6ed3f829c9614e6c5d2ea2285238801394dc57e8500e0e306d8f805403610a795761083f61010460043501600435600401610d03565b80600611610a755781359181600c11610a715792959060068401359361086e8560d01c8560d01c602435610f0a565b908151986020809a8180950120956108c86040519687957f930bbb3b00000000000000000000000000000000000000000000000000000000998a8852600488015260606024880152600c6064880192600b19019101610d4a565b848103600319016044860152815180825290918b5b828110610a5a57505080820183018b9052601f01601f191601839003019082905afa859181610a02575b506109665750509065ffffffffffff60a01b7fffffffffffff0000000000000000000000000000000000000000000000000000600193169160301c161717915b80610957575b5050604051908152f35b81808092335af150388061094d565b7fffffffff0000000000000000000000000000000000000000000000000000000016146109ce5760ff65ffffffffffff60a01b7fffffffffffff00000000000000000000000000000000000000000000000000006001935b169360301c169116171791610947565b60ff65ffffffffffff60a01b7fffffffffffff000000000000000000000000000000000000000000000000000085936109be565b9091508781813d8311610a53575b610a1a8183610bd2565b8101031261059557517fffffffff0000000000000000000000000000000000000000000000000000000081168103610595579038610907565b503d610a10565b8181018501518482018601528896508794016108dd565b8480fd5b8380fd5b606460405162461bcd60e51b815260206004820152601160248201527f696e76616c696420696e697420686173680000000000000000000000000000006044820152fd5b8780fd5b606460405162461bcd60e51b815260206004820152601b60248201527f696e76616c69642075736572206f7065726174696f6e206461746100000000006044820152fd5b905034610b485781600319360112610b48576020906001600160a01b037f0000000000000000000000000000000000000000000000000000000000000000168152f35b5080fd5b600435906001600160a01b038216820361010057565b602435906001600160a01b038216820361010057565b606435906001600160a01b038216820361010057565b60a435906001600160a01b038216820361010057565b9181601f840112156101005782359167ffffffffffffffff8311610100576020838186019501011161010057565b90601f8019910116810190811067ffffffffffffffff821117610bf457604052565b634e487b7160e01b600052604160045260246000fd5b67ffffffffffffffff8111610bf457601f01601f191660200190565b81601f8201121561010057803590610c3d82610c0a565b92610c4b6040519485610bd2565b8284526020838301011161010057816000926020809301838601378301015290565b15610c7457565b606460405162461bcd60e51b815260206004820152601560248201527f4e6f742063616c6c65642066726f6d2070726f787900000000000000000000006044820152fd5b15610cbf57565b606460405162461bcd60e51b815260206004820152601760248201527f556e737570706f7274656420656e74727920706f696e740000000000000000006044820152fd5b903590601e1981360301821215610100570180359067ffffffffffffffff82116101005760200191813603831361010057565b35906001600160a01b038216820361010057565b908060209392818452848401376000828201840152601f01601f1916010190565b3d15610d96573d90610d7c82610c0a565b91610d8a6040519384610bd2565b82523d6000602084013e565b606090565b94909194939293610daa610e86565b95602081519101209360208151910120906040519560208701957f3565799491ede9e021df3b63e9a96d4163c2ee6b9c993a77d0f2109cffc735e687526001600160a01b0380968180951660408b015216606089015260808801521660a086015260c08501521660e083015260e0825261010082019180831067ffffffffffffffff841117610bf457610e6d610e80928460405282519020610120830195869091604292601960f81b8352600160f81b6001840152600283015260228201520190565b0361011f198101835260ff190182610bd2565b51902090565b60405160208101907f47e79534a245952e8b16893a336b85a3d9ea9fa8c573f3d803afb92a7946921882524660408201526001600160a01b037f0000000000000000000000000000000000000000000000000000000000000000166060820152606081526080810181811067ffffffffffffffff821117610bf45760405251902090565b91610f13610e86565b916040519160208301947f25838d3914a61e3531f21f12b8cd3110a5f9d478292d07dd197859a5c4eaacb28652604084015265ffffffffffff80921660608401521660808201526001600160a01b037f00000000000000000000000000000000000000000000000000000000000000001660a082015260a0815260c081019281841067ffffffffffffffff851117610bf457610ff092610fde9185604052835190209060e084019091604292601960f81b8352600160f81b6001840152600283015260228201520190565b0360df198101835260bf190182610bd2565b9056fea26469706673582212209ed21f8aff770feb45d42460e64db07af7f3da00d3425a29d63c005f644009c864736f6c63430008190033",
  "linkReferences": {},
  "deployedLinkReferences": {}
}