{
  "_format": "hh-sol-artifact-1",
  "contractName": "HariWillibaldToken",
  "sourceName": "contracts/test/TestToken.sol",
  "abi": [
    {
      "inputs": [
        {
          "internalType": "address",
          "name": "initialMintDest",
          "type": "address"
        }
      ],
      "stateMutability": "nonpayable",
      "type": "constructor"
    },
    {
      "inputs": [],
      "name": "InvalidShortString",
      "type": "error"
    },
    {
      "inputs": [
        {
          "internalType": "string",
          "name": "str",
          "type": "string"
        }
      ],
      "name": "StringTooLong",
      "type": "error"
    },
    {
      "anonymous": false,
      "inputs": [
        {
          "indexed": true,
          "internalType": "address",
          "name": "owner",
          "type": "address"
        },
        {
          "indexed": true,
          "internalType": "address",
          "name": "spender",
          "type": "address"
        },
        {
          "indexed": false,
          "internalType": "uint256",
          "name": "value",
          "type": "uint256"
        }
      ],
      "name": "Approval",
      "type": "event"
    },
    {
      "anonymous": false,
      "inputs": [],
      "name": "EIP712DomainChanged",
      "type": "event"
    },
    {
      "anonymous": false,
      "inputs": [
        {
          "indexed": true,
          "internalType": "address",
          "name": "from",
          "type": "address"
        },
        {
          "indexed": true,
          "internalType": "address",
          "name": "to",
          "type": "address"
        },
        {
          "indexed": false,
          "internalType": "uint256",
          "name": "value",
          "type": "uint256"
        }
      ],
      "name": "Transfer",
      "type": "event"
    },
    {
      "inputs": [],
      "name": "DOMAIN_SEPARATOR",
      "outputs": [
        {
          "internalType": "bytes32",
          "name": "",
          "type": "bytes32"
        }
      ],
      "stateMutability": "view",
      "type": "function"
    },
    {
      "inputs": [
        {
          "internalType": "address",
          "name": "owner",
          "type": "address"
        },
        {
          "internalType": "address",
          "name": "spender",
          "type": "address"
        }
      ],
      "name": "allowance",
      "outputs": [
        {
          "internalType": "uint256",
          "name": "",
          "type": "uint256"
        }
      ],
      "stateMutability": "view",
      "type": "function"
    },
    {
      "inputs": [
        {
          "internalType": "address",
          "name": "spender",
          "type": "address"
        },
        {
          "internalType": "uint256",
          "name": "amount",
          "type": "uint256"
        }
      ],
      "name": "approve",
      "outputs": [
        {
          "internalType": "bool",
          "name": "",
          "type": "bool"
        }
      ],
      "stateMutability": "nonpayable",
      "type": "function"
    },
    {
      "inputs": [
        {
          "internalType": "address",
          "name": "account",
          "type": "address"
        }
      ],
      "name": "balanceOf",
      "outputs": [
        {
          "internalType": "uint256",
          "name": "",
          "type": "uint256"
        }
      ],
      "stateMutability": "view",
      "type": "function"
    },
    {
      "inputs": [],
      "name": "decimals",
      "outputs": [
        {
          "internalType": "uint8",
          "name": "",
          "type": "uint8"
        }
      ],
      "stateMutability": "view",
      "type": "function"
    },
    {
      "inputs": [
        {
          "internalType": "address",
          "name": "spender",
          "type": "address"
        },
        {
          "internalType": "uint256",
          "name": "subtractedValue",
          "type": "uint256"
        }
      ],
      "name": "decreaseAllowance",
      "outputs": [
        {
          "internalType": "bool",
          "name": "",
          "type": "bool"
        }
      ],
      "stateMutability": "nonpayable",
      "type": "function"
    },
    {
      "inputs": [],
      "name": "eip712Domain",
      "outputs": [
        {
          "internalType": "bytes1",
          "name": "fields",
          "type": "bytes1"
        },
        {
          "internalType": "string",
          "name": "name",
          "type": "string"
        },
        {
          "internalType": "string",
          "name": "version",
          "type": "string"
        },
        {
          "internalType": "uint256",
          "name": "chainId",
          "type": "uint256"
        },
        {
          "internalType": "address",
          "name": "verifyingContract",
          "type": "address"
        },
        {
          "internalType": "bytes32",
          "name": "salt",
          "type": "bytes32"
        },
        {
          "internalType": "uint256[]",
          "name": "extensions",
          "type": "uint256[]"
        }
      ],
      "stateMutability": "view",
      "type": "function"
    },
    {
      "inputs": [
        {
          "internalType": "address",
          "name": "spender",
          "type": "address"
        },
        {
          "internalType": "uint256",
          "name": "addedValue",
          "type": "uint256"
        }
      ],
      "name": "increaseAllowance",
      "outputs": [
        {
          "internalType": "bool",
          "name": "",
          "type": "bool"
        }
      ],
      "stateMutability": "nonpayable",
      "type": "function"
    },
    {
      "inputs": [],
      "name": "name",
      "outputs": [
        {
          "internalType": "string",
          "name": "",
          "type": "string"
        }
      ],
      "stateMutability": "view",
      "type": "function"
    },
    {
      "inputs": [
        {
          "internalType": "address",
          "name": "owner",
          "type": "address"
        }
      ],
      "name": "nonces",
      "outputs": [
        {
          "internalType": "uint256",
          "name": "",
          "type": "uint256"
        }
      ],
      "stateMutability": "view",
      "type": "function"
    },
    {
      "inputs": [
        {
          "internalType": "address",
          "name": "owner",
          "type": "address"
        },
        {
          "internalType": "address",
          "name": "spender",
          "type": "address"
        },
        {
          "internalType": "uint256",
          "name": "value",
          "type": "uint256"
        },
        {
          "internalType": "uint256",
          "name": "deadline",
          "type": "uint256"
        },
        {
          "internalType": "uint8",
          "name": "v",
          "type": "uint8"
        },
        {
          "internalType": "bytes32",
          "name": "r",
          "type": "bytes32"
        },
        {
          "internalType": "bytes32",
          "name": "s",
          "type": "bytes32"
        }
      ],
      "name": "permit",
      "outputs": [],
      "stateMutability": "nonpayable",
      "type": "function"
    },
    {
      "inputs": [],
      "name": "symbol",
      "outputs": [
        {
          "internalType": "string",
          "name": "",
          "type": "string"
        }
      ],
      "stateMutability": "view",
      "type": "function"
    },
    {
      "inputs": [],
      "name": "totalSupply",
      "outputs": [
        {
          "internalType": "uint256",
          "name": "",
          "type": "uint256"
        }
      ],
      "stateMutability": "view",
      "type": "function"
    },
    {
      "inputs": [
        {
          "internalType": "address",
          "name": "to",
          "type": "address"
        },
        {
          "internalType": "uint256",
          "name": "amount",
          "type": "uint256"
        }
      ],
      "name": "transfer",
      "outputs": [
        {
          "internalType": "bool",
          "name": "",
          "type": "bool"
        }
      ],
      "stateMutability": "nonpayable",
      "type": "function"
    },
    {
      "inputs": [
        {
          "internalType": "address",
          "name": "from",
          "type": "address"
        },
        {
          "internalType": "address",
          "name": "to",
          "type": "address"
        },
        {
          "internalType": "uint256",
          "name": "amount",
          "type": "uint256"
        }
      ],
      "name": "transferFrom",
      "outputs": [
        {
          "internalType": "bool",
          "name": "",
          "type": "bool"
        }
      ],
      "stateMutability": "nonpayable",
      "type": "function"
    }
  ],
  "bytecode": "0x6101603461050057601f19906001600160401b0390601f90611a6538819003838101861683019291908584118385101761040e578083926040958652833960209283918101031261050057516001600160a01b03811691908290036105005782519361006a85610505565b60148552818501957f486172692057696c6c6962616c6420546f6b656e000000000000000000000000918288528551926100a384610505565b60148452848401528551926100b784610505565b6003998a8552621215d560ea1b8686015287519a6100d48c610505565b600190818d52878d0193603160f81b855280519087821161040e578254908482811c921680156104f6575b8b8310146104e057818884931161048f575b508a9088831160011461042f57600092610424575b505060001982841b1c191690831b1781555b86519186831161040e5760049788548281811c91168015610404575b8b8210146103ef578781116103a9575b508990878511600114610345578495509084929160009561033a575b50501b92600019911b1c19161784555b61019988610520565b98610120998a526101a98b6106d0565b98610140998a52519020998a60e0525190209061010099828b524660a052875192868401917f8b73c3c69bb8fe3d512ecc4cf759cc79239f7b179b0ffacaa9a75d522b39400f83528985015260608401524660808401523060a084015260a0835260c08301938385109085111761032557838852825190206080523060c05285156102e45750505060025469d3c21bcecceda1000000918282018092116102cf575060025560008381528083528481208054830190558451918252917fddf252ad1be2c89b69c2b068fc378daa952ba7f163c4a11628f55a4df523b3ef91a351916111f09384610875853960805184610d2b015260a05184610df7015260c05184610cfc015260e05184610d7a01525183610da0015251826104e8015251816105120152f35b601190634e487b7160e01b6000525260246000fd5b610104606493927f45524332303a206d696e7420746f20746865207a65726f206164647265737300928762461bcd60e51b865260c483015260e48201520152fd5b604185634e487b7160e01b6000525260246000fd5b015193503880610180565b92919484169289600052848b6000209460005b8d898383106103925750505010610378575b50505050811b018455610190565b01519060f884600019921b161c191690553880808061036a565b868601518955909701969485019488935001610358565b896000528a6000208880870160051c8201928d88106103e6575b0160051c019083905b8281106103da575050610164565b600081550183906103cc565b925081926103c3565b60228a634e487b7160e01b6000525260246000fd5b90607f1690610154565b634e487b7160e01b600052604160045260246000fd5b015190503880610126565b908686941691856000528c600020928d6000905b8282106104785750508411610460575b505050811b018155610138565b015160001983861b60f8161c19169055388080610453565b83850151865589979095019493840193018e610443565b909150836000528a6000208880850160051c8201928d86106104d7575b918791869594930160051c01915b8281106104c8575050610111565b600081558594508791016104ba565b925081926104ac565b634e487b7160e01b600052602260045260246000fd5b91607f16916100ff565b600080fd5b604081019081106001600160401b0382111761040e57604052565b805160209190828110156105ba575090601f82511161055b578082519201519080831061054c57501790565b82600019910360031b1b161790565b90604051809263305a27a960e01b82528060048301528251908160248401526000935b8285106105a1575050604492506000838284010152601f80199101168101030190fd5b848101820151868601604401529381019385935061057e565b6001600160401b03811161040e576005928354926001938481811c911680156106c6575b838210146104e057601f8111610692575b5081601f841160011461062c5750928293918392600094610621575b50501b916000199060031b1c191617905560ff90565b01519250388061060b565b919083601f1981168760005284600020946000905b88838310610678575050501061065f575b505050811b01905560ff90565b015160001960f88460031b161c19169055388080610652565b858701518855909601959485019487935090810190610641565b8560005284601f846000209201871c820191601f8601881c015b8281106106ba5750506105ef565b600081550185906106ac565b90607f16906105de565b8051602090818110156107595750601f8251116106fa578082519201519080831061054c57501790565b90604051809263305a27a960e01b82528060048301528251908160248401526000935b828510610740575050604492506000838284010152601f80199101168101030190fd5b848101820151868601604401529381019385935061071d565b906001600160401b03821161040e57600654926001938481811c9116801561086a575b838210146104e057601f8111610833575b5081601f84116001146107cb57509282939183926000946107c0575b50501b916000199060031b1c19161760065560ff90565b0151925038806107a9565b919083601f198116600660005284600020946000905b888383106108195750505010610800575b505050811b0160065560ff90565b015160001960f88460031b161c191690553880806107f2565b8587015188559096019594850194879350908101906107e1565b600660005284601f84600020920160051c820191601f860160051c015b82811061085e57505061078d565b60008155018590610850565b90607f169061077c56fe608060408181526004918236101561001657600080fd5b600092833560e01c91826306fdde031461083357508163095ea7b31461080957816318160ddd146107ea57816323b872dd1461071f578163313ce567146107035781633644e515146106df578163395093511461067957816370a08231146106435781637ecebe001461060c57816384b0196e146104d057816395d89b41146103dc578163a457c2d71461031b578163a9059cbb146102ea578163d505accf14610115575063dd62ed3e146100ca57600080fd5b34610111578060031936011261011157806020926100e661094b565b6100ee610966565b6001600160a01b0391821683526001865283832091168252845220549051908152f35b5080fd5b839150346101115760e03660031901126101115761013161094b565b610139610966565b906044359260643560843560ff811681036102e6578142116102a3576001600160a01b0390818516928389526007602052898920908154916001830190558a519060208201927f6e71edae12b1b97f4d1f60370fef10105fa2faae0126114a169c64845d6126c98452868d840152858a1660608401528a608084015260a083015260c082015260c0815260e0810181811067ffffffffffffffff821117610290578b5251902061023891610230916101ef610cf2565b908c51917f190100000000000000000000000000000000000000000000000000000000000083526002830152602282015260c43591604260a4359220610ff9565b919091611088565b160361024d575061024a939450610a0a565b80f35b606490602087519162461bcd60e51b8352820152601e60248201527f45524332305065726d69743a20696e76616c6964207369676e617475726500006044820152fd5b60248b604189634e487b7160e01b835252fd5b60648360208a519162461bcd60e51b8352820152601d60248201527f45524332305065726d69743a206578706972656420646561646c696e650000006044820152fd5b8680fd5b50503461011157806003193601126101115760209061031461030a61094b565b6024359033610b3e565b5160018152f35b905082346103d957826003193601126103d95761033661094b565b91836024359233815260016020528181206001600160a01b0386168252602052205490828210610370576020856103148585038733610a0a565b608490602086519162461bcd60e51b8352820152602560248201527f45524332303a2064656372656173656420616c6c6f77616e63652062656c6f7760448201527f207a65726f0000000000000000000000000000000000000000000000000000006064820152fd5b80fd5b919050346104cc57826003193601126104cc5780518381949084546104008161097c565b91828552602096600192886001821691826000146104a2575050600114610447575b858861044389610434848a03856109e8565b5192828493845283019061090b565b0390f35b815286935091907f8a35acfbc15ff81a39ae7d344fd709f28e8600b4aa8c65c6b64bfe7fe36bd19b5b82841061048a575050508201018161043461044338610422565b8054848a018601528895508794909301928101610470565b60ff19168882015294151560051b8701909401945085935061043492506104439150389050610422565b8280fd5b919050346104cc57826003193601126104cc5761050c7f0000000000000000000000000000000000000000000000000000000000000000610e1d565b926105367f0000000000000000000000000000000000000000000000000000000000000000610f39565b90825192602092602085019585871067ffffffffffffffff8811176105f957509260206105af8388966105a2998b9996528686528151998a997f0f000000000000000000000000000000000000000000000000000000000000008b5260e0868c015260e08b019061090b565b91898303908a015261090b565b924660608801523060808801528460a088015286840360c088015251928381520193925b8281106105e257505050500390f35b8351855286955093810193928101926001016105d3565b836041602492634e487b7160e01b835252fd5b50503461011157602036600319011261011157806020926001600160a01b0361063361094b565b1681526007845220549051908152f35b50503461011157602036600319011261011157806020926001600160a01b0361066a61094b565b16815280845220549051908152f35b8284346103d957816003193601126103d95761069361094b565b33825260016020528282206001600160a01b0382168352602052828220549160243583018093116106cc57602084610314858533610a0a565b80601186634e487b7160e01b6024945252fd5b5050346101115781600319360112610111576020906106fc610cf2565b9051908152f35b5050346101115781600319360112610111576020905160128152f35b839150346101115760603660031901126101115761073b61094b565b610743610966565b9184604435946001600160a01b03841681526001602052818120338252602052205490600019820361077e575b602086610314878787610b3e565b8482106107a7575091839161079c6020969561031495033383610a0a565b919394819350610770565b606490602087519162461bcd60e51b8352820152601d60248201527f45524332303a20696e73756666696369656e7420616c6c6f77616e63650000006044820152fd5b5050346101115781600319360112610111576020906002549051908152f35b50503461011157806003193601126101115760209061031461082961094b565b6024359033610a0a565b84843461011157816003193601126101115782826003546108538161097c565b90818452602095600191876001821691826000146108e4575050600114610888575b50505061044392916104349103856109e8565b9190869350600383527fc2575a0e9e593c00f959f8c92f12db2869c3395a3b0502d05e2516446f71f85b5b8284106108cc5750505082010181610434610443610875565b8054848a0186015288955087949093019281016108b3565b60ff19168782015293151560051b8601909301935084925061043491506104439050610875565b919082519283825260005b848110610937575050826000602080949584010152601f8019910116010190565b602081830181015184830182015201610916565b600435906001600160a01b038216820361096157565b600080fd5b602435906001600160a01b038216820361096157565b90600182811c921680156109ac575b602083101461099657565b634e487b7160e01b600052602260045260246000fd5b91607f169161098b565b6040810190811067ffffffffffffffff8211176109d257604052565b634e487b7160e01b600052604160045260246000fd5b90601f8019910116810190811067ffffffffffffffff8211176109d257604052565b6001600160a01b03809116918215610ad55716918215610a6b5760207f8c5be1e5ebec7d5bd14f71427d1e84f3dd0314c0f7b2291e5b200ac8c7c3b925918360005260018252604060002085600052825280604060002055604051908152a3565b608460405162461bcd60e51b815260206004820152602260248201527f45524332303a20617070726f766520746f20746865207a65726f20616464726560448201527f73730000000000000000000000000000000000000000000000000000000000006064820152fd5b608460405162461bcd60e51b8152602060048201526024808201527f45524332303a20617070726f76652066726f6d20746865207a65726f2061646460448201527f72657373000000000000000000000000000000000000000000000000000000006064820152fd5b6001600160a01b03809116918215610c885716918215610c1e57600082815280602052604081205491808310610bb457604082827fddf252ad1be2c89b69c2b068fc378daa952ba7f163c4a11628f55a4df523b3ef958760209652828652038282205586815220818154019055604051908152a3565b608460405162461bcd60e51b815260206004820152602660248201527f45524332303a207472616e7366657220616d6f756e742065786365656473206260448201527f616c616e636500000000000000000000000000000000000000000000000000006064820152fd5b608460405162461bcd60e51b815260206004820152602360248201527f45524332303a207472616e7366657220746f20746865207a65726f206164647260448201527f65737300000000000000000000000000000000000000000000000000000000006064820152fd5b608460405162461bcd60e51b815260206004820152602560248201527f45524332303a207472616e736665722066726f6d20746865207a65726f20616460448201527f64726573730000000000000000000000000000000000000000000000000000006064820152fd5b6001600160a01b037f000000000000000000000000000000000000000000000000000000000000000016301480610df4575b15610d4d577f000000000000000000000000000000000000000000000000000000000000000090565b60405160208101907f8b73c3c69bb8fe3d512ecc4cf759cc79239f7b179b0ffacaa9a75d522b39400f82527f000000000000000000000000000000000000000000000000000000000000000060408201527f000000000000000000000000000000000000000000000000000000000000000060608201524660808201523060a082015260a0815260c0810181811067ffffffffffffffff8211176109d25760405251902090565b507f00000000000000000000000000000000000000000000000000000000000000004614610d24565b60ff8114610e735760ff811690601f8211610e495760405191610e3f836109b6565b8252602082015290565b60046040517fb3512b0c000000000000000000000000000000000000000000000000000000008152fd5b50604051600554816000610e868361097c565b80835292602090600190818116908115610f155750600114610eb4575b5050610eb1925003826109e8565b90565b91509260056000527f036b6384b5eca791c62761152d0c79bb0604c104a5fb6f4eb0703f3154bb3db0936000925b828410610efd5750610eb19450505081016020013880610ea3565b85548785018301529485019486945092810192610ee2565b91505060209250610eb194915060ff191682840152151560051b8201013880610ea3565b60ff8114610f5b5760ff811690601f8211610e495760405191610e3f836109b6565b50604051600654816000610f6e8361097c565b80835292602090600190818116908115610f155750600114610f98575050610eb1925003826109e8565b91509260066000527ff652222313e28459528d920b65115c16c04f3efc82aaedc97be59f3f377c0d3f936000925b828410610fe15750610eb19450505081016020013880610ea3565b85548785018301529485019486945092810192610fc6565b9291907f7fffffffffffffffffffffffffffffff5d576e7357a4501ddfe92f46681b20a0831161107c5791608094939160ff602094604051948552168484015260408301526060820152600093849182805260015afa1561106f5781516001600160a01b03811615611069579190565b50600190565b50604051903d90823e3d90fd5b50505050600090600390565b60058110156111a457806110995750565b600181036110e557606460405162461bcd60e51b815260206004820152601860248201527f45434453413a20696e76616c6964207369676e617475726500000000000000006044820152fd5b6002810361113157606460405162461bcd60e51b815260206004820152601f60248201527f45434453413a20696e76616c6964207369676e6174757265206c656e677468006044820152fd5b60031461113a57565b608460405162461bcd60e51b815260206004820152602260248201527f45434453413a20696e76616c6964207369676e6174757265202773272076616c60448201527f75650000000000000000000000000000000000000000000000000000000000006064820152fd5b634e487b7160e01b600052602160045260246000fdfea26469706673582212206a4e79237a76dcb1e912bb043a19ef4284124e8e07066606b90942ccf756791064736f6c63430008190033",
  "linkReferences": {},
  "deployedLinkReferences": {}
}