{
  "_format": "hh-sol-artifact-1",
  "contractName": "TestReverter",
  "sourceName": "contracts/test/TestReverter.sol",
  "abi": [
    {
      "inputs": [],
      "name": "alwaysReverting",
      "outputs": [],
      "stateMutability": "pure",
      "type": "function"
    }
  ],
  "bytecode": "0x6080806040523460145760f2908161001a8239f35b600080fdfe6080806040526004361015601257600080fd5b600090813560e01c63ed4076a914602857600080fd5b3460b8578160031936011260b857807f08c379a0000000000000000000000000000000000000000000000000000000006084925260206004820152602960248201527f596f752063616c6c656420612066756e6374696f6e207468617420616c77617960448201527f73207265766572747300000000000000000000000000000000000000000000006064820152fd5b5080fdfea264697066735822122007e770d5fead0ee44b56b2e0f77823adda03421436065189102613941600097f64736f6c63430008190033",
  "linkReferences": {},
  "deployedLinkReferences": {}
}